:020000040800F2
:100000000000022075120008A10C0008A70C0008CF
:10001000AD0C0008B30C0008B90C0008000000008B
:10002000000000000000000000000000F186000851
:10003000BF0C00080000000041890008C5630008EB
:10004000C5120008C5120008C5120008C512000834
:10005000C5120008C5120008C5120008C512000824
:10006000C5120008C5120008C5120008C512000814
:10007000CD0C0008C5120008C5120008C512000802
:10008000E10C0008C5120008C5120008C5120008DE
:10009000C5120008C5120008C5120008C5120008E4
:1000A000C5120008C5120008C5120008C5120008D4
:1000B000C5120008C5120008C5120008C5120008C4
:1000C000C5120008C5120008C5120008C5120008B4
:1000D000C5120008F50C0008090D00081D0D0008E8
:1000E000C5120008C5120008C5120008C512000894
:1000F000C5120008C5120008C5120008C512000884
:10010000C5120008C5120008C5120008C512000873
:10011000C5120008C5120008310D0008C5120008FC
:10012000C5120008C5120008450D0008C5120008D8
:10013000C5120008C5120008C5120008C512000843
:10014000C5120008C5120008C5120008C512000833
:10015000C5120008C5120008C5120008C512000823
:10016000C5120008C5120008C5120008C512000813
:10017000C5120008C5120008C512000800000000E2
:08018000C5120008C5120008B9
:1001900010B5054C237833B9044B13B10448AFF3C1
:1001A00000800123237010BD10000020000000001B
:1001B000108F000808B5034B1BB103490348AFF388
:1001C000008008BD0000000014000020108F00080F
:1001D00053B94AB9002908BF00281CBF4FF0FF31AE
:1001E0004FF0FF3000F074B9ADF1080C6DE904CEAA
:1001F00000F006F8DDF804E0DDE9022304B0704702
:100200002DE9F047089D04468E46002B4DD18A42C9
:10021000944669D9B2FA82F252B101FA02F3C2F1FC
:10022000200120FA01F10CFA02FC41EA030E94408D
:100230004FEA1C48210CBEFBF8F61FFA8CF708FBAE
:1002400016E341EA034306FB07F199420AD91CEB86
:10025000030306F1FF3080F01F81994240F21C81B8
:10026000023E63445B1AA4B2B3FBF8F008FB103300
:1002700044EA034400FB07F7A7420AD91CEB040435
:1002800000F1FF3380F00A81A74240F20781644405
:10029000023840EA0640E41B00261DB1D44000238A
:1002A000C5E900433146BDE8F0878B4209D9002DEE
:1002B00000F0EF800026C5E9000130463146BDE878
:1002C000F087B3FA83F6002E4AD18B4202D38242E2
:1002D00000F2F980841A61EB030301209E46002D91
:1002E000E0D0C5E9004EDDE702B9FFDEB2FA82F2E6
:1002F000002A40F09280A1EB0C014FEA1C471FFA44
:100300008CFE0126200CB1FBF7F307FB131140EA2A
:1003100001410EFB03F0884208D91CEB010103F1F7
:10032000FF3802D2884200F2CB804346091AA4B2B9
:10033000B1FBF7F007FB101144EA01440EFB00FE8D
:10034000A64508D91CEB040400F1FF3102D2A645F2
:1003500000F2BB800846A4EB0E0440EA03409CE791
:10036000C6F12007B34022FA07FC4CEA030C20FA3E
:1003700007F401FA06F31C43F9404FEA1C4900FA5E
:1003800006F3B1FBF9F8200C1FFA8CFE09FB1811DB
:1003900040EA014108FB0EF0884202FA06F20BD94E
:1003A0001CEB010108F1FF3A80F08880884240F29E
:1003B0008580A8F102086144091AA4B2B1FBF9F0E2
:1003C00009FB101144EA014100FB0EFE8E4508D9DD
:1003D0001CEB010100F1FF346CD28E456AD9023862
:1003E000614440EA0840A0FB0294A1EB0E01A14247
:1003F000C846A64656D353D05DB1B3EB080261EBB5
:100400000E0101FA07F722FA06F3F1401F43C5E98E
:10041000007100263146BDE8F087C2F12003D840C4
:100420000CFA02FC21FA03F3914001434FEA1C4706
:100430001FFA8CFEB3FBF7F007FB10360B0C43EAF8
:10044000064300FB0EF69E4204FA02F408D91CEBA8
:10045000030300F1FF382FD29E422DD902386344A6
:100460009B1B89B2B3FBF7F607FB163341EA034146
:1004700006FB0EF38B4208D91CEB010106F1FF3895
:1004800016D28B4214D9023E6144C91A46EA00468C
:1004900038E72E46284605E70646E3E61846F8E61E
:1004A0004B45A9D2B9EB020864EB0C0E0138A3E767
:1004B0004646EAE7204694E74046D1E7D0467BE748
:1004C000023B614432E7304609E76444023842E7C0
:1004D000704700BF80B58AB000AF304B304A1A6019
:1004E0002E4B06225A602D4B00229A602B4B002285
:1004F000DA602A4B4FF420221A61284B4FF4801205
:100500005A61264B00221A76244B01225A76234B3D
:1005100000229A76214B0022DA76204B00221A77AD
:100520001E4B01225A771D4801F02CFF0346002B79
:1005300001D000F007FB00237B610023BB61012396
:10054000FB6100233B6000237B600023BB60002332
:10055000FB6000233B6101233B623B4619460F4889
:1005600002F00CF80346002B01D000F0EBFA0B4828
:1005700002F0E4F80346002B01D000F0E3FA48F65D
:100580000241064802F02EFA0346002B01D000F08B
:10059000D9FA00BF2837BD4680BD00BF2C0000201F
:1005A0000064004080B58AB000AF786007F11403A2
:1005B00000221A605A609A60DA601A617B681B68D0
:1005C000194A93422CD100233B61184B1B6C174AEC
:1005D00043F000731364154B1B6C03F000733B6115
:1005E0003B690023FB60114B1B6B104A43F0020375
:1005F00013630E4B1B6B03F00203FB60FB684FF4AD
:1006000040737B610223BB610023FB6103233B62D8
:1006100009237B6207F114031946054803F0D0F95A
:1006200000BF2837BD4680BD00640040003802404E
:100630000004024080B582B000AF00237B601B4BFA
:100640001B6B1A4A43F480031363184B1B6B03F4B0
:1006500080037B607B6800233B60144B1B6B134A59
:1006600043F400131363114B1B6B03F400133B6043
:100670003B68002205210C2002F092FA0C2002F0C7
:10068000ABFA00220521102002F08AFA102002F0B5
:10069000A3FA002205213A2002F082FA3A2002F061
:1006A0009BFA00BF0837BD4680BD00BF003802403E
:1006B00080B500AF204A0021204805F0E7FE034640
:1006C0001F4A13601F4A00211F4805F0DFFE034642
:1006D0001E4A13601E4A00211E4805F0D7FE03463D
:1006E0001D4A13601D4A00211D4805F0CFFE034638
:1006F0001C4A13601C4A00211C4805F0C7FE034633
:100700001B4A13601B4A00211B4805F0BFFE03462D
:100710001A4A13601A4A00211A4805F0B7FE034628
:10072000194A1360194A0021194805F0AFFE034623
:10073000184A136000BF80BDA88F00089907000801
:10074000BC000020CC8F0008811A00081C03002088
:10075000F08F0008D91800087C05002014900008CC
:10076000491B0008DC07002038900008551B0008D2
:100770003C0A00205C900008011700089C0E002035
:100780008090000815160008FC100020A4900008B6
:10079000751A00085C15002080B582B000AF786043
:1007A0004FF47A7005F004FFFAE7000080B58CB0D2
:1007B00000AF07F11C0300221A605A609A60DA60E9
:1007C0001A610023BB617E4B1B6B7D4A43F0100313
:1007D00013637B4B1B6B03F01003BB61BB690023EE
:1007E0007B61774B1B6B764A43F004031363744BB6
:1007F0001B6B03F004037B617B6900233B61704B3F
:100800001B6B6F4A43F0800313636D4B1B6B03F04C
:1008100080033B613B690023FB60694B1B6B684AAB
:1008200043F001031363664B1B6B03F00103FB6092
:10083000FB680023BB60624B1B6B614A43F0020301
:1008400013635F4B1B6B03F00203BB60BB680023A9
:100850007B605B4B1B6B5A4A43F008031363584B96
:100860001B6B03F008037B607B68012240F2F231CE
:10087000544803F041FA01224FF4F971524803F051
:100880003BFA01224CF20301504803F035FA0122F1
:100890004FF680714E4803F02FFA01224FF47F414A
:1008A0004C4803F029FA7E23FB6100233B620023BE
:1008B0007B6207F11C031946454803F081F84FF4A9
:1008C0007053FB6100233B6200237B6207F11C0332
:1008D00019463C4803F074F840F2F233FB610123FF
:1008E0003B6200237B620023BB6207F11C031946B5
:1008F000344803F065F84FF4F973FB6101233B6260
:1009000000237B620023BB6207F11C0319462E48BB
:1009100003F056F84CF20303FB6101233B62002312
:100920007B620023BB6207F11C031946274803F0D2
:1009300047F84FF68073FB6101233B6200237B6223
:100940000023BB6207F11C031946214803F038F865
:100950004FF47F43FB6101233B6200237B62002352
:10096000BB6207F11C0319461A4803F029F84FF43B
:100970000043FB6100233B6200237B6207F11C0301
:100980001946114803F01CF8FF23FB6100233B626A
:1009900000237B6207F11C0319460E4803F010F890
:1009A0003823FB6100233B6200237B6207F11C03B9
:1009B0001946064803F004F800BF3037BD4680BD35
:1009C00000380240000802400000024000040240DB
:1009D00000100240000C024080B500AF094B0A4AEB
:1009E0001A60084B03225A60064B40F6FF729A6069
:1009F000044803F09AF90346002B01D000F0A2F856
:100A000000BF80BDBC1900200030004080B500AFA1
:100A100001F076FC00F018F8FFF7C8FEFFF70AFEB9
:100A200000F048FA00F070FA00F098FA00F0A6F929
:100A3000FFF7D2FFFFF74EFD05F0DEFCFFF738FEB3
:100A400005F0FEFCFEE7000080B594B000AF07F1B2
:100A5000200330220021184608F052FA07F10C0357
:100A600000221A605A609A60DA601A610023BB6043
:100A7000294B1B6C284A43F080531364264B1B6C94
:100A800003F08053BB60BB6800237B60234B1B6873
:100A9000224A43F480431360204B1B6803F48043D5
:100AA0007B607B6809233B624FF480337B620123C8
:100AB0007B630223BB634FF48003FB6304233B642B
:100AC000A8237B640223BB640423FB6407F1200397
:100AD000184603F07DF90346002B01D000F032F8F0
:100AE0000F23FB6002233B6100237B614FF4A05383
:100AF000BB614FF48053FB6107F10C0305211846DD
:100B000003F0DEFB0346002B01D000F01BF800BF12
:100B10005037BD4680BD00BF003802400070004025
:100B200080B582B000AF78607B681B68044A93424E
:100B300001D101F007FC00BF0837BD4680BD00BFF2
:100B40000010004080B400AF72B600BFFEE70000A6
:100B500080B582B000AF00237B60124B5B6C114A02
:100B600043F4804353640F4B5B6C03F480437B601E
:100B70007B6800233B600B4B1B6C0A4A43F080539D
:100B80001364084B1B6C03F080533B603B680022EE
:100B90000F216FF0010002F003F800BF0837BD46D7
:100BA00080BD00BF0038024080B58EB000AF7860D5
:100BB0000023FB620023BB620023FB60334B1B6CF2
:100BC000324A43F010031364304B1B6C03F01003E4
:100BD000FB60FB6807F1100207F114031146184689
:100BE00003F08EFD3B6AFB62FB6A002B03D103F02E
:100BF0005FFD786304E003F05BFD03465B007B630D
:100C00007B6B234AA2FB03239B0C013BBB62214B62
:100C1000214A1A601F4B40F2E732DA601D4ABB6A74
:100C200053601C4B00221A611A4B00229A60194B28
:100C300000229A61174803F095FD034687F8333088
:100C400097F83330002B1BD1124803F0E5FD034623
:100C500087F8333097F83330002B11D1362001F06C
:100C6000BBFF7B680F2B08D800227968362001F083
:100C700097FF0A4A7B68136002E0012387F833304C
:100C800097F8333018463837BD4680BD00380240EB
:100C900083DE1B43C8190020001000400400002020
:100CA00080B400AFFEE780B400AFFEE780B400AFD1
:100CB000FEE780B400AFFEE780B400AFFEE780B48B
:100CC00000AF00BFBD465DF8047B704780B500AF44
:100CD000024802F027F900BF80BD00BFE41B0020DE
:100CE00080B500AF024802F01DF900BF80BD00BF13
:100CF000841B002080B500AF024804F047FA00BF13
:100D000080BD00BF581A002080B500AF024804F033
:100D10003DFA00BF80BD00BF9C1A002080B500AF27
:100D2000024804F033FA00BF80BD00BFE01A002083
:100D300080B500AF024803F085FE00BF80BD00BF54
:100D4000C819002080B500AF024802F0EBF800BFE0
:100D500080BD00BF241B002080B400AF064BD3F839
:100D60008830054A43F47003C2F8883000BFBD469E
:100D70005DF8047B704700BF00ED00E080B58CB0EB
:100D800000AF07F10C0324220021184608F0B8F840
:100D90003B1D00221A605A60204B214A1A601F4BEB
:100DA00000225A601D4B00229A601C4B4FF6FF72C6
:100DB000DA601A4B00221A61184B00229A61012353
:100DC000FB6000233B6101237B610023BB610023A7
:100DD000FB6100233B6201237B620023BB62002393
:100DE000FB6207F10C0319460C4803F085FD03462E
:100DF000002B01D0FFF7A6FE00237B600023BB6021
:100E00003B1D1946054803F0EDFF0346002B01D0BA
:100E1000FFF798FE00BF3037BD4680BD101A002096
:100E20000008004080B58AB000AF786007F1140375
:100E300000221A605A609A60DA601A617B681B6847
:100E4000194A93422BD100233B61184B1B6C174A64
:100E500043F004031364154B1B6C03F004033B6164
:100E60003B690023FB60114B1B6B104A43F00203EC
:100E700013630E4B1B6B03F00203FB60FB68C02384
:100E80007B610223BB610023FB6100233B620223E1
:100E90007B6207F114031946054802F091FD00BF7B
:100EA0002837BD4680BD00BF000800400038024022
:100EB0000004024080B500AF114B124A1A60104B7B
:100EC0004FF4E1325A600E4B00229A600C4B002224
:100ED000DA600B4B00221A61094B0C225A61084B55
:100EE00000229A61064B0022DA61054804F00AF8F4
:100EF0000346002B01D0FFF725FE00BF80BD00BFD9
:100F0000581A00200010014080B500AF114B124A62
:100F10001A60104B4FF4E1325A600E4B00229A6077
:100F20000C4B0022DA600B4B00221A61094B0C2299
:100F30005A61084B00229A61064B0022DA6105488B
:100F400003F0E0FF0346002B01D0FFF7FBFD00BFDD
:100F500080BD00BF9C1A00200044004080B500AF57
:100F6000114B124A1A60104B4FF4E1325A600E4B8B
:100F700000229A600C4B0022DA600B4B00221A61AF
:100F8000094B0C225A61084B00229A61064B002241
:100F9000DA61054803F0B6FF0346002B01D0FFF7E6
:100FA000D1FD00BF80BD00BFE01A00200048004016
:100FB00080B58EB000AF786007F1240300221A607C
:100FC0005A609A60DA601A617B681B689D4A934296
:100FD00063D100233B629C4B5B6C9B4A43F0100344
:100FE0005364994B5B6C03F010033B623B6A002334
:100FF000FB61954B1B6B944A43F001031363924BC7
:101000001B6B03F00103FB61FB694FF4C0637B6260
:101010000223BB620023FB6203233B6307237B6342
:1010200007F124031946894802F0CAFC884B894A13
:101030001A60874B4FF000625A60854B00229A601D
:10104000834B0022DA60824B4FF480621A61804B3E
:1010500000225A617E4B00229A617D4B0022DA61A8
:101060007B4B00221A627A4B00225A62784801F0C8
:10107000C1FD0346002B01D0FFF764FD7B68744A75
:101080009A63734A7B68936300220521252001F04F
:1010900087FD252001F0A0FDCFE07B681B686E4A2C
:1010A000934262D10023BB61674B1B6C664A43F4D9
:1010B00000331364644B1B6C03F40033BB61BB69E6
:1010C00000237B61604B1B6B5F4A43F0010313639A
:1010D0005D4B1B6B03F001037B617B690C237B621F
:1010E0000223BB620023FB6203233B6307237B6372
:1010F00007F124031946554802F062FC574B584A41
:101100001A60564B4FF000625A60544B00229A60AE
:10111000524B0022DA60514B4FF480621A614F4B00
:1011200000225A614D4B00229A614C4B0022DA6139
:101130004A4B00221A62494B00225A62474801F08A
:1011400059FD0346002B01D0FFF7FCFC7B68434AA6
:101150009A63424A7B68936300220521262001F0AE
:101160001FFD262001F038FD67E07B681B683D4AC3
:10117000934262D100233B61334B1B6C324A43F4F0
:1011800080231364304B1B6C03F480233B613B6969
:101190000023FB602C4B1B6B2B4A43F002031363B1
:1011A000294B1B6B03F00203FB60FB684FF44063A9
:1011B0007B620223BB620023FB6203233B630723A2
:1011C0007B6307F124031946274802F0F9FB274BFC
:1011D000274A1A60254B4FF000625A60234B0022C9
:1011E0009A60224B0022DA60204B4FF480621A6131
:1011F0001E4B00225A611D4B00229A611B4B00229C
:10120000DA611A4B00221A62184B00225A62174800
:1012100001F0F0FC0346002B01D0FFF793FC7B6844
:10122000124A9A63114A7B689363002205212720A2
:1012300001F0B6FC272001F0CFFC00BF3837BD46D7
:1012400080BD00BF00100140003802400000024095
:10125000241B00204064024000440040841B002006
:10126000886002400048004000040240E41B002067
:1012700028600240DFF834D00D480E490E4A0023A2
:1012800002E0D458C4500433C4188C42F9D30B4A3A
:101290000B4C002301E013600432A242FBD3FFF7A2
:1012A0005BFD07F0FBFDFFF7B1FB7047000002207C
:1012B00000000020100000202891000810000020ED
:1012C000C8660020FEE780B485B000AFF860B96062
:1012D0007A603B60FB687A681A62FB68BA685A6099
:1012E000FB683A681A60FB680022DA60FB68082233
:1012F0001A61FB6800221A75BB68002B03D0FB68DB
:1013000004229A6002E0FB6800229A60FB6818469B
:101310001437BD465DF8047B704780B582B000AFDE
:10132000786039603B68002200217868FFF7CBFFC6
:101330007B6818460837BD4680BD80B582B000AFD7
:10134000786039607B681B6A002B21D07B68232280
:101350001A767B6800225A767B6820229A767B6810
:101360001B6ADAB27B68DA763B681B16DAB27B68F6
:101370001A773B681B14DAB27B685A773B681B12FA
:10138000DAB27B689A773B68DAB27B68DA771EE07C
:101390007B68A2221A767B6800225A767B6800223C
:1013A0009A767B680022DA763B68DAB27B681A7735
:1013B0003B681B12DAB27B685A773B681B14DAB2BF
:1013C0007B689A773B681B16DAB27B68DA777868B5
:1013D00000F0CEF8034618460837BD4680BD80B5FC
:1013E00082B000AF78607B681B6A002B1AD07B68E4
:1013F00023221A767B6800225A767B6820229A760E
:101400007B681B6ADAB27B68DA767B6800221A771F
:101410007B6800225A777B6800229A777B680022DB
:10142000DA7717E07B6881221A767B6800225A7689
:101430007B6800229A767B680022DA767B6800223D
:101440001A777B6800225A777B6800229A777B683C
:101450000022DA77786800F08BF8034618460837E0
:10146000BD4680BD80B582B000AF78607B681B6AE6
:10147000002B1AD07B6823221A767B680D225A76BD
:101480007B6820229A767B681B6ADAB27B68DA7600
:101490007B6800221A777B6800225A777B680022DB
:1014A0009A777B680022DA7717E07B6888221A76C1
:1014B0007B6800225A767B6800229A767B6800223D
:1014C000DA767B6800221A777B6800225A777B687D
:1014D00000229A777B680022DA77786800F048F873
:1014E000034618460837BD4680BD80B582B000AFC0
:1014F00078607B681B6A002B1AD07B6823221A76DF
:101500007B680C225A767B6820229A767B681B6A5D
:10151000DAB27B68DA767B6800221A777B68002271
:101520005A777B6800229A777B680022DA7717E087
:101530007B6880221A767B6800225A767B680022BC
:101540009A767B680022DA767B6800221A777B68BD
:1015500000225A777B6800229A777B680022DA772C
:10156000786800F005F8034618460837BD4680BD88
:1015700080B582B000AF78607A687B68183319460E
:10158000104600F08BF8034618460837BD4680BD6C
:1015900080B483B000AF0346FB7197F90730002B8E
:1015A0000BDBFB7903F01F02074997F907305B0952
:1015B000012000FA02F241F8232000BF0C37BD469B
:1015C0005DF8047B704700BF00E100E080B483B0A9
:1015D00000AF0346FB7197F90730002B12DBFB7954
:1015E00003F01F020A4997F907305B09012000FA4E
:1015F00002F2203341F82320BFF34F8F00BFBFF327
:101600006F8F00BF00BF0C37BD465DF8047B70478D
:1016100000E100E080B582B000AF7860144B1B7829
:10162000DBB2012B0CBF01230023DBB2002B09D05E
:101630000F4B00221A700F4B00221A600E4800F068
:101640001DF811E00A4B1B78DBB2022B0CBF012303
:101650000023DBB2002B07D0064B1B680133054A81
:101660001360034B00221A70012004F0A1FFD5E79C
:10167000441C0020541C00204C1C002080B582B06B
:1016800000AF78601420FFF7A1FF1420FFF780FF60
:10169000012318460837BD4680BD000080B582B0E2
:1016A00000AF786039607B685B68002B03D17B6892
:1016B0001B68002B1BD0104801F05FF90346002B7C
:1016C0000CBF01230023DBB2002B00D0F3E70B4B50
:1016D0003A687968084801F075F80346002B14BF92
:1016E00001230023DBB2002B01D0002300E0012303
:1016F00018460837BD4680BD2C000020481C00203D
:1017000080B598B000AF786007F1340340F2411122
:101710001846FFF702FE07F10C034FF4A1711846BB
:10172000FFF7FBFD47F23053FB65FB6D5A4207F1B3
:10173000340311461846FFF700FE40F6B83004F0B7
:1017400037FF1E4BFB6507F13403F96D1846FFF7B1
:10175000F4FD07F10C031846FFF741FE07F10C03F7
:101760001846FFF7C2FE40F6B83004F021FF07F13B
:1017700034031846FFF733FE07F10C031846FFF752
:1017800071FE40F6B83004F013FF07F13403184639
:10179000FFF7ABFE07F10C03F96D1846FFF7CDFD1F
:1017A00040F6B83004F004FF07F134031846FFF7A1
:1017B00059FE40F6B83004F0FBFEB3E7905F01003D
:1017C000B0B588B000AF78602F4B00221A602E4B66
:1017D00002221A612C4B07229A602B4B0122DA60FD
:1017E0002A4BFB610023FB6001F05AFE07F10C035A
:1017F0001946254801F0C2FF0346002B14BF012300
:101800000023DBB2002B04D001F07CFE38613B6981
:1018100035E0142004F0CCFE0023BB61BB690D2B26
:1018200027D8BB699B007A6813441B6800221C46BA
:10183000154622462B46F969022001F0DDFD0346DC
:10184000002B14BF01230023DBB2002B07D001F0D3
:1018500059FE7861322004F0ABFE7B690FE0FB6932
:101860000433FB61022004F0A3FEBB690133BB61BA
:10187000D4E70A2004F09CFE01F034FE0023184651
:101880002037BD46B0BD00BF581C00200000060830
:1018900080B584B000AF78600E4BFB600023BB6066
:1018A000BB680D2B0DD8FA68BB689B0079680B44A8
:1018B00012681A60FB680433FB60BB680133BB60CD
:1018C000EEE70A2004F074FE002318461037BD46E8
:1018D00080BD00BF0000060880B582B000AF786010
:1018E0005F4B1B6903F40053002B05D05D4A137F47
:1018F0006FF30003137704E05A4A137F43F00103A8
:101900001377594B1B6903F04003002B05D0554A50
:10191000137F6FF34103137704E0524A137F43F0C0
:1019200002031377504B1B6903F02003002B05D0F3
:101930004C4A137F6FF38203137704E0494A137F05
:1019400043F004031377484B1B6903F01003002B8B
:1019500005D0444A137F6FF3C303137704E0414A71
:10196000137F43F0080313773F4B1B6903F0080311
:10197000002B05D03B4A137F6FF30413137704E069
:10198000384A137F43F010031377374B1B6903F07A
:101990000403002B05D0334A137F6FF345131377ED
:1019A00004E0304A137F43F0200313772E4B1B696A
:1019B00003F00203002B05D02A4A137F6FF386132E
:1019C000137704E0274A137F43F040031377274B34
:1019D0001B6903F02003002B05D0224A137F6FF30D
:1019E000C713137704E01F4A137F43F08003137774
:1019F0001E4B1B6903F01003002B05D0194A537FBF
:101A00006FF30003537704E0164A537F43F001035A
:101A10005377164B1B6903F00803002B05D0114ABE
:101A2000537F6FF34103537704E00E4A537F43F033
:101A3000020353770E4B1B6903F08003002B05D084
:101A4000084A537F6FF38203537704E0054A537FBC
:101A500043F004035377012004F0AAFD40E700BFE0
:101A60000008024054000020001002400004024020
:101A7000000C024080B483B000AF7860FEE7000045
:101A800080B582B000AF7860074802F090F900F0AE
:101A90000FF8064B5B79002B01D000F011F8012004
:101AA00004F086FDF0E700BFBC19002054000020C0
:101AB00080B400AF00BFBD465DF8047B70470000F6
:101AC00080B582B000AF1A4B5B791A46194B53F8B8
:101AD00022301A46184B1A60154B5B791A46174B81
:101AE00053F822301A46164B1A6000237B60124BC3
:101AF0001B687A689A4214DA114B1B68184604F086
:101B000057FD104B4FF480129A610D4B1B6818461D
:101B100004F04EFD0B4B10229A617B6801337B6011
:101B2000E5E7034B00225A7100BF0837BD4680BD70
:101B300054000020F8900008701C0020E09000087D
:101B40006C1C00200008024080B483B000AF7860B5
:101B5000FEE70000B0B584B000AF7860642264494D
:101B6000644803F0AEFA644B1B681A68624B1B684A
:101B700022F008021A6000F093F9604B1B78002BEA
:101B8000FBD05B4B9B78642BF7D1594B1B78842B94
:101B9000F3D1574B5B78532BEFD1554BDB78FB736D
:101BA000FB7B012B17D1524BDC790721504800F009
:101BB00057F903469C4214BF01230023DBB2002BDC
:101BC00006D04F4B1B790133DAB24D4B1A7186E0C8
:101BD00000F09CF883E0FB7B022B17D1444BDC79AF
:101BE0000721434800F03CF903469C4214BF0123FF
:101BF0000023DBB2002B06D0414B1B790133DAB254
:101C00003F4B1A716BE000F0C1F868E0FB7B052BDD
:101C100021D1374BDC7D1721354800F021F90346EF
:101C20009C4214BF01230023DBB2002B06D0344BAF
:101C30001B790133DAB2324B1A7150E02C4B314A26
:101C400014461D460FCD0FC495E8030084E8030039
:101C500000F0A4F843E0FB7B032B17D1244BDC7985
:101C60000721234800F0FCF803469C4214BF0123DF
:101C70000023DBB2002B06D0214B1B790133DAB2F3
:101C80001F4B1A712BE000F0B7F828E0FB7B042B08
:101C900025D1174B93F83F403F21154800F0E0F85D
:101CA00003469C4214BF01230023DBB2002B06D065
:101CB000134B1B790133DAB2114B1A710FE00C4B45
:101CC000114A14461D460FCD0FC40FCD0FC40FCDC2
:101CD0000FC495E80F0084E80F0000F02BF9074BC4
:101CE00000221A7064220021014807F009F944E734
:101CF000781C0020581A0020241B0020741C00208F
:101D000054000020FC1C0020141D002080B500AFF2
:101D10001B4B84221A701A4B53225A70184B6422A0
:101D20009A70174B0122DA70164B1A79144B5A77B6
:101D3000144B9B68124A5360124BDB68104A936045
:101D4000104B1B690E4AD3600D4A0E4B9B8B1382BE
:101D50000C4B1B6A0A4A53610A4B5B6A084A93613F
:101D60001F21074800F07CF803461A46044BDA7737
:101D7000642320220249044803F011F900BF80BD0A
:101D8000DC1C002054000020581A002080B400AF52
:101D900000BFBD465DF8047B7047000080B400AF13
:101DA000134B1B79012B0FD1114B9B68114A936286
:101DB0000F4BDB680F4AD3620D4B1B690D4A536210
:101DC0000C4B01225A610AE0094B1B79022B03D10B
:101DD000074B1B79032B02D0064B00225A61044BA0
:101DE0001A79044B1A7000BFBD465DF8047B70473A
:101DF000FC1C002054000020B0B500AF154B84221D
:101E00001A70144B53225A70124B64229A70114B61
:101E10000322DA700F4B104A1C1D15460FCD0FC45C
:101E20000FCD0FC40FCD0FC495E8030084E8030065
:101E30003F21084800F014F803461A46054B83F882
:101E40003F20642340220349044803F0A8F800BF60
:101E5000B0BD00BF141D002084000020581A0020CF
:101E600080B485B000AF786039600023FB73002335
:101E7000BB60BA683B689A420ADABB687A68134466
:101E80001A78FB7B1344FB73BB680133BB60F0E73C
:101E9000FB7B18461437BD465DF8047B7047000095
:101EA00080B500AF1F48FFF7F3FC1E4B93F83630A8
:101EB000442B34D01B4B1C4A1A601A4B1B4A9A61A4
:101EC000184B4FF47A725A60164B4FF4FA729A60BC
:101ED000144B4FF47A72DA60124B4FF4FA721A61B3
:101EE000104B0A225A610F4B114ADA610D4B104A0E
:101EF0001A620C4B0E4A5A620A4B4FF07E529A629B
:101F0000084B4FF07E52DA62064B4FF07E521A6356
:101F1000044A92F8343043F0010382F8343000BFB1
:101F200080BD00BF840000200000C84200002041A6
:101F30000000F04180B582B000AF00237B608D4B84
:101F4000D3ED017AF5EEC07AF1EE10FA04DD894B9B
:101F50005B68894A136002E07B6801337B60854BD4
:101F6000D3ED077AF5EEC07AF1EE10FA04DD814B7D
:101F7000DB69814A936102E07B6801337B607D4BC2
:101F80009B68002B0AD07B4B9B6841F287329342BF
:101F900004D8784B9B68784A536002E07B68013331
:101FA0007B60744BDB68002B0AD0724BDB6841F21C
:101FB0008732934204D86F4BDB686F4A936002E02C
:101FC0007B6801337B606B4B1B69002B0AD0694B2C
:101FD0001B6941F28732934204D8664B1B69664AFB
:101FE000D36002E07B6801337B60624B5B69002B4E
:101FF0000AD0604B5B6941F28732934204D85D4B53
:102000005B695D4A136102E07B6801337B60594B79
:102010005B69002B0AD0574B5B6941F287329342D0
:1020200004D8544B5B69544A136102E07B68013366
:102030007B60504B9B69002B04D04E4B9B694E4AF2
:10204000536102E07B6801337B604A4BD3ED087A31
:10205000F5EEC07AF1EE10FA0EDD464BD3ED087ABC
:102060009FED467AF4EEC77AF1EE10FA04D5414BB3
:102070001B6A414AD36102E07B6801337B603D4BC0
:10208000D3ED097AF5EEC07AF1EE10FA0EDD394B98
:10209000D3ED097A9FED397AF4EEC77AF1EE10FAB2
:1020A00004D5344B5B6A344A136202E07B68013327
:1020B0007B60304BD3ED0A7AF5EEC07AF1EE10FA80
:1020C0000EDD2C4BD3ED0A7A9FED2C7AF4EEC77A15
:1020D000F1EE10FA04D5274B9B6A274A536202E0BF
:1020E0007B6801337B60234BD3ED0B7AF5EEC07A2E
:1020F000F1EE10FA04DD1F4BDB6A1F4A936202E027
:102100007B6801337B601B4BD3ED0C7AF5EEC07A14
:10211000F1EE10FA04DD174B1B6B174AD36202E095
:102120007B6801337B60134BD3ED0D7AF5EEC07AFB
:10213000F1EE10FA04DD0F4B5B6B0F4A136302E004
:102140007B6801337B607B68002B04D00C4B05223D
:102150005A717B680AE0084B442283F8362006480F
:10216000FFF72EFB064B04225A710023184608374E
:10217000BD4680BD141D0020840000200000FA43ED
:102180005400002080B588B000AF7860424803F06A
:10219000A9FAF861FB69013B0F2B63D801A252F841
:1021A00023F000BFE5210008032200086522000893
:1021B0002122000865220008652200086522000827
:1021C0003F220008652200086522000865220008F9
:1021D00065220008652200086522000865220008C3
:1021E0005D2200080023BB612B4B1B681B68BB6191
:1021F000294B1B685B68BB61BB697B6800221A6462
:1022000031E000237B61244B1B681B687B61224B00
:102210001B685B687B617B697B6800221A6422E033
:1022200000233B611C4B1B681B683B611A4B1B68FE
:102230005B683B613B697B6800221A6413E0002302
:10224000FB607B681B681B68FB607B681B685B68C6
:10225000FB60FB687B6800221A6404E07B68002254
:102260001A6400E000BF7B681B680C4A93420FD1E0
:102270000B4B01221A7064220A49074802F021FF21
:10228000094B1B681A68084B1B6822F008021A6089
:1022900000BF2037BD4680BD581A00200010014005
:1022A000741C0020781C0020241B002080B582B004
:1022B00000AF78600B467B807B681B680B4A9342BB
:1022C0000FD10B4B01221A7064220A490A4802F00E
:1022D000F8FE0A4B1B681A68084B1B6822F00802BC
:1022E0001A6000BF0837BD4680BD00BF0010014026
:1022F000741C0020781C0020581A0020241B002089
:1023000080B500AF0E4B1B680D4A43F40073136099
:102310000B4B1B680A4A43F480631360084B1B682D
:10232000074A43F480731360032000F02EFC0F2053
:10233000FEF73AFCFEF70CFC0023184680BD00BFF8
:10234000003C024080B400AF064B1B781A46064B97
:102350001B681344044A136000BFBD465DF8047B4C
:10236000704700BF08000020541D002080B400AF5B
:10237000034B1B681846BD465DF8047B704700BFE1
:10238000541D002080B584B000AF78607B68002BBE
:1023900001D10123EDE07B6893F82030DBB2002B04
:1023A00002D17868FEF7FEF87B681B681A687B68C4
:1023B0001B6842F001021A60FFF7D8FFF86012E0D4
:1023C000FFF7D4FF0246FB68D31A0A2B0BD97B68B0
:1023D0005B6A43F400327B685A627B68052283F8AB
:1023E00020200123C5E07B681B685B6803F00103C4
:1023F000002BE5D07B681B681A687B681B6822F09D
:1024000002021A60FFF7B2FFF86012E0FFF7AEFFBA
:102410000246FB68D31A0A2B0BD97B685B6A43F42C
:1024200000327B685A627B68052283F820200123F2
:102430009FE07B681B685B6803F00203002BE5D11B
:102440007B681B7E012B08D17B681B681A687B6840
:102450001B6842F080021A6007E07B681B681A68FC
:102460007B681B6822F080021A607B685B7E012B10
:1024700008D17B681B681A687B681B6842F04002C1
:102480001A6007E07B681B681A687B681B6822F08B
:1024900040021A607B689B7E012B08D17B681B6819
:1024A0001A687B681B6842F020021A6007E07B68AC
:1024B0001B681A687B681B6822F020021A607B6820
:1024C000DB7E012B08D17B681B681A687B681B6860
:1024D00022F010021A6007E07B681B681A687B68AC
:1024E0001B6842F010021A607B681B7F012B08D129
:1024F0007B681B681A687B681B6842F008021A60D8
:1025000007E07B681B681A687B681B6822F008027A
:102510001A607B685B7F012B08D17B681B681A6897
:102520007B681B6842F004021A6007E07B681B6846
:102530001A687B681B6822F004021A607B689A683C
:102540007B68DB681A437B681B691A437B685B699D
:1025500042EA03017B685B685A1E7B681B680A437A
:10256000DA617B6800225A627B68012283F82020AE
:10257000002318461037BD4680BD000080B487B0E8
:1025800000AF786039607B681B687B617B6893F87B
:102590002030FB74FB7C012B03D0FB7C022B40F032
:1025A000BE80654B7B617B69D3F8003243F001024A
:1025B0007B69C3F800227B69D3F8003223F47C5294
:1025C0007B69C3F800227B69D3F800223B685B6A11
:1025D0001B021A437B69C3F800223B685B6903F066
:1025E0001F03012202FA03F3FB607B69D3F81C226C
:1025F000FB68DB431A407B69C3F81C223B68DB693C
:10260000002B23D17B69D3F80C22FB68DB431A40F3
:102610007B69C3F80C223B68DB6819043B685B6884
:102620009BB23A68526919437B69483243F83210C9
:102630003B689B6819043B681B689AB23B685B69FE
:102640000A4379694833DB000B445A603B68DB6915
:10265000012B22D17B69D3F80C22FB681A437B69DA
:10266000C3F80C223B681B6819043B685B689BB28B
:102670003A68526919437B69483243F832103B6823
:102680009B6819043B68DB689AB23B685B690A4344
:1026900079694833DB000B445A603B689B69002B27
:1026A00009D17B69D3F80422FB68DB431A407B69BC
:1026B000C3F8042207E07B69D3F80422FB681A43BD
:1026C0007B69C3F804223B681B69002B09D17B6935
:1026D000D3F81422FB68DB431A407B69C3F8142249
:1026E00007E07B69D3F81422FB681A437B69C3F8BF
:1026F00014223B681B6A012B07D17B69D3F81C228B
:10270000FB681A437B69C3F81C227B69D3F800324B
:1027100023F001027B69C3F80022002306E07B68F6
:102720005B6A43F480227B685A62012318461C3797
:10273000BD465DF8047B70470064004080B584B0FE
:1027400000AF78607B6893F82030DBB2012B2ED18C
:102750007B68022283F820207B681B681A687B68EC
:102760001B6822F001021A60FFF700FEF86012E019
:10277000FFF7FCFD0246FB68D31A0A2B0BD97B68D6
:102780005B6A43F400327B685A627B68052283F8F7
:102790002020012312E07B681B685B6803F00103C3
:1027A000002BE5D17B6800225A62002306E07B689B
:1027B0005B6A43F400227B685A6201231846103793
:1027C000BD4680BD80B489B000AFF860B9607A6062
:1027D0003B60FB6893F82030FB77FB681B689B68C5
:1027E000BB61FB7F012B03D0FB7F022B40F0B88045
:1027F000BB6903F08063002B0AD1BB6903F000635F
:10280000002B05D1BB6903F08053002B00F0A080A2
:10281000BB691B0E03F003037B617B69022B07D9A5
:10282000FB685B6A43F40002FB685A6201239EE086
:1028300001227B699A403B681A60BB689B68002B49
:102840000DD1BB681B685A05BB68DB68F96809686D
:102850001A437B6918331B010B441A600FE0BB68F5
:102860005B68DA00BB689B681A43BB68DB68F96881
:1028700009681A437B6918331B010B441A60FB6813
:102880001968BB681A697B6918331B010B44043350
:102890001A60BB681B7D012B11D1FB681A687B692C
:1028A00018331B01134404331B68FA68116843F49E
:1028B00080727B6918331B010B4404331A607B68F8
:1028C00007331B781A067B6806331B781B041A43F0
:1028D0007B6805331B781B0213437A680432127835
:1028E0001046FA68116843EA00027B691B010B4439
:1028F00003F5C6731A607B6803331B781A067B687E
:1029000002331B781B041A437B6801331B781B02BC
:1029100013437A6812781046FA68116843EA000295
:102920007B691B010B4403F5C4731A60FB681A68CA
:102930007B6918331B0113441B68FA68116843F064
:1029400001027B6918331B010B441A6000230EE05F
:10295000FB685B6A43F40012FB685A62012306E0DD
:10296000FB685B6A43F48022FB685A6201231846C5
:102970002437BD465DF8047B704780B485B000AF56
:1029800078600023FB607B6893F82030FB72FB7A51
:10299000012B02D0FB7A022B1DD17B681B689B6840
:1029A00003F08063002B02D0FB680133FB607B687F
:1029B0001B689B6803F00063002B02D0FB680133A7
:1029C000FB607B681B689B6803F08053002B02D080
:1029D000FB680133FB60FB6818461437BD465DF8A1
:1029E000047B704780B485B000AF786039607B6845
:1029F00093F82030FB73FB7B012B02D0FB7B022B77
:102A000009D17B681B6859697B681B683A680A436F
:102A10005A61002306E07B685B6A43F480227B688E
:102A20005A62012318461437BD465DF8047B70478F
:102A300080B485B000AF78607B6803F00703FB606B
:102A40000C4BDB68BB60BA684FF6FF031340BB60FA
:102A5000FB681A02BB68134343F0BF6343F40033BF
:102A6000BB60044ABB68D36000BF1437BD465DF845
:102A7000047B704700ED00E080B400AF044BDB68DE
:102A80001B0A03F007031846BD465DF8047B704738
:102A900000ED00E080B483B000AF0346FB7197F90E
:102AA0000730002B0BDBFB7903F01F02074997F976
:102AB00007305B09012000FA02F241F8232000BF31
:102AC0000C37BD465DF8047B704700BF00E100E0B5
:102AD00080B483B000AF03463960FB7197F90730CB
:102AE000002B0ADB3B68DAB20C4997F90730120178
:102AF000D2B20B4483F800230AE03B68DAB20849FB
:102B0000FB7903F00F03043B1201D2B20B441A7697
:102B100000BF0C37BD465DF8047B704700E100E064
:102B200000ED00E080B489B000AFF860B9607A6071
:102B3000FB6803F00703FB61FB69C3F10703042B88
:102B400028BF0423BB61FB690433062B02D9FB6950
:102B5000033B00E000237B614FF0FF32BB6902FAC8
:102B600003F3DA43BB681A407B699A404FF0FF31A8
:102B70007B6901FA03F3D9437B680B401343184682
:102B80002437BD465DF8047B704780B582B000AF46
:102B900078607868FFF74CFF00BF0837BD4680BDFE
:102BA00080B586B000AF0346B9607A60FB7300233E
:102BB0007B61FFF761FF78617A68B9687869FFF730
:102BC000B1FF024697F90F3011461846FFF780FF14
:102BD00000BF1837BD4680BD80B582B000AF034648
:102BE000FB7197F907301846FFF754FF00BF08370D
:102BF000BD4680BD80B586B000AF786000237B61A4
:102C0000FFF7B4FB38617B68002B01D1012399E009
:102C10007B68022283F835207B68002283F8342009
:102C20007B681B681A687B681B6822F001021A60C7
:102C30000FE0FFF79BFB02463B69D31A052B08D92F
:102C40007B6820225A657B68032283F835200323A2
:102C500078E07B681B681B6803F00103002BE8D158
:102C60007B681B681B687B617A69384B13407B610A
:102C70007B685A687B689B681A437B68DB681A43E9
:102C80007B681B691A437B685B691A437B689B6995
:102C90001A437B68DB691A437B681B6A13437A69B2
:102CA00013437B617B685B6A042B07D17B68DA6A1C
:102CB0007B681B6B13437A6913437B617B681B68DA
:102CC0007A691A607B681B685B697B617B6923F0AA
:102CD00007037B617B685B6A7A6913437B617B686E
:102CE0005B6A042B17D17B689B6A7A6913437B610B
:102CF0007B68DB6A002B0ED0786800F001FB03468E
:102D0000002B08D07B6840225A657B68012283F83B
:102D10003520012316E07B681B687A695A61786860
:102D200000F0B8FA0346FB607B68DB6D3F229A40F7
:102D3000FB689A607B6800225A657B68012283F8F1
:102D40003520002318461837BD4680BD3F8010F05F
:102D500080B586B000AFF860B9607A603B60002350
:102D6000FB75FB689B6D3B61FB6893F83430012B6E
:102D700001D1022340E0FB68012283F83420FB6884
:102D800093F83530DBB2012B2FD1FB68022283F898
:102D90003520FB6800225A653B687A68B968F86894
:102DA00000F04AFAFB68DB6D3F229A403B699A606B
:102DB000FB681B681A68FB681B6842F016021A6001
:102DC000FB681B6C002B07D0FB681B681A68FB684C
:102DD0001B6842F008021A60FB681B681A68FB68EF
:102DE0001B6842F001021A6005E0FB68002283F8CC
:102DF00034200223FB75FB7D18461837BD4680BD85
:102E000080B584B000AF78607B689B6DFB60FFF796
:102E1000ADFAB8607B6893F83530DBB2022B08D08E
:102E20007B6880225A657B68002283F83420012366
:102E300052E07B681B681A687B681B6822F01602E8
:102E40001A607B681B685A697B681B6822F08002E5
:102E50005A617B681B6C002B03D17B689B6C002B39
:102E600007D07B681B681A687B681B6822F0080221
:102E70001A607B681B681A687B681B6822F0010275
:102E80001A6013E0FFF772FA0246BB68D31A052BEB
:102E90000CD97B6820225A657B68032283F8352091
:102EA0007B68002283F83420032315E07B681B68CD
:102EB0001B6803F00103002BE4D17B68DB6D3F222C
:102EC0009A40FB689A607B68012283F835207B6812
:102ED000002283F83420002318461037BD4680BDF9
:102EE00080B483B000AF78607B6893F83530DBB294
:102EF000022B04D07B6880225A6501230CE07B689A
:102F0000052283F835207B681B681A687B681B687C
:102F100022F001021A60002318460C37BD465DF806
:102F2000047B704780B586B000AF78600023BB603B
:102F30008E4B1B688E4AA2FB03239B0A7B617B6836
:102F40009B6D3B613B691B68FB607B68DB6D082206
:102F50009A40FB681340002B1AD07B681B681B68E3
:102F600003F00403002B13D07B681B681A687B688E
:102F70001B6822F004021A607B68DB6D08229A400D
:102F80003B699A607B685B6D43F001027B685A6520
:102F90007B68DB6D01229A40FB681340002B12D046
:102FA0007B681B685B6903F08003002B0BD07B6898
:102FB000DB6D01229A403B699A607B685B6D43F050
:102FC00002027B685A657B68DB6D04229A40FB68CD
:102FD0001340002B12D07B681B681B6803F00203B0
:102FE000002B0BD07B68DB6D04229A403B699A6012
:102FF0007B685B6D43F004027B685A657B68DB6D20
:1030000010229A40FB681340002B43D07B681B685A
:103010001B6803F00803002B3CD07B68DB6D10229B
:103020009A403B699A607B681B681B6803F48023A5
:10303000002B18D07B681B681B6803F40023002B4F
:1030400008D17B681B6C002B24D07B681B6C7868D4
:1030500098471FE07B689B6C002B1BD07B689B6CA8
:103060007868984716E07B681B681B6803F48073D8
:10307000002B07D17B681B681A687B681B6822F0ED
:1030800008021A607B681B6C002B03D07B681B6CEA
:10309000786898477B68DB6D20229A40FB68134074
:1030A000002B00F08F807B681B681B6803F0100307
:1030B000002B00F087807B68DB6D20229A403B6903
:1030C0009A607B6893F83530DBB2052B36D17B688C
:1030D0001B681A687B681B6822F016021A607B68FE
:1030E0001B685A697B681B6822F080025A617B6802
:1030F0001B6C002B03D17B689B6C002B07D07B687B
:103100001B681A687B681B6822F008021A607B68DB
:10311000DB6D3F229A403B699A607B68012283F80D
:1031200035207B68002283F834207B681B6D002BE0
:103130007ED07B681B6D7868984779E07B681B6858
:103140001B6803F48023002B1DD07B681B681B6861
:1031500003F40023002B0DD17B685B6C002B31D076
:103160007B685B6C786898472CE000BF000000200B
:10317000B5814E1B7B68DB6B002B23D07B68DB6B40
:10318000786898471EE07B681B681B6803F48073AF
:10319000002B0FD17B681B681A687B681B6822F0C4
:1031A00010021A607B68012283F835207B680022B8
:1031B00083F834207B68DB6B002B03D07B68DB6BF0
:1031C000786898477B685B6D002B32D07B685B6DBD
:1031D00003F00103002B22D07B68052283F8352001
:1031E0007B681B681A687B681B6822F001021A6002
:1031F000BB680133BB607A699A4207D37B681B685E
:103200001B6803F00103002BF2D100E000BF7B68D4
:10321000012283F835207B68002283F834207B6804
:10322000DB6C002B05D07B68DB6C7868984700E08E
:1032300000BF1837BD4680BD80B485B000AFF860D0
:10324000B9607A603B60FB681B681A68FB681B68A2
:1032500022F480221A60FB681B683A685A60FB6897
:103260009B68402B08D1FB681B687A689A60FB68F2
:103270001B68BA68DA6007E0FB681B68BA689A6086
:10328000FB681B687A68DA6000BF1437BD465DF8DA
:10329000047B704780B485B000AF78607B681B68A2
:1032A000DBB2103B144AA2FB03231B09FB60134A49
:1032B000FB6813441B781A467B68DA65FB68032BAE
:1032C00009D97B681B6823F47F7323F003031A1D5D
:1032D0007B689A6507E07B681B6823F47F7323F0A3
:1032E00003037A6893657B689B6D18461437BD4667
:1032F0005DF8047B704700BFABAAAAAA1091000832
:1033000080B485B000AF78600023FB737B689B6A54
:10331000BB607B689B69002B1FD1BB68032B56D811
:1033200001A252F823F000BF393300084B330008E4
:1033300039330008CF3300087B68DB6A03F0807301
:10334000002B46D00123FB7343E07B68DB6AB3F1BB
:10335000C07F40D10123FB733DE07B689B69B3F5DF
:10336000005F21D1BB68032B37D801A252F823F0AC
:10337000813300088733000881330008993300083F
:103380000123FB7330E07B68DB6A03F08073002B62
:1033900025D00123FB7322E07B68DB6AB3F1C07F99
:1033A0001FD10123FB731CE0BB68022B03D9BB6850
:1033B000032B03D018E00123FB7315E07B68DB6A65
:1033C00003F08073002B0ED00123FB730BE000BFD2
:1033D0000AE000BF08E000BF06E000BF04E000BF55
:1033E00002E000BF00E000BFFB7B18461437BD467B
:1033F0005DF8047B704700BF80B586B000AFF86011
:10340000B960C7E900230123FB75234B1B7E012B09
:1034100001D102233BE0204B01221A764CF25030BE
:1034200000F07CF80346FB75FB7D002B2BD1FB687D
:10343000002B05D13B781946B86800F027F916E053
:10344000FB68012B05D13B881946B86800F0FAF8F3
:103450000DE0FB68022B05D13B681946B86800F007
:10346000CFF804E0D7E90023B86800F097F84CF2F1
:10347000503000F053F80346FB75084B1B69074AB0
:1034800023F001031361044B00221A76FB7D1846DA
:103490001837BD4680BD00BF581D0020003C0240CB
:1034A00080B483B000AF0023FB710B4B1B69002B72
:1034B0000BDA094B094A5A60074B094A5A60064B16
:1034C0001B69002B01DA0123FB71FB7918460C37CD
:1034D000BD465DF8047B7047003C02402301674510
:1034E000AB89EFCD80B400AF054B1B69044A43F0B4
:1034F0000043136100231846BD465DF8047B704706
:10350000003C024080B400AF034BDB691846BD4667
:103510005DF8047B704700BF581D002080B584B063
:1035200000AF78600023FB601A4B0022DA61FEF7DF
:103530001DFFF86010E07B68B3F1FF3F0CD07B68A3
:10354000002B07D0FEF712FF0246FB68D31A7A68F9
:103550009A4201D2032319E00F4BDB6803F4803356
:10356000002BE8D10C4BDB6803F00103002B02D0E9
:10357000094B0122DA60084BDB6803F0F203002BF1
:1035800003D000F0A5F8012300E00023184610370F
:10359000BD4680BD581D0020003C024080B485B06F
:1035A00000AFF860C7E90023144B1B69134A23F4EA
:1035B00040731361114B1B69104A43F4407313614C
:1035C0000E4B1B690D4A43F001031361FB683A6817
:1035D0001A60BFF36F8F00BFD7E900014FF0000200
:1035E0004FF000030A000023F968043113460B6012
:1035F00000BF1437BD465DF8047B7047003C0240B5
:1036000080B483B000AF786039600D4B1B690C4A01
:1036100023F4407313610A4B1B69094A43F4007396
:103620001361074B1B69064A43F0010313617B6872
:103630003A681A6000BF0C37BD465DF8047B7047DE
:10364000003C024080B483B000AF78600B467B80C2
:103650000D4B1B690C4A23F4407313610A4B1B6921
:10366000094A43F480731361074B1B69064A43F010
:10367000010313617B687A881A8000BF0C37BD464E
:103680005DF8047B704700BF003C024080B483B00B
:1036900000AF78600B46FB700C4B1B690B4A23F4A0
:1036A00040731361094B094A1B691361074B1B697E
:1036B000064A43F0010313617B68FA781A7000BF71
:1036C0000C37BD465DF8047B704700BF003C0240EC
:1036D00080B400AF274BDB6803F01003002B08D049
:1036E000254BDB6943F01003234AD361214B1022A1
:1036F000DA60204BDB6803F02003002B08D01E4B60
:10370000DB6943F008031C4AD3611A4B2022DA60BC
:10371000184BDB6803F04003002B08D0164BDB6925
:1037200043F00403144AD361124B4022DA60114B78
:10373000DB6803F08003002B08D00F4BDB6943F0FC
:1037400002030D4AD3610B4B8022DA60094BDB6820
:1037500003F00203002B08D0074BDB6943F0200382
:10376000054AD361034B0222DA6000BFBD465DF813
:10377000047B7047003C0240581D002080B584B097
:1037800000AF786039600123FB730023BB60314BCD
:103790001B7E012B01D1022358E02E4B01221A7609
:1037A0004CF25030FFF7BAFE0346FB73FB7B002B55
:1037B00048D13B684FF0FF321A607B681B68012BD1
:1037C00015D17B681B69DAB27B685B6819461046C5
:1037D00000F044F84CF25030FFF7A0FE0346FB73B4
:1037E0001D4B1B691C4A23F00403136128E07B680E
:1037F0009B68BB601CE07B681B69DBB21946B8683C
:1038000000F050F84CF25030FFF788FE0346FB738F
:10381000114B1B69104A23F0FA031361FB7B002B49
:1038200003D03B68BA681A600AE0BB680133BB602A
:103830007B68DA687B689B681344BA689A42DAD37B
:1038400000F078F8034B00221A76FB7B18461037FD
:10385000BD4680BD581D0020003C024080B483B0AE
:1038600000AF03463960FB710D4B1B690C4A23F412
:10387000407313610A4B1B69094A43F00403136147
:10388000074B1A69FB791B021343054A43F4803343
:10389000136100BF0C37BD465DF8047B704700BF65
:1038A000003C024080B485B000AF78600B46FB70EE
:1038B0000023FB60FB78002B02D10023FB6010E0AB
:1038C000FB78012B03D14FF48073FB6009E0FB7898
:1038D000022B03D14FF40073FB6002E04FF44073FE
:1038E000FB60134B1B69124A23F440731361104BA6
:1038F0001A690F49FB6813430B610D4B1B690C4A96
:1039000023F0F80313610A4B1A697B68DB00134349
:10391000074A43F002031361054B1B69044A43F451
:103920008033136100BF1437BD465DF8047B7047D8
:10393000003C024080B400AF204B1B6803F40073CE
:10394000002B17D01D4B1B681C4A23F40073136017
:103950001A4B1B68194A43F400631360174B1B682A
:10396000164A23F400631360144B1B68134A43F494
:1039700000731360114B1B6803F48063002B17D096
:103980000E4B1B680D4A23F4806313600B4B1B68BE
:103990000A4A43F480531360084B1B68074A23F418
:1039A00080531360054B1B68044A43F48063136023
:1039B00000BFBD465DF8047B704700BF003C02407D
:1039C00080B489B000AF7860396000237B61002348
:1039D0003B610023BB610023FB616BE10122FB69BA
:1039E00002FA03F37B613B681B687A6913403B6111
:1039F0003A697B699A4240F05A813B685B6803F000
:103A00000303012B05D03B685B6803F00303022B23
:103A100030D17B689B68BB61FB695B00032202FAC3
:103A200003F3DB43BA691340BB613B68DA68FB69A7
:103A30005B0002FA03F3BA691343BB617B68BA699E
:103A40009A607B685B68BB610122FB6902FA03F341
:103A5000DB43BA691340BB613B685B681B0903F039
:103A60000102FB6902FA03F3BA691343BB617B6885
:103A7000BA695A603B685B6803F00303032B17D0F5
:103A80007B68DB68BB61FB695B00032202FA03F31E
:103A9000DB43BA691340BB613B689A68FB695B0012
:103AA00002FA03F3BA691343BB617B68BA69DA604F
:103AB0003B685B6803F00303022B23D1FB69DA0840
:103AC0007B68083253F82230BB61FB6903F00703BF
:103AD0009B000F2202FA03F3DB43BA691340BB6178
:103AE0003B681A69FB6903F007039B0002FA03F3C2
:103AF000BA691343BB61FB69DA087B680832B969AC
:103B000043F822107B681B68BB61FB695B000322E2
:103B100002FA03F3DB43BA691340BB613B685B689D
:103B200003F00302FB695B0002FA03F3BA69134373
:103B3000BB617B68BA691A603B685B6803F4403319
:103B4000002B00F0B4800023FB60604B5B6C5F4A8D
:103B500043F4804353645D4B5B6C03F48043FB6030
:103B6000FB685B4AFB699B08023352F82330BB6158
:103B7000FB6903F003039B000F2202FA03F3DB430C
:103B8000BA691340BB617B68524A93422BD07B6871
:103B9000514A934225D07B68504A93421FD07B689C
:103BA0004F4A934219D07B684E4A934213D07B68A8
:103BB0004D4A93420DD07B684C4A934207D07B68B4
:103BC0004B4A934201D107230EE008230CE0062361
:103BD0000AE0052308E0042306E0032304E00223AF
:103BE00002E0012300E00023FA6902F003029200E0
:103BF0009340BA691343BB613549FB699B080233A3
:103C0000BA6941F823203B4B9B68BB613B69DB43AE
:103C1000BA691340BB613B685B6803F48013002BF7
:103C200003D0BA693B691343BB61324ABB699360F5
:103C3000304BDB68BB613B69DB43BA691340BB6156
:103C40003B685B6803F40013002B03D0BA693B693F
:103C50001343BB61274ABB69D360264B5B68BB61DA
:103C60003B69DB43BA691340BB613B685B6803F4A3
:103C70000033002B03D0BA693B691343BB611D4A73
:103C8000BB6953601B4B1B68BB613B69DB43BA6973
:103C90001340BB613B685B6803F48033002B03D0A7
:103CA000BA693B691343BB61124ABB691360FB6984
:103CB0000133FB61FB690F2B7FF690AE00BF00BFA5
:103CC0002437BD465DF8047B704700BF00380240D2
:103CD0000038014000000240000402400008024099
:103CE000000C024000100240001402400018024084
:103CF000001C0240003C014080B483B000AF7860FB
:103D00000B467B8013467B707B78002B03D07A8830
:103D10007B689A6103E07B881A047B689A6100BF24
:103D20000C37BD465DF8047B704780B584B000AFAA
:103D300078607B68002B01D1012334E07B681B682D
:103D40004CF6CC421A607B681B6845F255521A60EB
:103D50007B681B687A6852685A607B681B687A685F
:103D600092689A60FEF702FBF8600FE0FEF7FEFA39
:103D70000246FB68D31A312B08D97B681B68DB68C5
:103D800003F00303002B01D003230CE07B681B68C6
:103D9000DB6803F00303002BE8D17B681B684AF65D
:103DA000AA221A60002318461037BD4680BD80B491
:103DB00083B000AF78607B681B684AF6AA221A605D
:103DC000002318460C37BD465DF8047B70470000A1
:103DD00080B586B000AF78607B68002B01D10123ED
:103DE00067E27B681B6803F00103002B75D0884BEA
:103DF0009B6803F00C03042B0CD0854B9B6803F0ED
:103E00000C03082B12D1824B5B6803F48003B3F5DB
:103E1000800F0BD17E4B1B6803F40033002B5BD06B
:103E20007B685B68002B57D1012342E27B685B68AB
:103E3000B3F5803F06D1764B1B68754A43F4803357
:103E400013601DE07B685B68B3F5A02F0CD1704B4D
:103E50001B686F4A43F4802313606D4B1B686C4AE8
:103E600043F4803313600BE0694B1B68684A23F40A
:103E700080331360664B1B68654A23F4802313600C
:103E80007B685B68002B13D0FEF770FA386108E09E
:103E9000FEF76CFA02463B69D31A642B01D903235F
:103EA00007E25B4B1B6803F40033002BF0D014E0F7
:103EB000FEF75CFA386108E0FEF758FA02463B6903
:103EC000D31A642B01D90323F3E1514B1B6803F48C
:103ED0000033002BF0D100E000BF7B681B6803F0CB
:103EE0000203002B63D04A4B9B6803F00C03002BAA
:103EF0000BD0474B9B6803F00C03082B1CD1444BA1
:103F00005B6803F48003002B16D1414B1B6803F060
:103F10000203002B05D07B68DB68012B01D0012355
:103F2000C7E13B4B1B6823F0F8027B681B69DB0091
:103F3000374913430B603AE07B68DB68002B20D0E5
:103F4000344B01221A60FEF711FA386108E0FEF7DF
:103F50000DFA02463B69D31A022B01D90323A8E1CB
:103F60002B4B1B6803F00203002BF0D0284B1B687F
:103F700023F0F8027B681B69DB00254913430B60C3
:103F800015E0244B00221A60FEF7F0F9386108E0D2
:103F9000FEF7ECF902463B69D31A022B01D9032341
:103FA00087E11B4B1B6803F00203002BF0D17B68F9
:103FB0001B6803F00803002B36D07B685B69002B7D
:103FC00016D0154B01221A60FEF7D0F9386108E0CF
:103FD000FEF7CCF902463B69D31A022B01D9032321
:103FE00067E10B4B5B6F03F00203002BF0D01BE08B
:103FF000094B00221A60FEF7B9F938610EE0FEF7AE
:10400000B5F902463B69D31A022B07D9032350E1C5
:104010000038024000004742800E4742884B5B6FE9
:1040200003F00203002BEAD17B681B6803F0040352
:10403000002B00F097800023FB75814B1B6C03F075
:104040008053002B0FD10023BB607D4B1B6C7C4A3F
:1040500043F0805313647A4B1B6C03F08053BB60B6
:10406000BB680123FB75774B1B6803F48073002B3F
:1040700018D1744B1B68734A43F480731360FEF7C6
:1040800075F9386108E0FEF771F902463B69D31A09
:10409000022B01D903230CE16A4B1B6803F48073E4
:1040A000002BF0D07B689B68012B06D1644B1B6F03
:1040B000634A43F0010313671CE07B689B68052B90
:1040C0000CD15F4B1B6F5E4A43F0040313675C4BDC
:1040D0001B6F5B4A43F0010313670BE0584B1B6FE8
:1040E000574A23F001031367554B1B6F544A23F0C3
:1040F000040313677B689B68002B15D0FEF736F925
:1041000038610AE0FEF732F902463B69D31A41F200
:104110008832934201D90323CBE0494B1B6F03F054
:104120000203002BEED014E0FEF720F938610AE01C
:10413000FEF71CF902463B69D31A41F288329342DA
:1041400001D90323B5E03E4B1B6F03F00203002BA4
:10415000EED1FB7D012B05D1394B1B6C384A23F086
:10416000805313647B689B69002B00F0A180344B63
:104170009B6803F00C03082B5CD07B689B69022BC7
:1041800041D1314B00221A60FEF7F0F8386108E0A7
:10419000FEF7ECF802463B69D31A022B01D9032340
:1041A00087E0274B1B6803F00073002BF0D17B687E
:1041B000DA697B681B6A1A437B685B6A9B011A4356
:1041C0007B689B6A5B08013B1B041A437B68DB6AC4
:1041D0001B061B4913434B601B4B01221A60FEF761
:1041E000C5F8386108E0FEF7C1F802463B69D31A0A
:1041F000022B01D903235CE0114B1B6803F0007311
:10420000002BF0D054E0104B00221A60FEF7AEF8FD
:10421000386108E0FEF7AAF802463B69D31A022B80
:1042200001D9032345E0064B1B6803F00073002B04
:10423000F0D13DE07B689B69012B07D1012338E079
:104240000038024000700040600047421B4B5B6832
:10425000FB607B689B69012B28D0FB6803F480021C
:104260007B68DB699A4221D1FB6803F03F027B68DF
:104270001B6A9A421AD1FA6847F6C07313407A68EB
:10428000526A9201934211D1FB6803F440327B6879
:104290009B6A5B08013B1B049A4207D1FB6803F051
:1042A00070627B68DB6A1B069A4201D0012300E042
:1042B000002318461837BD4680BD00BF00380240B5
:1042C00080B584B000AF786039607B68002B01D185
:1042D0000123CCE0684B1B6803F007033A689A425D
:1042E0000CD9654B3A68D2B21A70634B1B6803F065
:1042F00007033A689A4201D00123B8E07B681B6843
:1043000003F00203002B20D07B681B6803F004033A
:10431000002B05D0594B9B68584A43F4E0539360F7
:104320007B681B6803F00803002B05D0534B9B6888
:10433000524A43F460439360504B9B6823F0F00271
:104340007B689B684D4913438B607B681B6803F057
:104350000103002B44D07B685B68012B07D1474BDE
:104360001B6803F40033002B19D101237FE07B6825
:104370005B68022B03D07B685B68032B07D13F4B44
:104380001B6803F00073002B09D101236FE03B4B46
:104390001B6803F00203002B01D1012367E0374BB8
:1043A0009B6823F003027B685B68344913438B608E
:1043B000FDF7DCFFF8600AE0FDF7D8FF0246FB6876
:1043C000D31A41F28832934201D903234FE02B4B99
:1043D0009B6803F00C027B685B689B009A42EBD100
:1043E000254B1B6803F007033A689A420CD2224B14
:1043F0003A68D2B21A70204B1B6803F007033A6880
:104400009A4201D0012332E07B681B6803F0040369
:10441000002B08D0194B9B6823F4E0527B68DB68C3
:10442000164913438B607B681B6803F00803002B5D
:1044300009D0124B9B6823F460427B681B69DB0048
:104440000E4913438B6000F021F802460B4B9B682A
:104450001B0903F00F030A49CB5C22FA03F3094A54
:104460001360094B1B681846FCF79EFB0023184697
:104470001037BD4680BD00BF003C024000380240FE
:10448000C890000800000020040000202DE9B04F73
:1044900094B000AF00237B640023FB6400233B64E3
:1044A0000023BB64794B9B6803F00C03082B0DD0F1
:1044B000082B00F2E180002B02D0042B03D0DBE0BC
:1044C000734BBB64DBE0734BBB64D8E06F4B5B6842
:1044D00003F03F037B646D4B5B6803F48003002BA8
:1044E00063D06A4B5B689B090022BB63FA63BB6BBA
:1044F000C3F308033B6300237B63D7E90C452246E3
:104500002B464FF000004FF00001590141EAD26103
:10451000500102460B462146511A3961294663EB88
:1045200001037B614FF000024FF00003D7E904ABB9
:1045300059468B01514643EA916351468A015146DF
:10454000B2EB0108594663EB01094FF000024FF04E
:1045500000034FEAC90343EA58734FEAC802904682
:104560009946234618EB0303BB602B4649EB030334
:10457000FB604FF000024FF00003D7E902452946E7
:104580004B02214643EAD15321464A0210461946BE
:104590007B6C0022BB62FA62D7E90A23FBF718FEA4
:1045A00002460B461346FB6458E0384B5B689B0998
:1045B000002218461146C0F308033B6200237B62C9
:1045C000D7E9088942464B464FF000004FF0000102
:1045D000590141EAD261500102460B464146B2EB15
:1045E000010A494663EB010B4FF000024FF0000354
:1045F0004FEA8B1343EA9A634FEA8A12B2EB0A043A
:1046000063EB0B054FF000024FF00003EB0043EAB1
:104610005473E20014461D464346E3183B604B4684
:1046200045EB03037B604FF000024FF00003D7E936
:10463000004529468B02214643EA915321468A02CE
:10464000104619467B6C0022BB61FA61D7E906234C
:10465000FBF7BEFD02460B461346FB640B4B5B6843
:104660001B0C03F0030301335B003B64FA6C3B6CEF
:10467000B2FBF3F3BB6402E0054BBB6400BFBB6C51
:1046800018465037BD46BDE8B08F00BF0038024025
:104690000024F40000127A0080B400AF034B1B68C2
:1046A0001846BD465DF8047B704700BF000000203F
:1046B00080B500AFFFF7F0FF0246054B9B689B0AF1
:1046C00003F007030349CB5C22FA03F3184680BDCD
:1046D00000380240D890000880B500AFFFF7DCFF3B
:1046E0000246054B9B685B0B03F007030349CB5C59
:1046F00022FA03F3184680BD00380240D890000823
:1047000080B483B000AF786039607B680F221A6094
:10471000124B9B6803F003027B685A600F4B9B6847
:1047200003F0F0027B689A600C4B9B6803F4E05244
:104730007B68DA60094B9B68DB0803F4E0527B6816
:104740001A61074B1B6803F007023B681A6000BF41
:104750000C37BD465DF8047B704700BF003802404F
:10476000003C024080B582B000AF78607B68002BCF
:1047700001D1012341E07B6893F83D30DBB2002B8F
:1047800006D17B68002283F83C20786800F039F875
:104790007B68022283F83D207B681A687B680433BB
:1047A0001946104600F07EFA7B68012283F8462005
:1047B0007B68012283F83E207B68012283F83F203A
:1047C0007B68012283F840207B68012283F8412026
:1047D0007B68012283F842207B68012283F8432012
:1047E0007B68012283F844207B68012283F84520FE
:1047F0007B68012283F83D20002318460837BD4618
:1048000080BD80B483B000AF786000BF0C37BD4678
:104810005DF8047B7047000080B485B000AF78601D
:104820007B6893F83D30DBB2012B01D001234EE0D1
:104830007B68022283F83D207B681B68DA687B680E
:104840001B6842F00102DA607B681B68234A9342CE
:1048500022D07B681B68B3F1804F1DD07B681B683A
:104860001F4A934218D07B681B681E4A934213D09C
:104870007B681B681C4A93420ED07B681B681B4AEE
:10488000934209D07B681B68194A934204D07B6825
:104890001B68184A934211D17B681B689B6803F020
:1048A0000703FB60FB68062B10D07B681B681A6847
:1048B0007B681B6842F001021A6007E07B681B6896
:1048C0001A687B681B6842F001021A6000231846D0
:1048D0001437BD465DF8047B704700BF00000140FF
:1048E0000004004000080040000C004000040140AB
:1048F000004001400018004080B586B000AF7860ED
:1049000039607B68002B01D1012397E07B6893F825
:104910003D30DBB2002B06D17B68002283F83C20BF
:104920007868FCF77FFA7B68022283F83D207B6879
:104930001B689B687A68126823F4804323F007039E
:1049400093607B681A687B6804331946104600F050
:10495000A9F97B681B689B687B617B681B689B6906
:104960003B617B681B681B6AFB603B681B687A695C
:1049700013437B613B6923F4407323F003033B61E2
:104980003B689A683B689B691B0213433A6913436F
:104990003B613B6923F4406323F00C033B613B69BB
:1049A00023F4704323F0F0033B613B68DA683B6813
:1049B000DB691B0213433A6913433B613B681B6984
:1049C0001A013B681B6A1B0313433A6913433B619B
:1049D000FB6823F02203FB60FB6823F08803FB6085
:1049E0003B685A683B685B691B011343FA681343D1
:1049F000FB607B681B687A699A607B681B683A6910
:104A00009A617B681B68FA681A627B68012283F8E6
:104A100046207B68012283F83E207B68012283F8D0
:104A20003F207B68012283F842207B68012283F8C3
:104A300043207B68012283F83D2000231846183765
:104A4000BD4680BD80B582B000AF78607B681B68D2
:104A50001B6903F00203022B22D17B681B68DB6811
:104A600003F00203022B1BD17B681B686FF002026C
:104A70001A617B6801221A777B681B689B6903F0C7
:104A80000303002B03D0786800F0EEF805E07868A7
:104A900000F0E0F8786800F0F1F87B6800221A77FF
:104AA0007B681B681B6903F00403042B22D17B681D
:104AB0001B68DB6803F00403042B1BD17B681B68B5
:104AC0006FF004021A617B6802221A777B681B6808
:104AD0009B6903F44073002B03D0786800F0C4F89E
:104AE00005E0786800F0B6F8786800F0C7F87B68F1
:104AF00000221A777B681B681B6903F00803082BE8
:104B000022D17B681B68DB6803F00803082B1BD1EC
:104B10007B681B686FF008021A617B6804221A77B1
:104B20007B681B68DB6903F00303002B03D0786804
:104B300000F09AF805E0786800F08CF8786800F0EA
:104B40009DF87B6800221A777B681B681B6903F05D
:104B50001003102B22D17B681B68DB6803F0100365
:104B6000102B1BD17B681B686FF010021A617B68E9
:104B700008221A777B681B68DB6903F44073002BFB
:104B800003D0786800F070F805E0786800F062F80B
:104B9000786800F073F87B6800221A777B681B68DE
:104BA0001B6903F00103012B0ED17B681B68DB68D6
:104BB00003F00103012B07D17B681B686FF0010232
:104BC0001A617868FBF7ACFF7B681B681B6903F010
:104BD0008003802B0ED17B681B68DB6803F08003A9
:104BE000802B07D17B681B686FF080021A617868A0
:104BF00000F07EF97B681B681B6903F04003402BC3
:104C00000ED17B681B68DB6803F04003402B07D1A3
:104C10007B681B686FF040021A61786800F038F812
:104C20007B681B681B6903F02003202B0ED17B6877
:104C30001B68DB6803F02003202B07D17B681B680F
:104C40006FF020021A61786800F048F900BF083759
:104C5000BD4680BD80B483B000AF786000BF0C3724
:104C6000BD465DF8047B704780B483B000AF7860C8
:104C700000BF0C37BD465DF8047B704780B483B03D
:104C800000AF786000BF0C37BD465DF8047B70470D
:104C900080B483B000AF786000BF0C37BD465DF8CC
:104CA000047B704780B485B000AF786039607B6862
:104CB0001B68FB607B68404A934213D07B68B3F16A
:104CC000804F0FD07B683D4A93420BD07B683C4AB3
:104CD000934207D07B683B4A934203D07B683A4AB1
:104CE000934208D1FB6823F07003FB603B685B686C
:104CF000FA681343FB607B682F4A93422BD07B6892
:104D0000B3F1804F27D07B682C4A934223D07B6835
:104D10002B4A93421FD07B682A4A93421BD07B6860
:104D2000294A934217D07B68284A934213D07B6864
:104D3000274A93420FD07B68264A93420BD07B6868
:104D4000254A934207D07B68244A934203D07B686C
:104D5000234A934208D1FB6823F44073FB603B680D
:104D6000DB68FA681343FB60FB6823F080023B6852
:104D70005B691343FB607B68FA681A603B689A685A
:104D80007B68DA623B681A687B689A627B680A4AC9
:104D9000934203D07B680C4A934203D13B681A6963
:104DA0007B681A637B6801225A6100BF1437BD46D5
:104DB0005DF8047B704700BF000001400004004024
:104DC00000080040000C0040000401400040014089
:104DD000004401400048014000180040001C004011
:104DE0000020004080B485B000AF786039607B68F7
:104DF00093F83C30012B01D102235AE07B68012259
:104E000083F83C207B68022283F83D207B681B6886
:104E10005B68FB607B681B689B68BB60FB6823F07A
:104E20007003FB603B681B68FA681343FB607B6898
:104E30001B68FA685A607B681B68214A934222D03B
:104E40007B681B68B3F1804F1DD07B681B681D4ACF
:104E5000934218D07B681B681B4A934213D07B682F
:104E60001B681A4A93420ED07B681B68184A93420B
:104E700009D07B681B68174A934204D07B681B6883
:104E8000154A93420CD1BB6823F08003BB603B689A
:104E90005B68BA681343BB607B681B68BA689A603A
:104EA0007B68012283F83D207B68002283F83C2048
:104EB000002318461437BD465DF8047B704700BFD9
:104EC000000001400004004000080040000C0040C9
:104ED00000040140004001400018004080B483B04D
:104EE00000AF786000BF0C37BD465DF8047B7047AB
:104EF00080B483B000AF786000BF0C37BD465DF86A
:104F0000047B704780B582B000AF78607B68002B6F
:104F100001D101233FE07B6893F83D30DBB2002BE9
:104F200006D17B68002283F83C207868FCF740F8C3
:104F30007B68242283F83D207B681B68DA687B68E5
:104F40001B6822F40052DA60786800F09DFF7B68ED
:104F50001B681A697B681B6822F490421A617B689F
:104F60001B685A697B681B6822F02A025A617B68B9
:104F70001B68DA687B681B6842F40052DA607B6861
:104F800000221A647B68202283F83D207B6820225F
:104F900083F83E20002318460837BD4680BD80B503
:104FA0008AB002AFF860B9603B601346FB80002313
:104FB0007B61FB6893F83D30DBB2202B7CD1BB6872
:104FC000002B02D0FB88002B01D1012375E0FB6888
:104FD00093F83C30012B01D102236EE0FB680122E3
:104FE00083F83C20FB6800221A64FB68212283F8C6
:104FF0003D20FDF7BBF97861FB68FA889A84FB686D
:10500000FA88DA84FB689B68B3F5805F08D1FB6897
:105010001B69002B04D10023FB61BB68BB6103E06B
:10502000BB68FB610023BB61FB68002283F83C2066
:105030002AE03B6800937B6900228021F86800F039
:1050400055FC0346002B01D0032336E0FB69002BFF
:105050000BD1BB691B881A46FB681B68C2F30802A8
:105060005A60BB690233BB6107E0FB691A78FB68D1
:105070001B685A60FB690133FB61FB68DB8C9BB2E8
:10508000013B9AB2FB68DA84FB68DB8C9BB2002B95
:10509000CFD13B6800937B6900224021F86800F083
:1050A00025FC0346002B01D0032306E0FB682022E9
:1050B00083F83D20002300E0022318462037BD4638
:1050C00080BD80B58CB000AFF860B9601346FB803E
:1050D000FB6893F83E30DBB2202B52D1BB68002B2B
:1050E00002D0FB88002B01D101234BE0FB6893F831
:1050F0003C30012B01D1022344E0FB68012283F8FC
:105100003C20FB6801221A63FB881A46B968F868DC
:1051100000F05AFC034687F82F3097F82F30002B09
:105120002CD1FB681B6B012B25D100233B61FB6855
:105130001B681B683B61FB681B685B683B613B69E4
:10514000FB681B680C33BB61BB6953E8003F7B61A4
:105150007B6943F01003BB62FB681B680C33BA6ABF
:105160007A623B62396A7A6A41E80023FB61FB6933
:10517000002BE5D102E0012387F82F3097F82F307C
:1051800000E0022318463037BD4680BD80B5BAB076
:1051900000AF78607B681B681B68C7F8E4307B68E9
:1051A0001B68DB68C7F8E0307B681B685B69C7F881
:1051B000DC300023C7F8D8300023C7F8D430D7F844
:1051C000E43003F00F03C7F8D830D7F8D830002BFD
:1051D0000FD1D7F8E43003F02003002B09D0D7F823
:1051E000E03003F02003002B03D0786800F091FD3D
:1051F00056E2D7F8D830002B00F0DE80D7F8DC304C
:1052000003F00103002B06D1D7F8E03003F49073CC
:10521000002B00F0D180D7F8E43003F00103002B1D
:105220000BD0D7F8E03003F48073002B05D07B68F7
:105230001B6C43F001027B681A64D7F8E43003F07A
:105240000403002B0BD0D7F8DC3003F00103002B54
:1052500005D07B681B6C43F002027B681A64D7F8A8
:10526000E43003F00203002B0BD0D7F8DC3003F05E
:105270000103002B05D07B681B6C43F004027B68A4
:105280001A64D7F8E43003F00803002B11D0D7F8E4
:10529000E03003F02003002B05D1D7F8DC3003F019
:1052A0000103002B05D07B681B6C43F008027B6870
:1052B0001A647B681B6C002B00F0ED81D7F8E4309A
:1052C00003F02003002B08D0D7F8E03003F02003D0
:1052D000002B02D0786800F01CFD7B681B685B69BE
:1052E00003F04003402B0CBF01230023DBB2C7F8BF
:1052F000D4307B681B6C03F00803002B03D1D7F874
:10530000D430002B4FD0786800F024FC7B681B68F9
:105310005B6903F04003402B41D17B681B68143369
:10532000C7F89C30D7F89C3053E8003FC7F8983056
:10533000D7F8983023F04003C7F8D0307B681B685B
:105340001433D7F8D020C7F8A820C7F8A430D7F86E
:10535000A410D7F8A82041E80023C7F8A030D7F858
:10536000A030002BD9D17B689B6B002B13D07B68BE
:105370009B6B7D4A1A657B689B6B1846FDF7B0FDF9
:105380000346002B16D07B689B6B1B6D7A68926B73
:10539000104698470EE07868FCF7F4FE0AE078685B
:1053A000FCF7F0FE06E07868FCF7ECFE7B68002274
:1053B0001A6470E100BF6EE17B681B6B012B40F04B
:1053C0004A81D7F8E43003F01003002B00F043814A
:1053D000D7F8E03003F01003002B00F03C810023ED
:1053E000BB607B681B681B68BB607B681B685B6875
:1053F000BB60BB687B681B685B6903F04003402BA4
:1054000040F0B4807B689B6B1B685B68A7F8BE307C
:10541000B7F8BE30002B00F040817B689B8DB7F859
:10542000BE209A4280F039817B68B7F8BE20DA85C9
:105430007B689B6BDB69B3F5807F00F088807B68BD
:105440001B680C33C7F88830D7F8883053E8003F22
:10545000C7F88430D7F8843023F48073C7F8B830A5
:105460007B681B680C33D7F8B820C7F89420C7F8BE
:105470009030D7F89010D7F8942041E80023C7F86F
:105480008C30D7F88C30002BD9D17B681B68143353
:105490007B677B6F53E8003F3B673B6F23F0010363
:1054A000C7F8B4307B681B681433D7F8B420C7F84A
:1054B0008020FB67F96FD7F8802041E80023BB67A5
:1054C000BB6F002BE1D17B681B6814333B663B6EDE
:1054D00053E8003FFB65FB6D23F04003C7F8B03095
:1054E0007B681B681433D7F8B020FA66BB66B96EC8
:1054F000FA6E41E800237B667B6E002BE3D17B686C
:10550000202283F83E207B6800221A637B681B6898
:105510000C33FB64FB6C53E8003FBB64BB6C23F0B3
:105520001003C7F8AC307B681B680C33D7F8AC208D
:10553000BA657B65796DBA6D41E800233B653B6DCB
:10554000002BE3D17B689B6B1846FDF759FC7B6809
:105550009A8D7B68DB8D9BB2D31A9BB21946786813
:10556000FCF7A4FE99E000BF1B5C00087B689A8DE5
:105570007B68DB8D9BB2D31AA7F8CE307B68DB8DBE
:105580009BB2002B00F08B80B7F8CE30002B00F0E0
:1055900086807B681B680C33BB63BB6B53E8003FA2
:1055A0007B637B6B23F49073C7F8C8307B681B6800
:1055B0000C33D7F8C8207A643B64396C7A6C41E8C4
:1055C0000023FB63FB6B002BE3D17B681B68143368
:1055D0007B627B6A53E8003F3B623B6A23F0010336
:1055E000C7F8C4307B681B681433D7F8C4203A630B
:1055F000FB62F96A3A6B41E80023BB62BB6A002B8D
:10560000E3D17B68202283F83E207B6800221A6366
:105610007B681B680C333B613B6953E8003FFB60D0
:10562000FB6823F01003C7F8C0307B681B680C339D
:10563000D7F8C020FA61BB61B969FA6941E8002373
:105640007B617B69002BE3D1B7F8CE3019467868CF
:10565000FCF72CFE23E0D7F8E43003F08003002BA6
:1056600009D0D7F8E03003F08003002B03D078682E
:1056700000F0E7FA14E0D7F8E43003F04003002B21
:105680000ED0D7F8E03003F04003002B08D0786844
:1056900000F027FB04E000BF02E000BF00E000BF15
:1056A000E837BD4680BD00BF80B483B000AF7860EE
:1056B00000BF0C37BD465DF8047B704780B483B0F3
:1056C00000AF786000BF0C37BD465DF8047B7047C3
:1056D00080B483B000AF786000BF0C37BD465DF882
:1056E000047B704780B483B000AF78607B681B6C2C
:1056F00018460C37BD465DF8047B704780B59CB0FA
:1057000000AF78607B689B6BFB667B681B681B68DF
:1057100003F48073002B72D1FB6E0022DA85FB6EDE
:105720001B680C33FB64FB6C53E8003FBB64BB6C31
:1057300023F48073BB66FB6E1B680C33BA6EBA65CC
:105740007B65796DBA6D41E800233B653B6D002BAD
:10575000E5D1FB6E1B681433BB63BB6B53E8003FA2
:105760007B637B6B23F001037B66FB6E1B6814334A
:105770007A6E7A643B64396C7A6C41E80023FB638F
:10578000FB6B002BE5D1FB6E1B6814337B627B6ADD
:1057900053E8003F3B623B6A23F040033B66FB6EED
:1057A0001B6814333A6E3A63FB62F96A3A6B41E85C
:1057B0000023BB62BB6A002BE5D1FB6E202283F87D
:1057C0003E20FB6E1B6B012B19D1FB6E1B680C334B
:1057D0003B613B6953E8003FFB60FB6823F010032B
:1057E000FB65FB6E1B680C33FA6DFA61BB61B9692E
:1057F000FA6941E800237B617B69002BE5D1FB6EF0
:105800001B6B012B06D1FB6E9B8D1946F86EFCF7C6
:105810004DFD02E0F86EFFF751FF00BF7037BD4647
:1058200080BD80B584B000AF78607B689B6BFB6007
:10583000FB681B6B012B08D1FB689B8D5B089BB23F
:105840001946F868FCF732FD02E0F868FFF740FF00
:1058500000BF1037BD4680BD80B584B000AF786012
:105860000023FB607B689B6BBB60BB681B685B694C
:1058700003F08003802B0CBF01230023DBB2FB600D
:10588000BB6893F83D30DBB2212B08D1FB68002BBD
:1058900005D0BB680022DA84B86800F033F9BB6831
:1058A0001B685B6903F04003402B0CBF01230023FE
:1058B000DBB2FB60BB6893F83E30DBB2222B08D131
:1058C000FB68002B05D0BB680022DA85B86800F0C1
:1058D00041F9BB681B6C43F01002BB681A64B868DE
:1058E000FCF750FC00BF1037BD4680BD80B590B0BE
:1058F00000AFF860B9603B601346FB7150E0BB6CD1
:10590000B3F1FF3F4CD0BB6C002B07D0FCF72EFD52
:1059100002463B68D31ABA6C9A4241D2FB681B68B4
:105920000C33BB62BB6A53E8003F7B627B6A23F4A3
:10593000D073FB63FB681B680C33FA6B7A633B63C1
:10594000396B7A6B41E80023FB62FB6A002BE5D1DF
:10595000FB681B6814337B617B6953E8003F3B6144
:105960003B6923F00103BB63FB681B681433BA6B0C
:105970003A62FB61F9693A6A41E80023BB61BB699D
:10598000002BE5D1FB68202283F83D20FB68202214
:1059900083F83E20FB68002283F83C2003230FE0BD
:1059A000FB681B681A68BB681340BA689A420CBF50
:1059B00001230023DBB21A46FB799A429FD00023D1
:1059C00018464037BD4680BD80B598B000AFF8603E
:1059D000B9601346FB80BA68FB689A62FB68FA8874
:1059E0009A85FB6800221A64FB68222283F83E2015
:1059F000FB689B6B404ADA63FB689B6B3F4A1A6407
:105A0000FB689B6B3E4ADA64FB689B6B00221A655D
:105A100007F10803FB65FB68986BFB681B680433A0
:105A20001946FB6D1A68FB88FDF792F900233B616C
:105A3000FB681B681B683B61FB681B685B683B611C
:105A40003B69FB68002283F83C20FB681B69002B44
:105A500019D0FB681B680C333B643B6C53E8003F78
:105A6000FB63FB6B43F48073BB65FB681B680C3303
:105A7000BA6DFA64BB64B96CFA6C41E800237B64CC
:105A80007B6C002BE5D1FB681B681433FB62FB6A5F
:105A900053E8003FBB62BB6A43F001037B65FB68D0
:105AA0001B6814337A6DBA637B63796BBA6B41E818
:105AB00000233B633B6B002BE5D1FB681B68143371
:105AC000BB61BB6953E8003F7B617B6943F04003E6
:105AD0003B65FB681B6814333A6D7A623B62396A36
