:020000040800F2
:10000000000002208D1600085D0D0008630D000839
:10001000690D00086F0D0008750D00080000000054
:10002000000000000000000000000000E1AC00083B
:100030007B0D00080000000031AF0008B189000806
:10004000DD160008DD160008DD160008DD160008C4
:10005000DD160008DD160008DD160008DD160008B4
:10006000DD160008DD160008DD160008DD160008A4
:10007000890D0008DD160008DD160008DD160008F1
:100080009D0D0008DD160008DD160008DD160008CD
:10009000B10D0008DD160008C50D0008DD160008CA
:1000A000DD160008DD160008DD160008DD16000864
:1000B000DD160008DD160008DD160008DD16000854
:1000C000DD160008DD160008DD160008DD16000844
:1000D000DD160008D90D0008ED0D0008010E00081E
:1000E000DD160008DD160008DD160008DD16000824
:1000F000DD160008DD160008DD160008DD16000814
:10010000DD160008DD160008DD160008DD16000803
:10011000DD160008DD160008150E0008DD160008C3
:10012000DD160008DD160008290E0008DD1600089F
:10013000DD160008DD160008DD160008DD160008D3
:10014000DD160008DD160008DD160008DD160008C3
:10015000DD160008DD160008DD160008DD160008B3
:10016000DD160008DD160008DD160008DD160008A3
:10017000DD160008DD160008DD160008000000008E
:08018000DD160008DD16000881
:1001900010B5054C237833B9044B13B10448AFF3C1
:1001A00000800123237010BD3000002000000000FB
:1001B00000B5000808B5034B1BB103490348AFF372
:1001C000008008BD000000003400002000B50008D9
:1001D00053B94AB9002908BF00281CBF4FF0FF31AE
:1001E0004FF0FF3000F074B9ADF1080C6DE904CEAA
:1001F00000F006F8DDF804E0DDE9022304B0704702
:100200002DE9F047089D04468E46002B4DD18A42C9
:10021000944669D9B2FA82F252B101FA02F3C2F1FC
:10022000200120FA01F10CFA02FC41EA030E94408D
:100230004FEA1C48210CBEFBF8F61FFA8CF708FBAE
:1002400016E341EA034306FB07F199420AD91CEB86
:10025000030306F1FF3080F01F81994240F21C81B8
:10026000023E63445B1AA4B2B3FBF8F008FB103300
:1002700044EA034400FB07F7A7420AD91CEB040435
:1002800000F1FF3380F00A81A74240F20781644405
:10029000023840EA0640E41B00261DB1D44000238A
:1002A000C5E900433146BDE8F0878B4209D9002DEE
:1002B00000F0EF800026C5E9000130463146BDE878
:1002C000F087B3FA83F6002E4AD18B4202D38242E2
:1002D00000F2F980841A61EB030301209E46002D91
:1002E000E0D0C5E9004EDDE702B9FFDEB2FA82F2E6
:1002F000002A40F09280A1EB0C014FEA1C471FFA44
:100300008CFE0126200CB1FBF7F307FB131140EA2A
:1003100001410EFB03F0884208D91CEB010103F1F7
:10032000FF3802D2884200F2CB804346091AA4B2B9
:10033000B1FBF7F007FB101144EA01440EFB00FE8D
:10034000A64508D91CEB040400F1FF3102D2A645F2
:1003500000F2BB800846A4EB0E0440EA03409CE791
:10036000C6F12007B34022FA07FC4CEA030C20FA3E
:1003700007F401FA06F31C43F9404FEA1C4900FA5E
:1003800006F3B1FBF9F8200C1FFA8CFE09FB1811DB
:1003900040EA014108FB0EF0884202FA06F20BD94E
:1003A0001CEB010108F1FF3A80F08880884240F29E
:1003B0008580A8F102086144091AA4B2B1FBF9F0E2
:1003C00009FB101144EA014100FB0EFE8E4508D9DD
:1003D0001CEB010100F1FF346CD28E456AD9023862
:1003E000614440EA0840A0FB0294A1EB0E01A14247
:1003F000C846A64656D353D05DB1B3EB080261EBB5
:100400000E0101FA07F722FA06F3F1401F43C5E98E
:10041000007100263146BDE8F087C2F12003D840C4
:100420000CFA02FC21FA03F3914001434FEA1C4706
:100430001FFA8CFEB3FBF7F007FB10360B0C43EAF8
:10044000064300FB0EF69E4204FA02F408D91CEBA8
:10045000030300F1FF382FD29E422DD902386344A6
:100460009B1B89B2B3FBF7F607FB163341EA034146
:1004700006FB0EF38B4208D91CEB010106F1FF3895
:1004800016D28B4214D9023E6144C91A46EA00468C
:1004900038E72E46284605E70646E3E61846F8E61E
:1004A0004B45A9D2B9EB020864EB0C0E0138A3E767
:1004B0004646EAE7204694E74046D1E7D0467BE748
:1004C000023B614432E7304609E76444023842E7C0
:1004D000704700BF80B58AB000AF304B304A1A6019
:1004E0002E4B06225A602D4B00229A602B4B002285
:1004F000DA602A4B4FF420221A61284B4FF4801205
:100500005A61264B00221A76244B01225A76234B3D
:1005100000229A76214B0022DA76204B00221A77AD
:100520001E4B01225A771D4803F0BEFB0346002BE9
:1005300001D000F065FB00237B610023BB61012338
:10054000FB6100233B6000237B600023BB60002332
:10055000FB6000233B6101233B623B4619460F4889
:1005600003F09EFC0346002B01D000F049FB0B4832
:1005700003F076FD0346002B01D000F041FB48F666
:100580000241064803F0D2FF0346002B01D000F0E1
:1005900037FB00BF2837BD4680BD00BF4C000020A0
:1005A0000064004080B58AB000AF786007F11403A2
:1005B00000221A605A609A60DA601A617B681B68D0
:1005C000214A93423CD100233B61204B1B6C1F4AC4
:1005D00043F0007313641D4B1B6C03F000733B610D
:1005E0003B690023FB60194B1B6B184A43F0020365
:1005F0001363164B1B6B03F00203FB60FB684FF4A5
:1006000040737B610223BB610023FB6103233B62D8
:1006100009237B6207F1140319460D4804F0B6FE66
:1006200000220521142004F085FA142004F09EFA1B
:1006300000220521162004F07DFA162004F096FA17
:1006400000BF2837BD4680BD00640040003802402E
:100650000004024080B582B000AF00237B601B4BDA
:100660001B6B1A4A43F480031363184B1B6B03F490
:1006700080037B607B6800233B60144B1B6B134A39
:1006800043F400131363114B1B6B03F400133B6023
:100690003B68002205210C2004F04CFA0C2004F0E9
:1006A00065FA00220521102004F044FA102004F01D
:1006B0005DFA002205213A2004F03CFA3A2004F0C9
:1006C00055FA00BF0837BD4680BD00BF0038024064
:1006D00080B500AF204A0021204808F0CDF903463C
:1006E0001F4A13601F4A00211F4808F0C5F903463E
:1006F0001E4A13601E4A00211E4808F0BDF9034639
:100700001D4A13601D4A00211D4808F0B5F9034633
:100710001C4A13601C4A00211C4808F0ADF903462E
:100720001B4A13601B4A00211B4808F0A5F9034629
:100730001A4A13601A4A00211A4808F09DF9034624
:10074000194A1360194A0021194808F095F903461F
:10075000184A136000BF80BDA0B50008B9070008A3
:10076000EC000020C4B500089D2B00084C030020BD
:10077000E8B5000865280008AC0500200CB60008A4
:100780006D2E00080C08002030B60008592F000814
:100790006C0A002054B6000831230008CC0E00205B
:1007A00078B60008012100082C1100209CB6000832
:1007B0008B2B00088C15002080B582B000AF7860CC
:1007C0004FF47A7008F0EAF9FAE7000080B58CB0CF
:1007D00000AF07F11C0300221A605A609A60DA60C9
:1007E0001A610023BB617C4B1B6B7B4A43F01003F7
:1007F0001363794B1B6B03F01003BB61BB690023D0
:100800007B61754B1B6B744A43F004031363724B9B
:100810001B6B03F004037B617B6900233B616E4B20
:100820001B6B6D4A43F0800313636B4B1B6B03F030
:1008300080033B613B690023FB60674B1B6B664A8F
:1008400043F001031363644B1B6B03F00103FB6074
:10085000FB680023BB60604B1B6B5F4A43F00203E5
:1008600013635D4B1B6B03F00203BB60BB6800238B
:100870007B60594B1B6B584A43F008031363564B7C
:100880001B6B03F008037B607B6801223221534815
:1008900004F018FF01224FF4F971514804F012FFDF
:1008A000012203214F4804F00DFF01224FF6807111
:1008B0004D4804F007FF00224FF44041494804F03E
:1008C00001FF01224FF43F41484804F0FBFE0022A3
:1008D0004FF48041454804F0F5FE7E23FB61002380
:1008E0003B6200237B6207F11C0319463E4804F07B
:1008F0004DFD4FF47053FB6100233B6200237B628C
:1009000007F11C031946354804F040FD3223FB6112
:1009100001233B6200237B620023BB6207F11C03BF
:1009200019462E4804F032FD4FF4F973FB610123A0
:100930003B6200237B620023BB6207F11C03194664
:10094000274804F023FD4CF20303FB6101233B62C3
:1009500000237B620023BB6207F11C031946214878
:1009600004F014FD4FF68073FB6101233B6200230A
:100970007B620023BB6207F11C0319461A4804F08E
:1009800005FD4FF47F43FB6101233B6200237B6243
:100990000023BB6207F11C031946144804F0F6FC5F
:1009A000FF23FB6100233B6200237B6207F11C03F2
:1009B00019460E4804F0EAFC3023FB6100233B6239
:1009C00000237B6207F11C031946064804F0DEFC95
:1009D00000BF3037BD4680BD0038024000080240ED
:1009E000000002400004024000100240000C0240DF
:1009F00080B500AF094B0A4A1A60084B03225A60BF
:100A0000064B40F6FF729A60044804F074FE0346F9
:100A1000002B01D000F0F4F800BF80BDEC190020DD
:100A20000030004080B500AF03F0D8F800F06AF85D
:100A3000FFF7CCFEFFF70EFE00F048FC00F070FC64
:100A400000F098FC00F00CFA00F05EFA00F0F4FA06
:100A5000FFF7CEFFFFF73EFD40F6C41003F000F9AC
:100A60001C4804F08AFE64221B491C4806F01FFE45
:100A700064221B491B4806F01AFE64221A491B48CF
:100A800006F015FE1A4B1B681A68194B1B6822F0FA
:100A900008021A60174B1B681A68164B1B6822F075
:100AA00008021A60144B1B681A68134B1B6822F06B
:100AB00008021A600021114805F032FE002110489A
:100AC00005F02EFE07F08EFFFFF702FE07F0AEFFE7
:100AD000FEE700BFEC190020D01F0020181B0020EB
:100AE0006C1F00205C1B0020081F0020A01B0020A2
:100AF000E41B0020441C0020A41C0020401A0020FD
:100B0000D01A002080B594B000AF07F12003302246
:100B1000002118460AF0ECFC07F10C0300221A60D1
:100B20005A609A60DA601A610023BB60294B1B6C23
:100B3000284A43F080531364264B1B6C03F0805308
:100B4000BB60BB6800237B60234B1B68224A43F4D5
:100B500080431360204B1B6803F480437B607B68F9
:100B600009233B624FF480337B6201237B630223C2
:100B7000BB634FF48003FB6304233B64A8237B64C3
:100B80000223BB640423FB6407F12003184604F02E
:100B900005FE0346002B01D000F032F80F23FB6066
:100BA00002233B6100237B614FF4A053BB614FF4F0
:100BB0008053FB6107F10C030521184605F066F828
:100BC0000346002B01D000F01BF800BF5037BD4694
:100BD00080BD00BF003802400070004080B582B088
:100BE00000AF78607B681B68044A934201D103F030
:100BF00017F800BF0837BD4680BD00BF0010004099
:100C000080B400AF72B600BFFEE7000080B582B0CE
:100C100000AF00237B60124B5B6C114A43F48043AE
:100C200053640F4B5B6C03F480437B607B68002351
:100C30003B600B4B1B6C0A4A43F080531364084B18
:100C40001B6C03F080533B603B6800220F216FF068
:100C5000010003F06FFF00BF0837BD4680BD00BF35
:100C60000038024080B58EB000AF78600023FB6290
:100C70000023BB620023FB60334B1B6C324A43F002
:100C800010031364304B1B6C03F01003FB60FB6814
:100C900007F1100207F114031146184605F016FA81
:100CA0003B6AFB62FB6A002B03D105F0E7F978632E
:100CB00004E005F0E3F903465B007B637B6B234AAA
:100CC000A2FB03239B0C013BBB62214B214A1A6010
:100CD0001F4B40F2E732DA601D4ABB6A53601C4B7F
:100CE00000221A611A4B00229A60194B00229A6165
:100CF000174805F01DFA034687F8333097F833306C
:100D0000002B1BD1124805F063FA034687F83330F5
:100D100097F83330002B11D1362003F027FF7B6882
:100D20000F2B08D800227968362003F003FF0A4A07
:100D30007B68136002E0012387F8333097F8333083
:100D400018463837BD4680BD0038024083DE1B435D
:100D5000F8190020001000402400002080B400AFEB
:100D6000FEE780B400AFFEE780B400AFFEE780B4DA
:100D700000AFFEE780B400AFFEE780B400AF00BF75
:100D8000BD465DF8047B704780B500AF024804F0B3
:100D900093F800BF80BD00BFA41C002080B500AF49
:100DA000024804F089F800BF80BD00BF441C002049
:100DB00080B500AF024803F0DFFB00BF80BD00BF7D
:100DC0004C00002080B500AF024803F0D5FB00BF07
:100DD00080BD00BF4C00002080B500AF024806F087
:100DE000CBFC00BF80BD00BF181B002080B500AF4A
:100DF000024806F0C1FC00BF80BD00BF5C1B0020A4
:100E000080B500AF024806F0B7FC00BF80BD00BF50
:100E1000A01B002080B500AF024805F00FFD00BF09
:100E200080BD00BFF819002080B500AF024804F073
:100E300043F800BF80BD00BFE41B002080B400AFBA
:100E4000064BD3F88830054A43F47003C2F8883063
:100E500000BFBD465DF8047B704700BF00ED00E0B9
:100E600080B58CB000AF07F10C0324220021184696
:100E70000AF03EFB3B1D00221A605A60214B4FF0E6
:100E800080421A601F4B00225A601E4B00229A605B
:100E90001C4B4FF6FF72DA601A4B00221A61194B95
:100EA00000229A610123FB6000233B6101237B61E7
:100EB0000023BB610023FB6100233B6201237B62B3
:100EC0000023BB620023FB6207F10C0319460D48A7
:100ED00005F080FB0346002B01D0FFF791FE0023B5
:100EE0007B600023BB603B1D1946064806F070FA84
:100EF0000346002B01D0FFF783FE00BF3037BD460D
:100F000080BD00BF401A002080B58EB000AF07F151
:100F1000280300221A605A609A60DA6007F1200301
:100F200000221A605A603B1D00221A605A609A60C3
:100F3000DA601A615A619A613D4B3E4A1A603C4B35
:100F400040F247325A603A4B00229A60384B40F2E6
:100F5000CF72DA60364B00221A61354B80229A61DB
:100F6000334805F0E5F80346002B01D0FFF748FEB3
:100F70004FF48053BB6207F1280319462C4805F053
:100F800027FE0346002B01D0FFF73AFE284805F064
:100F90008FF90346002B01D0FFF732FE00233B629E
:100FA00000237B6207F120031946214806F010FA5E
:100FB0000346002B01D0FFF723FE60237B60002354
:100FC000BB600023FB6000237B613B1D00221946B0
:100FD000174805F03BFD0346002B01D0FFF710FE3C
:100FE0003B1D04221946124805F030FD0346002B34
:100FF00001D0FFF705FE3B1D082219460C4805F0FD
:1010000025FD0346002B01D0FFF7FAFD3B1D0C2206
:101010001946074805F01AFD0346002B01D0FFF7DB
:10102000EFFD034800F018F900BF3837BD4680BD1A
:10103000881A00200004004080B58CB000AF07F192
:101040000C032422002118460AF052FA3B1D00220C
:101050001A605A60204B214A1A601F4B00225A60C6
:101060001D4B00229A601C4B4FF6FF72DA601A4B40
:1010700000221A61184B00229A610123FB600023B1
:101080003B6101237B610023BB610023FB610023E3
:101090003B6201237B620023BB620023FB6207F1FA
:1010A0000C0319460C4805F095FA0346002B01D0B5
:1010B000FFF7A6FD00237B600023BB603B1D1946A4
:1010C000054806F085F90346002B01D0FFF798FD8F
:1010D00000BF3037BD4680BDD01A00200008004058
:1010E00080B58CB000AF786007F11C0300221A6055
:1010F0005A609A60DA601A617B681B68B3F1804FAE
:101100004BD10023BB613F4B1B6C3E4A43F00103B4
:1011100013643C4B1B6C03F00103BB61BB690023F0
:101120007B61384B1B6B374A43F001031363354B2C
:101130001B6B03F001037B617B6900233B61314B37
:101140001B6B304A43F0020313632E4B1B6B03F0FF
:1011500002033B613B694FF40043FB6102233B62A6
:1011600000237B620023BB620123FB6207F11C03A7
:101170001946254804F00AF90823FB6102233B6263
:1011800000237B620023BB620123FB6207F11C0387
:1011900019461E4804F0FAF830E07B681B681C4AC8
:1011A00093422BD10023FB60164B1B6C154A43F076
:1011B00004031364134B1B6C03F00403FB60FB6814
:1011C0000023BB600F4B1B6B0E4A43F002031363FB
:1011D0000C4B1B6B03F00203BB60BB68C023FB61BD
:1011E00002233B6200237B620023BB620223FB627B
:1011F00007F11C031946054804F0C8F800BF303752
:10120000BD4680BD0038024000000240000402409C
:101210000008004080B485B000AF78607B681B6830
:101220000B4A93420DD10023FB600A4B1B6C094A09
:1012300043F002031364074B1B6C03F00203FB60D3
:10124000FB6800BF1437BD465DF8047B704700BFE4
:10125000000400400038024080B588B000AF7860DC
:1012600007F10C0300221A605A609A60DA601A6172
:101270007B681B68124A93421ED10023BB60114B4E
:101280001B6B104A43F0040313630E4B1B6B03F0FC
:101290000403BB60BB684FF47073FB6002233B61C7
:1012A00000237B610023BB610223FB6107F10C0378
:1012B0001946054804F06AF800BF2037BD4680BDD6
:1012C00000040040003802400008024080B500AF32
:1012D000114B124A1A60104B4FF461425A600E4B88
:1012E00000229A600C4B0022DA600B4B00221A613C
:1012F000094B0C225A61084B00229A61064B0022CE
:10130000DA61054806F0F4F80346002B01D0FFF738
:1013100077FC00BF80BD00BF181B002000100140FB
:1013200080B500AF114B124A1A60104B4FF41652A1
:101330005A600E4B00229A600C4B0022DA600B4B75
:1013400000221A61094B0C225A61084B00229A6153
:10135000064B0022DA61054806F0CAF80346002B66
:1013600001D0FFF74DFC00BF80BD00BF5C1B00201B
:101370000044004080B500AF114B124A1A60104B78
:101380004FF416525A600E4B00229A600C4B00220A
:10139000DA600B4B00221A61094B0C225A61084B90
:1013A00000229A61064B0022DA61054806F0A0F897
:1013B0000346002B01D0FFF723FC00BF80BD00BF18
:1013C000A01B00200048004080B58EB000AF7860C0
:1013D00007F1240300221A605A609A60DA601A61E9
:1013E0007B681B689D4A934263D100233B629C4B00
:1013F0005B6C9B4A43F010035364994B5B6C03F0A6
:1014000010033B623B6A0023FB61954B1B6B944AC4
:1014100043F001031363924B1B6B03F00103FB6169
:10142000FB694FF4C0637B620223BB620023FB6253
:1014300003233B6307237B6307F124031946894891
:1014400003F0A4FF884B894A1A60874B4FF0006273
:101450005A60854B00229A60834B0022DA60824BEF
:101460004FF480621A61804B00225A617E4B002249
:101470009A617D4B0022DA617B4B00221A627A4B23
:1014800000225A62784803F07FFB0346002B01D00C
:10149000FFF7B6FB7B68744A9A63734A7B68936371
:1014A00000220521252003F045FB252003F05EFBEB
:1014B000CFE07B681B686E4A934262D10023BB6118
:1014C000674B1B6C664A43F400331364644B1B6C1C
:1014D00003F40033BB61BB6900237B61604B1B6B72
:1014E0005F4A43F0010313635D4B1B6B03F0010381
:1014F0007B617B690C237B620223BB620023FB625E
:1015000003233B6307237B6307F1240319465548F4
:1015100003F03CFF574B584A1A60564B4FF000629D
:101520005A60544B00229A60524B0022DA60514BB1
:101530004FF480621A614F4B00225A614D4B0022DA
:101540009A614C4B0022DA614A4B00221A62494BE5
:1015500000225A62474803F017FB0346002B01D0D4
:10156000FFF74EFB7B68434A9A63424A7B6893636A
:1015700000220521262003F0DDFA262003F0F6FAEA
:1015800067E07B681B683D4A934262D100233B6160
:10159000334B1B6C324A43F480231364304B1B6C77
:1015A00003F480233B613B690023FB602C4B1B6BE6
:1015B0002B4A43F002031363294B1B6B03F0020316
:1015C000FB60FB684FF440637B620223BB62002335
:1015D000FB6203233B6307237B6307F12403194664
:1015E000274803F0D3FE274B274A1A60254B4FF0BC
:1015F00000625A60234B00229A60224B0022DA607C
:10160000204B4FF480621A611E4B00225A611D4B21
:1016100000229A611B4B0022DA611A4B00221A62E7
:10162000184B00225A62174803F0AEFA0346002B0B
:1016300001D0FFF7E5FA7B68124A9A63114A7B688A
:10164000936300220521272003F074FA272003F07A
:101650008DFA00BF3837BD4680BD00BF0010014085
:101660000038024000000240E41B002040640240B9
:1016700000440040441C00208860024000480040B4
:1016800000040240A41C002028600240DFF834D08F
:101690000D480E490E4A002302E0D458C4500433CA
:1016A000C4188C42F9D30B4A0B4C002301E01360A1
:1016B0000432A242FBD3FFF7C1FB09F0E7FEFFF7BC
:1016C000B1F9704700000220000000203000002027
:1016D00028B700083000002090690020FEE7B0B471
:1016E00085B000AFF860B9607A603B60FB680022AB
:1016F0001A60FB6800225A62FB6800229A62FB684B
:101700000022DA62FB6800221A63FB6800225A6337
:10171000FB68002283F83820FB68002283F8392018
:10172000FB68002283F83A20FB68002283F83B2004
:10173000FB683A6ADA63FB687A685A62FB68BA68DF
:101740009A60FB683A685A60FB6800221A61FB687D
:1017500008225A61FB6800221A76BB68002B03D06E
:10176000FB680422DA6002E0FB680022DA60FB68B2
:10177000DA6B3B6A14461D460FCD0FC40FCD0FC464
:101780002B682360FB6818461437BD46B0BC704711
:1017900080B586B002AFF860B9607A603B603B68A4
:1017A000009300237A68B968F868FFF798FFFB6830
:1017B00018461037BD4680BD80B586B002AFF860D0
:1017C000B9607A607B680093BB6800220021F868EA
:1017D000FFF785FFFB6818461037BD4680BD80B512
:1017E00082B000AF786039607B6893F93A30002BA3
:1017F00002D1786800F0A9F8022007F0CFF97B68E1
:101800005B6A002B25D07B6823221A777B68002235
:101810005A777B6820229A777B685B6ADAB27B68AA
:10182000DA773B681B16DAB27B6883F820203B68C6
:101830001B14DAB27B6883F821203B681B12DAB2F2
:101840007B6883F822203B68DAB27B6883F8232028
:1018500022E07B68A2221A777B6800225A777B6895
:1018600000229A777B680022DA773B68DAB27B68DD
:1018700083F820203B681B12DAB27B6883F82120B2
:101880003B681B14DAB27B6883F822203B681B1686
:10189000DAB27B6883F823207B683A689A627868BA
:1018A00000F035FB034618460837BD4680BD80B5BD
:1018B00082B000AF78607B685B6A002B1ED07B68CB
:1018C00023221A777B6800225A777B6820229A7736
:1018D0007B685B6ADAB27B68DA777B68002283F820
:1018E00020207B68002283F821207B68002283F877
:1018F00022207B68002283F823201BE07B68812262
:101900001A777B6800225A777B6800229A777B6877
:101910000022DA777B68002283F820207B6800228F
:1019200083F821207B68002283F822207B68002234
:1019300083F823207B6800229A62786800F0E7FA37
:10194000034618460837BD4680BD80B582B000AF5B
:1019500078607B685B6A002B1ED07B6823221A7735
:101960007B680D225A777B6820229A777B685B6AB6
:10197000DAB27B68DA777B68002283F820207B6804
:10198000002283F821207B68002283F822207B68D4
:10199000002283F823201BE07B6888221A777B686B
:1019A00000225A777B6800229A777B680022DA77D8
:1019B0007B68002283F820207B68002283F82120A6
:1019C0007B68002283F822207B68002283F8232092
:1019D0007B68012283F83A20786800F098FA034681
:1019E00018460837BD4680BD80B582B000AF78602C
:1019F0007B685B6A002B1ED07B6823221A777B688A
:101A00000C225A777B6820229A777B685B6ADAB26D
:101A10007B68DA777B68002283F820207B680022CD
:101A200083F821207B68002283F822207B68002233
:101A300083F823201BE07B6880221A777B680022D2
:101A40005A777B6800229A777B680022DA777B6876
:101A5000002283F820207B68002283F821207B6805
:101A6000002283F822207B68002283F823207B68F1
:101A7000002283F83A20786800F049FA03461846B5
:101A80000837BD4680BD80B483B000AF78607B6806
:101A90009B68002B02D07B689B6801E07B685B68D9
:101AA00018460C37BD465DF8047B704780B582B0A0
:101AB00000AF78607B685B6A002B1ED07B68402299
:101AC0001A777B680F225A777B6821229A777B6886
:101AD0005B6ADAB27B68DA777B68012283F82020C0
:101AE0007B68002283F821207B68002283F8222073
:101AF0007B68002283F823201BE07B689C221A77F6
:101B00007B6800225A777B6800229A777B680022E4
:101B1000DA777B68002283F820207B68002283F834
:101B200021207B68002283F822207B68002283F832
:101B300023207B681A1D7B681C331946104600F071
:101B400093FB034618460837BD4680BD80B582B07A
:101B500000AF78607B685B6A002B1BD17B689A22A0
:101B60001A777B6800225A777B6800229A777B6815
:101B70000022DA777B68002283F820207B6800222D
:101B800083F821207B68002283F822207B680022D2
:101B900083F823207B681A1D7B681C331946104686
:101BA00000F062FB034618460837BD4680BD80B58D
:101BB00082B000AF78607B685B6A002B1BD17B68CA
:101BC0009B221A777B6800225A777B6800229A77DB
:101BD0007B680022DA777B68002283F820207B680C
:101BE000002283F821207B68002283F822207B6872
:101BF000002283F823207B681A1D7B681C3319465A
:101C0000104600F031FB034618460837BD4680BD3C
:101C100080B483B000AF78607B68DB6A18460C370D
:101C2000BD465DF8047B704780B483B000AF786038
:101C30007B689B6A18460C37BD465DF8047B70478D
:101C400080B483B000AF78607B6893F93B3018466E
:101C50000C37BD465DF8047B704780B483B000AF9D
:101C600078600B46FB707B68FA7883F8382000BFF9
:101C70000C37BD465DF8047B704780B483B000AF7D
:101C800078600B46FB707B68FA7883F83B2000BFD6
:101C90000C37BD465DF8047B7047000080B58AB004
:101CA00000AF786039607B689B68002B54D17B68FB
:101CB000DB6A643B3A689A421FDA7B68DA6A3B68FF
:101CC000D31AFB60FB685D4A934203DD7B685C4A84
:101CD0009A620BE0FB685A427B689A627B689B6A57
:101CE000584A934202DB7B68574A9A627B689B6A38
:101CF00019467868FFF773FD2AE07B68DB6A643376
:101D00003A689A4220DD7B68DB6A3A68D31A3B6105
:101D10003B694A4A934203DD7B68484A9A620CE079
:101D20007B683A699A627B689B6A44F61F629342B9
:101D300003DC7B6844F620629A627B689B6A1946E2
:101D40007868FFF74CFD03E000217868FFF747FD56
:101D5000022006F023FF6BE07B685B6A012B08D151
:101D600064237B6240F6B8333B624FF4FA73FB6145
:101D700007E032237B6240F6B8333B6240F2DC532B
:101D8000FB617B68DA6A7B6AD31A3A689A4222DA84
:101D90007B68DA6A3B68D31A7B617A693B6A9A424C
:101DA00004DD3B6A5A427B689A620DE07B695A42C5
:101DB0007B689A627B689A6AFB695B429A4203DDA0
:101DC000FB695A427B689A627B689B6A194678680D
:101DD000FFF705FD29E07B68DA6A7B6A13443A68FD
:101DE0009A421EDD7B68DB6A3A68D31ABB61BA6926
:101DF0003B6A9A4203DD7B683A6A9A620AE07B6832
:101E0000BA699A627B689B6AFA699A4202DD7B68CA
:101E1000FA699A627B689B6A19467868FFF7DFFC6B
:101E200003E000217868FFF7DAFC022006F0B6FE36
:101E3000002318462837BD4680BD00BFA08601009C
:101E40006079FEFFE1B1FFFFE0B1FFFF80B582B036
:101E500000AF786039607B689B68002B1CD17B6881
:101E6000DB6B9B7903F00103DBB2002B05D07B68B1
:101E70003A681A637B6800225A633B6899B27B68B0
:101E800034331A46786800F00EF802467B681B6B04
:101E9000D21A7B68DA6202E07B683A68DA6200BFD5
:101EA0000837BD4680BD80B489B000AFF8600B46EE
:101EB0007A607B817B89A3F50043BB617B681B68EB
:101EC000BA69D31A7B617B6903F500435A429BB21E
:101ED00092B258BF5342A3F50043FB617B6913F5EF
:101EE000004F03DAFB6903F58033FB617B681B68F5
:101EF000FA6913443B617B683A691A603B6903F5F0
:101F0000004318462437BD465DF8047B704780B512
:101F100082B000AF78607B681A1D7B681C3319465D
:101F2000104600F0A1F9034618460837BD4680BDAB
:101F300080B485B000AFF860B9607A60FB68BA68B9
:101F40001A60FB687A685A60FB6818461437BD4609
:101F50005DF8047B704780B586B002AF7860396069
:101F60007B681A687B685B681946104604F0FAF9CA
:101F700040F29973019340F2CC6300934FF487735E
:101F800000223968786800F05CF80346FB607B68E3
:101F90005B68002B05D17B681B681B68FA685A6375
:101FA00018E07B685B68042B05D17B681B681B68A5
:101FB000FA689A630EE07B685B68082B05D17B6842
:101FC0001B681B68FA68DA6304E07B681B681B689F
:101FD000FA681A643A687B689A607B689B68002B91
:101FE00003D17B6801221A6102E07B6802221A6138
:101FF000012318461037BD4680BD80B483B000AFC2
:1020000078607B685B6918460C37BD465DF8047BD9
:10201000704780B582B000AF78607B680022DA60DC
:102020007B681A687B685B681946104604F062FAA0
:102030007B681A697B685A61012318460837BD46D8
:1020400080BD80B485B000AFF860B9607A603B6055
:10205000BA687B68D31AF969BA698A1A03FB02F273
:1020600039687B68CB1A92FBF3F2BB6913441846BC
:102070001437BD465DF8047B7047000080B483B020
:1020800000AF0346FB7197F90730002B0BDBFB79A0
:1020900003F01F02074997F907305B09012000FA96
:1020A00002F241F8232000BF0C37BD465DF8047BE7
:1020B000704700BF00E100E080B483B000AF03468A
:1020C000FB7197F90730002B12DBFB7903F01F023D
:1020D0000A4997F907305B09012000FA02F2203320
:1020E00041F82320BFF34F8F00BFBFF36F8F00BFB6
:1020F00000BF0C37BD465DF8047B704700E100E08F
:1021000080B582B000AF7860104B1B78DBB2012B3A
:102110000CBF01230023DBB2002B06D00B4B0022A7
:102120001A700B4800F016F80CE0084B1B78DBB275
:10213000022B0CBF01230023DBB2002B02D0034B88
:1021400000221A70012006F029FDDDE7041D0020A1
:10215000301D002090B585B000AF78601420FFF7E7
:10216000ABFF3C4B9B68002B48D10023FB60FB6816
:10217000012B66DC374B1C68374AFB6852F823306A
:102180001846FFF780FC03469C420CBF0123002346
:10219000DBB2002B2ED0314B1B789C2B1BD12E4A4F
:1021A000FB6852F823302E4A128811461846FFF772
:1021B0004DFE294AFB6852F82330284A527852B221
:1021C00011461846FFF749FD234AFB6852F82330B1
:1021D00000221A600EE0214B1B789A2B0AD11E4A6E
:1021E000FB6852F823301D4AD27952B21146184684
:1021F000FFF743FDFB680133FB60B8E7154B5B68F5
:10220000184A93421DD1144B9B6800221A60134B4D
:102210001B78602B12D1104B9B68104A927952B2F6
:1022200011461846FFF719FD0B4BDB680B4AD279B4
:1022300052B211461846FFF710FD02E0074B5B78DB
:102240000D2B1420FFF71AFF012318461437BD4643
:1022500090BD00BF081D0020381E0020241D002056
:102260002A1D00200100800580B582B000AF786093
:1022700039607B685B68002B03D17B681B68002B8F
:102280001BD0104802F00BF80346002B0CBF0123B3
:102290000023DBB2002B00D0F3E70B4B3A687968E0
:1022A000084801F021FF0346002B14BF012300233F
:1022B000DBB2002B01D0002300E0012318460837D1
:1022C000BD4680BD4C0000202C1D002080B582B092
:1022D00000AF78600B4B0C4A0021786802F014F8CC
:1022E0000346002B14BF01230023DBB2002B01D0D7
:1022F000FEF786FC054B01221A7000BF0837BD4669
:1023000080BD00BF241D0020081D0020041D0020EA
:1023100080B483B000AF7860044B02221A7000BF13
:102320000C37BD465DF8047B704700BF041D0020DC
:1023300080B584B000AF7860974B984A1A60964B8E
:10234000974A5A60944B974A9A60934B964ADA6040
:1023500000F0FEF90023FB60944803F00EFA8F486A
:10236000FFF7A4FB022006F019FC8D48FFF79EFB47
:10237000022006F013FC8B48FFF798FB022006F0C2
:102380000DFC8B4B1B6919468648FFF75FFD884B98
:102390005B6919468448FFF759FD854B9B78FB72B2
:1023A000FB7A012B21D1834B5B6819467B48FFF7F1
:1023B00075FC7A48FFF738FC0346002B0CBF01235D
:1023C0000023DBB2002B06D07548FFF770FA784B7C
:1023D00000229A704EE17148FFF726FC03465B42EB
:1023E00019466F48FFF7FBF944E1FB7A022B15D140
:1023F000704B9B6819466B48FFF750FC6948FFF724
:1024000013FC0346002B0CBF01230023DBB2002B7F
:1024100000F03081664B00229A702BE1FB7A032B8F
:1024200015D1644BDB6819465F48FFF737FC5E48FF
:10243000FFF7FAFB0346002B0CBF01230023DBB29E
:10244000002B00F017815A4B00229A7012E1FB7AA0
:10245000082B40F0DF80584B1B68002B37D1574BBF
:102460001B681846FFF7C9FD0346012B09D0504BE6
:10247000DB78012B03D04E4BDB78022B01D10123FB
:1024800000E00023002B03D04A4B01225A61F1E007
:102490004A4B1B681846FFF7B0FD0346022B09D0D4
:1024A000434BDB78032B03D0414BDB78042B01D16A
:1024B000012300E00023002B03D03E4B02225A618F
:1024C000D8E03D4B1B6801333B4A1360D2E03A4BE6
:1024D0001B68012B29D1364BDB78012B03D0344B01
:1024E000DB78032B03D136492C48FFF7D7FB304B61
:1024F000DB78022B03D02E4BDB78042B03D1314940
:102500002648FFF7CBFB2548FFF78EFB0346002B41
:102510000CBF01230023DBB2002B00F0AB80264B65
:102520001B680133244A1360A4E0234B1B68022B71
:1025300053D1224B1B681846FFF75FFD0346022B61
:1025400009D01B4BDB78012B03D0194BDB78022B16
:1025500001D1012300E00023002B03D0154B022200
:102560005A6187E0154B1B681846FFF746FD034686
:10257000012B09D00E4BDB78032B03D00C4BDB78FF
:10258000042B01D1012300E00023002B1CD0094BB8
:1025900001225A616EE000BF381E0020381D002065
:1025A000781D0020B81D0020F81D0020EC19002027
:1025B0007400002098000020481E0020AC1E00205F
:1025C000A08601006079FEFF5B4B1B6801335A4A0D
:1025D00013605A4B00225A614CE0574B1B68032B87
:1025E00048D100215648FFF759FB5548FFF71CFB1F
:1025F0000346002B0CBF01230023DBB2002B39D094
:102600004D4B00221A604F4B00229A704D4B002216
:10261000DA702FE04A48FFF799FA022006F0BEFA76
:102620004948FFF793FA022006F0B8FA4448FFF74A
:1026300007FB0346002B14BF01230023DBB2002B52
:1026400005D03F48FFF7B3FA022006F0A7FA3E484C
:10265000FFF7F6FA0346002B14BF01230023DBB279
:10266000002B05D03848FFF7A2FA022006F096FAB0
:1026700000F09AF8FB7A062B01D100F095F8FB7A6E
:10268000072B0CD100F090F800F062F82D4B0022DF
:102690009A702C4B0022DA70274B00221A6001F04E
:1026A000D3FA0246FB68D31AB3F57A7F8CBF0123B5
:1026B0000023DBB2002B3AD0214B1B680133204AA8
:1026C00013601F4B1B68032B08DD1E4A137A43F06F
:1026D000010313721D48FFF787F904E0194A137AC2
:1026E0006FF300031372194B1B680133174A136011
:1026F000164B1B68032B0DDD124A137A43F00203BD
:102700001372104A137A43F0040313720F48FFF751
:102710006BF909E00B4A137A6FF341031372094A0C
:10272000137A6FF38203137201F08EFAF8600120BE
:1027300006F034FA10E600BF481E00209800002082
:10274000381D002074000020781D0020B81D0020D6
:1027500080B500AF052006F021FA1048FFF727FAF0
:10276000052006F01BFA0E48FFF721FA052006F0B7
:1027700015FA0A48FFF7E9F8052006F00FFA0848AD
:10278000FFF7E3F8052006F009FA0648FFF7DDF841
:10279000052006F003FA00BF80BD00BF381D0020F1
:1027A000781D0020B81D002080B500AF022006F083
:1027B000F5F90A48FFF77BF8022006F0EFF9084820
:1027C000FFF775F8022006F0E9F90648FFF76FF801
:1027D000052006F0E3F900BF80BD00BF381D0020D2
:1027E000781D0020B81D002080B582B000AF786051
:1027F00039607B68012B1CD13B684FF6FF72934216
:1028000017D10E4A40F241110D48FEF7D5FF0B4A91
:102810004FF4A1710B48FEF7CFFF084B01220A4984
:102820000A48FEF7B5FF054B022207490848FEF7A4
:10283000AFFF00BF0837BD4680BD00BF7400002059
:10284000381D0020781D002001000006B81D002062
:10285000F81D002080B500AF4FF6FF710120FFF793
:10286000C3FF80BD80B582B000AF7860A14B1B680C
:102870005B6A1A46A04B1A60A04B1B685B6A1A463B
:102880009F4B1A609C4B1B689BB29E49184600F0F8
:1028900049F903469C4A13609B4B1B689B4A136192
:1028A000974B1B689BB29A49184600F03BF90346C8
:1028B000964A5361974B1B6903F40053002B05D0D4
:1028C000924A93796FF30003937104E08F4A9379EE
:1028D00043F001039371904B1B6903F04003002BFD
:1028E00005D08A4A93796FF34103937104E0874AD4
:1028F000937943F002039371874B1B6903F0200324
:10290000002B05D0814A93796FF38203937104E021
:102910007E4A937943F0040393717F4B1B6903F064
:102920001003002B05D0794A93796FF3C303937199
:1029300004E0764A937943F008039371764B1B6960
:1029400003F00803002B05D0704A93796FF304134A
:10295000937104E06D4A937943F0100393716E4BC9
:102960001B6903F00403002B05D0684A93796FF3C9
:102970004513937104E0654A937943F02003937102
:10298000654B1B6903F00203002B05D05F4A937966
:102990006FF38613937104E05C4A937943F040032C
:1029A00093715E4B1B6903F02003002B05D0574A3F
:1029B000D3796FF30003D37104E0544AD37943F021
:1029C0000103D371554B1B6903F01003002B05D095
:1029D0004E4AD3796FF34103D37104E04B4AD37964
:1029E00043F00203D3714E4B1B6903F08003002BAD
:1029F00005D0464AD3796FF38203D37104E0434A8A
:102A0000D37943F00403D371454B1B6903F04003B2
:102A1000002B05D03D4AD3796FF3C303D37104E093
:102A20003A4AD37943F00803D3713D4B1B6903F055
:102A30002003002B05D0354AD3796FF30413D371EB
:102A400004E0324AD37943F01003D371344B1B694D
:102A500003F01003002B05D02C4AD3796FF34513F4
:102A6000D37104E0294AD37943F02003D3712C4B6E
:102A70001B6903F00803002B05D0244AD3796FF3B8
:102A80008613D37104E0214AD37943F04003D37114
:102A9000234B1B6903F00403002B05D01B4AD37999
:102AA0006FF3C713D37104E0184AD37943F080035E
:102AB000D371164B9B7903F00203DBB2002B06D0D7
:102AC0000C4B1B6800225A620E4B00221A600F4BFF
:102AD0009B7903F04003DBB2002B06D0074B1B6849
:102AE00000225A620A4B00221A60012006F056F8B2
:102AF000BCE600BFD01A0020541E0020401A00205F
:102B0000581E00204C1E00205C1E00207400002077
:102B1000501E002000080240001002400004024045
:102B2000000C024080B487B000AF03463960FB80E0
:102B3000FB88A3F500433B613B681B683A69D31AE5
:102B4000FB60FB6803F500435A429BB292B258BF48
:102B50005342A3F500437B61FB6813F5004F03DA92
:102B60007B6903F580337B613B681B687A6913449A
:102B7000BB603B68BA681A60BB6803F5004318463F
:102B80001C37BD465DF8047B704780B582B000AF4E
:102B900078604FF47A7006F001F8FAE780B582B0F9
:102BA00000AF786000F00CF8044B5B79002B01D08B
:102BB00000F018F9052005F0F1FFF3E7740000209C
:102BC00080B500AF7D4B9B78042B6DD17B4B1B7A7E
:102BD00003F00803DBB2002B66D1794B1B69012B94
:102BE0001DD1764B9B7903F00403DBB2002B38D167
:102BF000744B4FF480129A61724B20229A61724B8F
:102C000001221A60714B1B78002B2AD101F01CF8AD
:102C100003466F4A13606D4B01221A7021E0684B26
:102C20001B69022B1DD1654B9B7903F00803DBB2B6
:102C3000002B16D1634B4FF480129A61614B4FF415
:102C400000129A61604B02221A60604B1B78002BC5
:102C500007D100F0F9FF03465D4A13605B4B012288
:102C60001A7000F0F1FF0246594B1B68D31AB3F5F6
:102C7000FA5F8CBF01230023DBB2002B1DD04F4A2B
:102C8000137A43F0080313724C4B00229A704D4B99
:102C900010229A614B4B20229A614B4B00221A6002
:102CA0004A4B00221A7008E0464B10229A61454BAD
:102CB00020229A61454B00221A70404B9B7903F009
:102CC0000403DBB2002B18D03C4B01229A613E4B2F
:102CD0001B68012B11D13B4B10229A61394B2022EA
:102CE0009A613A4B00221A70374B00221A60344B1B
:102CF00000221A61314B00229A70304B9B7903F00D
:102D00000803DBB2002B18D02C4B02229A612E4B09
:102D10001B68022B11D12B4B10229A61294B2022C8
:102D20009A612A4B00221A70274B00221A60244B0A
:102D300000221A61214B00229A7000F085FF0246A2
:102D4000244B1B68D31AC82B8CBF01230023DBB292
:102D5000002B30D0204B1B68002B0CBF012300231D
:102D6000DBB21A461C4B1A601C4B1B88002B11D17E
:102D70001B4B4FF480729A61174B1B68002B04D0D9
:102D8000174B4FF000729A6115E0154B4FF400722B
:102D90009A6110E0124B4FF400729A610E4B1B685F
:102DA000002B04D00E4B4FF080729A6103E00C4B65
:102DB0004FF480729A6100BF80BD00BF7400002094
:102DC0009800002000000240641E00206C1E0020BD
:102DD000601E0020681E0020701E00207C00002065
:102DE000000C024080B582B000AF1A4B5B791A46E6
:102DF000194B53F822301A46184B1A60154B5B7961
:102E00001A46174B53F822301A46164B1A60002305
:102E10007B60124B1B687A689A4214DA114B1B686C
:102E2000184605F0BBFE104B4FF480129A610D4B13
:102E30001B68184605F0B2FE0B4B10229A617B68A6
:102E400001337B60E5E7034B00225A7100BF08376E
:102E5000BD4680BD74000020F0B60008781E00203A
:102E6000D8B60008741E00200008024080B584B067
:102E700000AF78601E4B1F4A1A601D4B1E4A5A60F5
:102E80001E4B9B78FB73FB7B052B02D0FB7B082B37
:102E90002AD11B4B5B69DBB2012B08D100211548FD
:102EA000FFF759F85A211448FFF755F80CE0144B76
:102EB0005B69DBB2022B07D15A210E48FFF74BF8B2
:102EC00000210D48FFF747F84FF4487005F066FE03
:102ED0000848FFF79EF80848FFF79BF8FB7B082B94
:102EE00002D0064B00229A700A2005F057FEC7E771
:102EF000AC1E00207C1E0020941E002074000020C8
:102F00009800002080B582B000AF786039607B689F
:102F1000012B0ED13B684FF6FF72934209D100227C
:102F200006490748FFF704F8042204490548FEF75C
:102F3000FFFF00BF0837BD4680BD00BF881A0020D4
:102F40007C1E0020941E002080B500AF4FF6FF715C
:102F50000120FFF7D7FF80BDB0B584B000AF786027
:102F60006F4B1B78002B7AD06E4B1B78842B68D16B
:102F70006C4B5B78532B64D16A4B9B78FB73FB7B68
:102F8000012B1ED1674B93F833403321654800F085
:102F9000C7FC03469C4214BF01230023DBB2002B75
:102FA0000CD0614B1B790133DAB25F4B1A71642389
:102FB00005225E495E4804F0E8FA49E000F0CEF8E8
:102FC00046E0FB7B022B43D1564BDC7F1F2155484B
:102FD00000F0A6FC03469C4214BF01230023DBB291
:102FE000002B06D0504B1B790133DAB24E4B1A71CD
:102FF0002EE04D4B9B78002B07D04A4BDB78062BFD
:1030000003D0484BDB78072B11D1464BDB78092BDB
:103010000DD8484A434B14461D460FCD0FC495E8C2
:103020000F0084E80F00434BDA783F4B9A703E4B19
:10303000DB6901333C4AD36100F000F900F08EF8FF
:1030400006E0394B1B790133DAB2374B1A7100E0D5
:1030500000BF334B00221A70022005F09FFD364B53
:103060001B78002B0CD0344B00221A70334B0022FB
:103070001A7000F013F92C4A137A6FF304131372C9
:1030800000F0E2FD02462E4B1B68D31AB3F57A7F9F
:103090008CBF01230023DBB2002B3FF461AF294B2F
:1030A0001B78002B09D1642307222749274804F005
:1030B0006CFA244B01221A7010E0254B1B78002B70
:1030C00006D064230D222349204804F05EFA05E06F
:1030D000642307221C491D4804F057FA00F0B4FD90
:1030E0000346174A1360154B1B780133DAB2134BB2
:1030F0001A70124B1B78052B7FF632AF0A4B002259
:1031000083F820200F4B00221A70134B002283F803
:103110004C20054A137A43F01003137220E700BFD6
:10312000041F0020D01F00207400002080B500087C
:10313000181B002098000020061F002038200020C7
:103140003420002039200020040000205C1B0020D7
:103150003A20002014000020B41E002080B500AFEB
:10316000314B84221A70304B53225A702E4B01225D
:103170009A702E4B9A782C4BDA702D4B1B681846A0
:10318000FEF746FD0346284A5360294B9B681846C4
:10319000FEF73EFD0346244A9360254BDB68184644
:1031A000FEF736FD0346204AD360204B9B691E4A3A
:1031B0001361204B1B681846FEF71FFF03461A4693
:1031C000194B5A61194BDA78174B83F82C20174B9F
:1031D00093F82020144B83F82F20134A134BDB88DD
:1031E0001385114A114B1B895385104B1B791A46C5
:1031F0000D4B1A620D4BDB690B4A53620A4BDB69BC
:103200000133094AD3613321074800F089FB0346A3
:103210001A46054B83F833206423342202490648BA
:1032200004F0B3F900BF80BDB80000207400002096
:10323000381E0020AC1E0020181B002080B400AFF8
:10324000134BDB78072B0CD1124B00221A80124B48
:1032500007229A70104B0022DA610F4B00221A717C
:1032600010E00B4BDB78082B0CD1094B1A7E0A4B74
:10327000DA70074B0022DA70054B00221A76044BF5
:1032800000225A6100BFBD465DF8047B704700BF55
:10329000980000207C0000207400002080B582B0DF
:1032A00000AF874B1B78DD2B03D1864B00221A70B1
:1032B00006E0834B1B78A52B02D1824B01221A70AA
:1032C000804B1B78002B00F09F817D4B9B78BB715E
:1032D000BB79902B34D17C4B012283F84C20784B66
:1032E0001B799BB21B029AB2754B5B799BB213445C
:1032F0009AB2754B9A80724B1B7A9BB21B029AB2A0
:103300006F4B5B7A9BB213449BB21AB26E4BDA805E
:103310006B4B9B7A9BB21B029AB2694BDB7A9BB2D6
:1033200013449AB2684B5A83674B5B8B674AA2FB84
:103330000323DB089BB2DAB2654B83F8202045E11A
:10334000BB79912B18D15E4B1B799BB21B029AB2B1
:103350005B4B5B799BB213449AB25B4B1A85584B1B
:10336000DB799BB21B029AB2554B1B7A9BB213447A
:103370009AB2554B5A8529E1BB79922B00F02681F0
:10338000BB79932B11D14E4B1B7A1A064C4B5B7AAF
:103390001B041A444A4B9B7A1B021344484AD27AB4
:1033A00013441A46484B9A6010E1BB79942B08D11C
:1033B000434B1A79444B9A77414B5A79424BDA770F
:1033C00004E1BB79952B40F0F4803D4B1B79012B38
:1033D00024D13B4B5B799BB21B029AB2384B9B7951
:1033E0009BB213449AB2384B9A85354BDB799BB22A
:1033F0001B029AB2324B1B7A9BB213449AB2324BE5
:10340000DA852F4B5B7A9BB21B029AB22C4B9B7ACC
:103410009BB213449AB22C4B1A86C3E0284B1B79FB
:10342000022B24D1264B5B799BB21B029AB2244B10
:103430009B799BB213449AB2234B5A86204BDB797B
:103440009BB21B029AB21E4B1B7A9BB213449AB2D8
:103450001D4B9A861A4B5B7A9BB21B029AB2184B91
:103460009B7A9BB213449AB2174BDA869AE0144BBC
:103470001B79032B2ED1124B5B799BB21B029AB2A4
:103480000F4B9B799BB213449AB20F4B1A870C4B8C
:10349000DB799BB21B029AB2094B1B7A9BB2134495
:1034A0009AB2094B5A87064B5B7A9BB21B029AB2BF
:1034B000034B9B7A9BB213449AB2034B9A8771E0F9
:1034C0006C1F00203A200020B41E0020CDCCCCCCB4
:1034D00074000020494B1B79042B26D1474B5B79A4
:1034E0009BB21B029AB2454B9B799BB213449AB292
:1034F000434BDA87414BDB799BB21B029AB23F4BBD
:103500001B7A9BB213449AB23D4BA3F840203B4B2D
:103510005B7A9BB21B029AB2384B9B7A9BB21344E4
:103520009AB2374BA3F842203CE0344B1B79052B71
:1035300027D1324B5B799BB21B029AB22F4B9B79FE
:103540009BB213449AB22E4BA3F844202B4BDB7949
:103550009BB21B029AB2294B1B7A9BB213449AB2BC
:10356000274BA3F84620254B5B7A9BB21B029AB2ED
:10357000224B9B7A9BB213449AB2214BA3F848206A
:1035800010E01E4B1B79062B0CD11C4B5B799BB2B8
:103590001B029AB2194B9B799BB213449AB2184BF7
:1035A000A3F84A20174B95229A70164B82221A7361
:1035B0000CE0BB79962B09D1104B5B799AB2104B7A
:1035C0001A840E4B9B799AB20D4B5A840D4B9B7803
:1035D0000133DAB20B4B9A700A4B1B7B0133DAB220
:1035E000084B1A73074B9B78962B40F29081054B42
:1035F00090229A70034B7D221A7388E16C1F002081
:10360000B41E002014000020524B5B78FB71FB7944
:10361000032B40F0A980504B022283F84C204D4BE5
:103620001B799BB21B029AB24A4B5B799BB2134443
:103630009AB2494B9A80484B0022DA80454B1B7A5C
:103640001B02444A527A13441A46434B9A60414B38
:103650009B7A9BB21B029AB23E4BDB7A9BB213441D
:103660009AB23D4B9A813B4B1B7B9BB21B029AB299
:10367000384B5B7B9BB213449AB2374B1A82354B63
:103680009B7B9BB21B029AB2324BDB7B9BB21344F7
:103690009AB2314B5A822F4B1B7C9BB21B029AB2BF
:1036A0002C4B5B7C9BB213449AB22B4B9A82294BD6
:1036B0009B7C9BB21B029AB2264BDB7C9BB21344D1
:1036C0009AB2254BDA82234B1B7D9BB21B029AB226
:1036D000204B5B7D9BB213449AB21F4B1A831D4B48
:1036E0009A7D1D4B1A771B4BDB7D9AB21A4B5A837E
:1036F000184B1A7E184B5A77164B5A7E164B9A77F0
:10370000144B9A7E144BDA77124BDB7E9BB21B0272
:103710009AB2104B1B7F9BB213449AB20E4B1A8481
:103720000C4B5B7F9BB21B029AB20A4B9B7F9BB2F6
:1037300013449AB2084B5A84074B5B8BDAB2074B9F
:1037400083F82020642307220549064803F01DFF63
:10375000DDE000BF6C1F0020B41E002074000020BC
:103760000C0000205C1B0020FB79042B40F0CF8074
:10377000694BDA78694B83F82420674B1B799BB23D
:103780001B029AB2644B5B799BB213449AB2634BAF
:103790009A85614B9B799BB21B029AB25E4BDB7997
:1037A0009BB213449AB25D4BDA855B4B1B7A9BB29A
:1037B0001B029AB2584B5B7A9BB213449AB2574B96
:1037C0001A86554B9B7A9BB21B029AB2524BDB7AFC
:1037D0009BB213449AB2514B5A864F4B1B7B9BB200
:1037E0001B029AB24C4B5B7B9BB213449AB24B4B7D
:1037F0009A86494B9B7B9BB21B029AB2464BDB7B62
:103800009BB213449AB2454BDA86434B1B7C9BB266
:103810001B029AB2404B5B7C9BB213449AB23F4B63
:103820001A873D4B9B7C9BB21B029AB23A4BDB7CC6
:103830009BB213449AB2394B5A87374B1B7D9BB2CC
:103840001B029AB2344B5B7D9BB213449AB2334B4A
:103850009A87314B9B7D9BB21B029AB22E4BDB7D2C
:103860009BB213449AB22D4BDA872B4B1B7E9BB233
:103870001B029AB2284B5B7E9BB213449AB2274B31
:10388000A3F84020244B9B7E9BB21B029AB2224B92
:10389000DB7E9BB213449AB2204BA3F842201E4B0E
:1038A0001B7F9BB21B029AB21B4B5B7F9BB21344E4
:1038B0009AB21A4BA3F84420174B9B7F9BB21B0272
:1038C0009AB2154BDB7F9BB213449AB2134BA3F809
:1038D0004620114B93F820309BB21B029AB20E4B3C
:1038E00093F821309BB213449AB20C4BA3F84820B2
:1038F000094B93F822309BB21B029AB2064B93F805
:1039000023309BB213449AB2044BA3F84A2000BF61
:103910000837BD4680BD00BF6C1F0020B41E0020CC
:1039200080B485B000AF786039600023FB7300235A
:10393000BB60BA683B689A420ADABB687A6813448B
:103940001A78FB7B1344FB73BB680133BB60F0E761
:10395000FB7B18461437BD465DF8047B70470000BA
:1039600080B588B000AF7860786804F0B1F9F8618C
:10397000FB69013B0F2B63D801A252F823F000BF73
:10398000C1390008DF390008413A0008FD39000854
:10399000413A0008413A0008413A00081B3A000841
:1039A000413A0008413A0008413A0008413A00080B
:1039B000413A0008413A0008413A0008393A000803
:1039C0000023BB617B681B681B68BB617B681B684D
:1039D0005B68BB61BB697B6800221A6431E000232D
:1039E0007B617B681B681B687B617B681B685B680D
:1039F0007B617B697B6800221A6422E000233B61C3
:103A00007B681B681B683B617B681B685B683B616C
:103A10003B697B6800221A6413E00023FB607B682B
:103A20001B681B68FB607B681B685B68FB60FB684E
:103A30007B6800221A6404E07B6800221A6400E0BC
:103A400000BF7B681B68214A934210D1204B0122A2
:103A50001A7064221F49204803F029FE1F4B1B687F
:103A60001A681E4B1B6822F008021A602AE07B6865
:103A70001B681B4A934210D11A4B00221A70642211
:103A800019491A4803F013FE194B1B681A68184BA2
:103A90001B6822F008021A6014E07B681B68154A54
:103AA00093420FD1144B00221A7064221349144818
:103AB00003F0FDFD134B1B681A68124B1B6822F0C4
:103AC00008021A6000BF2037BD4680BD00100140CB
:103AD000041F0020D01F0020181B0020E41B002022
:103AE00000440040061F00206C1F00205C1B0020CB
:103AF000441C002000480040051F0020081F002033
:103B0000A01B0020A41C002080B582B000AF78600C
:103B10000B467B807B681B68214A934210D1214B66
:103B200001221A7064222049204803F0C0FD204B76
:103B30001B681A681E4B1B6822F008021A602AE0F4
:103B40007B681B681B4A934210D11B4B01221A70E1
:103B500064221A491A4803F0AAFD1A4B1B681A6816
:103B6000184B1B6822F008021A6014E07B681B687F
:103B7000154A93420FD1154B01221A706422144941
:103B8000144803F094FD144B1B681A68124B1B6811
:103B900022F008021A6000BF0837BD4680BD00BF92
:103BA00000100140041F0020D01F0020181B00201F
:103BB000E41B002000440040061F00206C1F002072
:103BC0005C1B0020441C002000480040051F002012
:103BD000081F0020A01B0020A41C002080B500AFFF
:103BE0000E4B1B680D4A43F4007313600B4B1B68AC
:103BF0000A4A43F480631360084B1B68074A43F486
:103C000080731360032000F08AFF0F20FDF72AF86D
:103C1000FCF7FCFF0023184680BD00BF003C0240BB
:103C200080B400AF064B1B781A46064B1B68134442
:103C3000044A136000BFBD465DF8047B704700BFB7
:103C4000280000203C20002080B400AF034B1B68FC
:103C50001846BD465DF8047B704700BF3C2000203D
:103C600080B584B000AF7860FFF7EEFFB8607B6886
:103C7000FB60FB68B3F1FF3F05D00A4B1B781A4687
:103C8000FB681344FB6000BFFFF7DEFF0246BB6822
:103C9000D31AFA689A42F7D800BF00BF1037BD4662
:103CA00080BD00BF2800002080B584B000AF7860E0
:103CB0007B68002B01D10123EDE07B6893F8203075
:103CC000DBB2002B02D17868FCF76CFC7B681B68C8
:103CD0001A687B681B6842F001021A60FFF7B4FFA4
:103CE000F86012E0FFF7B0FF0246FB68D31A0A2B18
:103CF0000BD97B685B6A43F400327B685A627B684D
:103D0000052283F820200123C5E07B681B685B68DF
:103D100003F00103002BE5D07B681B681A687B6801
:103D20001B6822F002021A60FFF78EFFF86012E0B3
:103D3000FFF78AFF0246FB68D31A0A2B0BD97B6870
:103D40005B6A43F400327B685A627B68052283F821
:103D5000202001239FE07B681B685B6803F002035F
:103D6000002BE5D17B681B7E012B08D17B681B688B
:103D70001A687B681B6842F080021A6007E07B6863
:103D80001B681A687B681B6822F080021A607B68D7
:103D90005B7E012B08D17B681B681A687B681B68F7
:103DA00042F040021A6007E07B681B681A687B6873
:103DB0001B6822F040021A607B689B7E012B08D1B1
:103DC0007B681B681A687B681B6842F020021A60D7
:103DD00007E07B681B681A687B681B6822F020027A
:103DE0001A607B68DB7E012B08D17B681B681A6830
:103DF0007B681B6822F010021A6007E07B681B6872
:103E00001A687B681B6842F010021A607B681B7F8F
:103E1000012B08D17B681B681A687B681B6842F01D
:103E200008021A6007E07B681B681A687B681B68D9
:103E300022F008021A607B685B7F012B08D17B6847
:103E40001B681A687B681B6842F004021A6007E06E
:103E50007B681B681A687B681B6822F004021A6082
:103E60007B689A687B68DB681A437B681B691A4326
:103E70007B685B6942EA03017B685B685A1E7B686A
:103E80001B680A43DA617B6800225A627B68012260
:103E900083F82020002318461037BD4680BD00005F
:103EA00080B487B000AF786039607B681B687B6145
:103EB0007B6893F82030FB74FB7C012B03D0FB7CE8
:103EC000022B40F0BE80654B7B617B69D3F80032EA
:103ED00043F001027B69C3F800227B69D3F800320A
:103EE00023F47C527B69C3F800227B69D3F800225B
:103EF0003B685B6A1B021A437B69C3F800223B687C
:103F00005B6903F01F03012202FA03F3FB607B6984
:103F1000D3F81C22FB68DB431A407B69C3F81C22E0
:103F20003B68DB69002B23D17B69D3F80C22FB684B
:103F3000DB431A407B69C3F80C223B68DB68190439
:103F40003B685B689BB23A68526919437B694832A7
:103F500043F832103B689B6819043B681B689AB2AF
:103F60003B685B690A4379694833DB000B445A605C
:103F70003B68DB69012B22D17B69D3F80C22FB68FB
:103F80001A437B69C3F80C223B681B6819043B6821
:103F90005B689BB23A68526919437B69483243F8BF
:103FA00032103B689B6819043B68DB689AB23B6837
:103FB0005B690A4379694833DB000B445A603B680C
:103FC0009B69002B09D17B69D3F80422FB68DB4392
:103FD0001A407B69C3F8042207E07B69D3F8042206
:103FE000FB681A437B69C3F804223B681B69002BFA
:103FF00009D17B69D3F81422FB68DB431A407B6943
:10400000C3F8142207E07B69D3F81422FB681A4333
:104010007B69C3F814223B681B6A012B07D17B69BB
:10402000D3F81C22FB681A437B69C3F81C227B6906
:10403000D3F8003223F001027B69C3F80022002389
:1040400006E07B685B6A43F480227B685A62012346
:1040500018461C37BD465DF8047B7047006400407D
:1040600080B584B000AF78607B6893F82030DBB215
:10407000012B2ED17B68022283F820207B681B68ED
:104080001A687B681B6822F001021A60FFF7DCFDEA
:10409000F86012E0FFF7D8FD0246FB68D31A0A2B3E
:1040A0000BD97B685B6A43F400327B685A627B6899
:1040B000052283F82020012312E07B681B685B68DF
:1040C00003F00103002BE5D17B6800225A62002334
:1040D00006E07B685B6A43F400227B685A62012336
:1040E00018461037BD4680BD80B489B000AFF86077
:1040F000B9607A603B60FB6893F82030FB77FB681F
:104100001B689B68BB61FB7F012B03D0FB7F022BED
:1041100040F0B880BB6903F08063002B0AD1BB6913
:1041200003F00063002B05D1BB6903F08053002B23
:1041300000F0A080BB691B0E03F003037B617B6969
:10414000022B07D9FB685B6A43F40002FB685A62E2
:1041500001239EE001227B699A403B681A60BB689C
:104160009B68002B0DD1BB681B685A05BB68DB68D8
:10417000F96809681A437B6918331B010B441A60FC
:104180000FE0BB685B68DA00BB689B681A43BB68DA
:10419000DB68F96809681A437B6918331B010B4413
:1041A0001A60FB681968BB681A697B6918331B01C0
:1041B0000B4404331A60BB681B7D012B11D1FB68D3
:1041C0001A687B6918331B01134404331B68FA68AF
:1041D000116843F480727B6918331B010B4404336C
:1041E0001A607B6807331B781A067B6806331B78D6
:1041F0001B041A437B6805331B781B0213437A6840
:10420000043212781046FA68116843EA00027B69AA
:104210001B010B4403F5C6731A607B6803331B78DC
:104220001A067B6802331B781B041A437B68013330
:104230001B781B0213437A6812781046FA681168DB
:1042400043EA00027B691B010B4403F5C4731A6047
:10425000FB681A687B6918331B0113441B68FA68F2
:10426000116843F001027B6918331B010B441A608B
:1042700000230EE0FB685B6A43F40012FB685A629D
:10428000012306E0FB685B6A43F48022FB685A6204
:10429000012318462437BD465DF8047B704780B47F
:1042A00085B000AF78600023FB607B6893F8203016
:1042B000FB72FB7A012B02D0FB7A022B1DD17B68AB
:1042C0001B689B6803F08063002B02D0FB680133FE
:1042D000FB607B681B689B6803F00063002B02D0C7
:1042E000FB680133FB607B681B689B6803F08053AD
:1042F000002B02D0FB680133FB60FB6818461437C3
:10430000BD465DF8047B704780B487B000AFF860AD
:10431000B9607A603B60FB6893F82030FB75FB7DE9
:10432000012B03D0FB7D022B40F0F380BB68002BF8
:104330000ED1FB681B68DB6803F00303002B16D16A
:10434000FB685B6A43F40012FB685A620123E7E0F2
:10435000FB681B681B6903F00303002B07D1FB6894
:104360005B6A43F40012FB685A620123D8E0FB68E1
:104370001A68BB681B331B0113441B6803F004025B
:104380007B689A607B689B68002B0CD1FB681A687D
:10439000BB681B331B0113441B685B0DC3F30A028C
:1043A0007B681A600BE0FB681A68BB681B331B0153
:1043B00013441B68DB0823F060427B685A60FB688B
:1043C0001A68BB681B331B0113441B6803F002020D
:1043D0007B68DA60FB681A68BB681B331B011344F7
:1043E00004331B6803F00F027B681A61FB681A68CC
:1043F000BB681B331B01134404331B681B0ADAB26E
:104400007B689A61FB681A68BB681B331B01134405
:1044100004331B681B0C9AB27B685A61FB681A68EC
:10442000BB681B01134403F5DC731B68DAB23B68FD
:104430001A70FB681A68BB681B01134403F5DC7330
:104440001B681A0A3B680133D2B21A70FB681A68FB
:10445000BB681B01134403F5DC731B681A0C3B6833
:104460000233D2B21A70FB681A68BB681B0113448E
:1044700003F5DC731B681A0E3B680333D2B21A7063
:10448000FB681A68BB681B01134403F5DE731A68E6
:104490003B680433D2B21A70FB681A68BB681B0110
:1044A000134403F5DE731B681A0A3B680533D2B266
:1044B0001A70FB681A68BB681B01134403F5DE73AE
:1044C0001B681A0C3B680633D2B21A70FB681A6874
:1044D000BB681B01134403F5DE731B681A0E3B68AF
:1044E0000733D2B21A70BB68002B08D1FB681B6877
:1044F000DA68FB681B6842F02002DA6007E0FB68BC
:104500001B681A69FB681B6842F020021A610023CD
:1045100006E0FB685B6A43F48022FB685A62012371
:1045200018461C37BD465DF8047B704780B485B0E3
:1045300000AF786039607B6893F82030FB73FB7BB9
:10454000012B02D0FB7B022B09D17B681B685969C8
:104550007B681B683A680A435A61002306E07B685F
:104560005B6A43F480227B685A6201231846143741
:10457000BD465DF8047B704780B58AB000AF7860B7
:1045800000237B627B681B685B693B627B681B68FE
:104590005B68FB617B681B689B68BB617B681B6811
:1045A000DB687B617B681B681B693B617B681B6800
:1045B0009B69FB603B6A03F00103002B7CD0BB6965
:1045C00003F00103002B23D07B681B6801229A6053
:1045D000BB6903F00203002B03D0786800F083F975
:1045E00016E0BB6903F00403002B04D07B6A43F49C
:1045F00000637B620CE0BB6903F00803002B04D06E
:104600007B6A43F480537B6202E0786800F089F9AA
:10461000BB6903F48073002B24D07B681B684FF4C4
:1046200080729A60BB6903F40073002B03D0786832
:1046300000F063F916E0BB6903F48063002B04D03B
:104640007B6A43F400537B620CE0BB6903F40063B4
:10465000002B04D07B6A43F480437B6202E07868DD
:1046600000F069F9BB6903F48033002B24D07B6828
:104670001B684FF480329A60BB6903F40033002B4F
:1046800003D0786800F043F916E0BB6903F4802397
:10469000002B04D07B6A43F400437B620CE0BB69CF
:1046A00003F40023002B04D07B6A43F480337B6245
:1046B00002E0786800F049F93B6A03F00803002B38
:1046C0000CD07B6903F01003002B07D07B6A43F406
:1046D00000737B627B681B681022DA603B6A03F020
:1046E0000403002B0BD07B6903F00803002B06D0DA
:1046F0007B681B680822DA60786800F030F93B6A52
:1047000003F00203002B09D07B681B68DB6803F011
:104710000303002B02D07868FDF7D8FD3B6A03F055
:104720004003002B0CD03B6903F01003002B07D093
:104730007B6A43F480637B627B681B6810221A618A
:104740003B6A03F02003002B0BD03B6903F0080306
:10475000002B06D07B681B6808221A61786800F07D
:1047600012F93B6A03F01003002B09D07B681B6829
:104770001B6903F00303002B02D0786800F0F9F8FE
:104780003B6A03F40033002B0BD0FB6903F01003EA
:10479000002B06D07B681B6810225A60786800F0F6
:1047A000FCF83B6A03F48033002B0BD0FB6903F069
:1047B0000803002B06D07B681B6808225A607868C3
:1047C00000F0F5F83B6A03F40043002B7BD0FB6953
:1047D00003F00403002B72D03B6A03F48073002BB8
:1047E00008D0FB6803F00103002B03D07B6A43F081
:1047F00001037B623B6A03F40073002B08D0FB6863
:1048000003F00203002B03D07B6A43F002037B62B8
:104810003B6A03F48063002B08D0FB6803F00403B9
:10482000002B03D07B6A43F004037B623B6A03F4F2
:104830000063002B43D0FB6803F07003002B3ED0D5
:10484000FB6803F07003602B2BD0602B2ED8502B0D
:1048500022D0502B2AD8402B19D0402B26D8302BD1
:1048600010D0302B22D8102B02D0202B05D01DE0E9
:104870007B6A43F008037B6219E07B6A43F0100314
:104880007B6214E07B6A43F020037B620FE07B6A6B
:1048900043F040037B620AE07B6A43F080037B6263
:1048A00005E07B6A43F480737B6200E000BF7B68B5
:1048B0001B689A697B681B6822F070029A617B68AA
:1048C0001B6804225A607B6A002B08D07B685A6AF6
:1048D0007B6A1A437B685A627868FDF719FD00BF4E
:1048E0002837BD4680BD80B483B000AF786000BF7C
:1048F0000C37BD465DF8047B704780B483B000AFD1
:10490000786000BF0C37BD465DF8047B704780B40B
:1049100083B000AF786000BF0C37BD465DF8047B04
:10492000704780B483B000AF786000BF0C37BD46DD
:104930005DF8047B704780B483B000AF786000BF3F
:104940000C37BD465DF8047B704780B483B000AF80
:10495000786000BF0C37BD465DF8047B704780B4BB
:1049600083B000AF786000BF0C37BD465DF8047BB4
:10497000704780B483B000AF786000BF0C37BD468D
:104980005DF8047B704780B483B000AF786000BFEF
:104990000C37BD465DF8047B704780B483B000AF30
:1049A000786000BF0C37BD465DF8047B704780B46B
:1049B00083B000AF786000BF0C37BD465DF8047B64
:1049C0007047000080B485B000AF78607B6803F06A
:1049D0000703FB600C4BDB68BB60BA684FF6FF0354
:1049E0001340BB60FB681A02BB68134343F0BF630C
:1049F00043F40033BB60044ABB68D36000BF143784
:104A0000BD465DF8047B704700ED00E080B400AF68
:104A1000044BDB681B0A03F007031846BD465DF82C
:104A2000047B704700ED00E080B483B000AF034624
:104A3000FB7197F90730002B0BDBFB7903F01F02AA
:104A4000074997F907305B09012000FA02F241F8A3
:104A5000232000BF0C37BD465DF8047B704700BFC4
:104A600000E100E080B483B000AF03463960FB7121
:104A700097F90730002B0ADB3B68DAB20C4997F94B
:104A800007301201D2B20B4483F800230AE03B68DE
:104A9000DAB20849FB7903F00F03043B1201D2B2EA
:104AA0000B441A7600BF0C37BD465DF8047B704797
:104AB00000E100E000ED00E080B489B000AFF860F4
:104AC000B9607A60FB6803F00703FB61FB69C3F11F
:104AD0000703042B28BF0423BB61FB690433062BA7
:104AE00002D9FB69033B00E000237B614FF0FF32FA
:104AF000BB6902FA03F3DA43BB681A407B699A4048
:104B00004FF0FF317B6901FA03F3D9437B680B4017
:104B1000134318462437BD465DF8047B704780B5C3
:104B200082B000AF78607868FFF74CFF00BF0837AD
:104B3000BD4680BD80B586B000AF0346B9607A60DF
:104B4000FB7300237B61FFF761FF78617A68B968C6
:104B50007869FFF7B1FF024697F90F301146184602
:104B6000FFF780FF00BF1837BD4680BD80B582B01B
:104B700000AF0346FB7197F907301846FFF754FF63
:104B800000BF0837BD4680BD80B586B000AF7860F5
:104B900000237B61FFF758F838617B68002B01D157
:104BA000012399E07B68022283F835207B6800228C
:104BB00083F834207B681B681A687B681B6822F0C6
:104BC00001021A600FE0FFF73FF802463B69D31A73
:104BD000052B08D97B6820225A657B68032283F85D
:104BE0003520032378E07B681B681B6803F0010312
:104BF000002BE8D17B681B681B687B617A69384BA6
:104C000013407B617B685A687B689B681A437B68AA
:104C1000DB681A437B681B691A437B685B691A432C
:104C20007B689B691A437B68DB691A437B681B6A54
:104C300013437A6913437B617B685B6A042B07D15A
:104C40007B68DA6A7B681B6B13437A6913437B6169
:104C50007B681B687A691A607B681B685B697B618B
:104C60007B6923F007037B617B685B6A7A69134386
:104C70007B617B685B6A042B17D17B689B6A7A69CE
:104C800013437B617B68DB6A002B0ED0786800F0F1
:104C900001FB0346002B08D07B6840225A657B68E5
:104CA000012283F83520012316E07B681B687A69AE
:104CB0005A61786800F0B8FA0346FB607B68DB6DE8
:104CC0003F229A40FB689A607B6800225A657B68A5
:104CD000012283F83520002318461837BD4680BDD1
:104CE0003F8010F080B586B000AFF860B9607A60A0
:104CF0003B600023FB75FB689B6D3B61FB6893F891
:104D00003430012B01D1022340E0FB68012283F8FB
:104D10003420FB6893F83530DBB2012B2FD1FB68D0
:104D2000022283F83520FB6800225A653B687A68C6
:104D3000B968F86800F04AFAFB68DB6D3F229A40D8
:104D40003B699A60FB681B681A68FB681B6842F045
:104D500016021A60FB681B6C002B07D0FB681B68EF
:104D60001A68FB681B6842F008021A60FB681B683F
:104D70001A68FB681B6842F001021A6005E0FB68D4
:104D8000002283F834200223FB75FB7D1846183778
:104D9000BD4680BD80B584B000AF78607B689B6DF8
:104DA000FB60FEF751FFB8607B6893F83530DBB2EB
:104DB000022B08D07B6880225A657B68002283F82A
:104DC0003420012352E07B681B681A687B681B68EB
:104DD00022F016021A607B681B685A697B681B68A0
:104DE00022F080025A617B681B6C002B03D17B6828
:104DF0009B6C002B07D07B681B681A687B681B685C
:104E000022F008021A607B681B681A687B681B68BE
:104E100022F001021A6013E0FEF716FF0246BB689B
:104E2000D31A052B0CD97B6820225A657B68032294
:104E300083F835207B68002283F83420032315E0B3
:104E40007B681B681B6803F00103002BE4D17B68BF
:104E5000DB6D3F229A40FB689A607B68012283F8F1
:104E600035207B68002283F8342000231846103751
:104E7000BD4680BD80B483B000AF78607B6893F896
:104E80003530DBB2022B04D07B6880225A650123C7
:104E90000CE07B68052283F835207B681B681A6864
:104EA0007B681B6822F001021A60002318460C3749
:104EB000BD465DF8047B704780B586B000AF786072
:104EC0000023BB608E4B1B688E4AA2FB03239B0A08
:104ED0007B617B689B6D3B613B691B68FB607B680A
:104EE000DB6D08229A40FB681340002B1AD07B68C8
:104EF0001B681B6803F00403002B13D07B681B683E
:104F00001A687B681B6822F004021A607B68DB6DFC
:104F100008229A403B699A607B685B6D43F001020E
:104F20007B685A657B68DB6D01229A40FB68134001
:104F3000002B12D07B681B685B6903F08003002B99
:104F40000BD07B68DB6D01229A403B699A607B68DD
:104F50005B6D43F002027B685A657B68DB6D04225F
:104F60009A40FB681340002B12D07B681B681B68BB
:104F700003F00203002B0BD07B68DB6D04229A4008
:104F80003B699A607B685B6D43F004027B685A65FD
:104F90007B68DB6D10229A40FB681340002B43D0E6
:104FA0007B681B681B6803F00803002B3CD07B6800
:104FB000DB6D10229A403B699A607B681B681B6816
:104FC00003F48023002B18D07B681B681B6803F454
:104FD0000023002B08D17B681B6C002B24D07B683E
:104FE0001B6C786898471FE07B689B6C002B1BD07C
:104FF0007B689B6C7868984716E07B681B681B6829
:1050000003F48073002B07D17B681B681A687B68E8
:105010001B6822F008021A607B681B6C002B03D00F
:105020007B681B6C786898477B68DB6D20229A4010
:10503000FB681340002B00F08F807B681B681B68A7
:1050400003F01003002B00F087807B68DB6D2022CB
:105050009A403B699A607B6893F83530DBB2052B48
:1050600036D17B681B681A687B681B6822F01602C1
:105070001A607B681B685A697B681B6822F0800293
:105080005A617B681B6C002B03D17B689B6C002BE7
:1050900007D07B681B681A687B681B6822F00802CF
:1050A0001A607B68DB6D3F229A403B699A607B689F
:1050B000012283F835207B68002283F834207B6846
:1050C0001B6D002B7ED07B681B6D7868984779E05C
:1050D0007B681B681B6803F48023002B1DD07B6852
:1050E0001B681B6803F40023002B0DD17B685B6CED
:1050F000002B31D07B685B6C786898472CE000BF50
:1051000000000020B5814E1B7B68DB6B002B23D099
:105110007B68DB6B786898471EE07B681B681B68C0
:1051200003F48073002B0FD17B681B681A687B68BF
:105130001B6822F010021A607B68012283F8352078
:105140007B68002283F834207B68DB6B002B03D064
:105150007B68DB6B786898477B685B6D002B32D08F
:105160007B685B6D03F00103002B22D07B68052276
:1051700083F835207B681B681A687B681B6822F0FF
:1051800001021A60BB680133BB607A699A4207D397
:105190007B681B681B6803F00103002BF2D100E061
:1051A00000BF7B68012283F835207B68002283F8EA
:1051B00034207B68DB6C002B05D07B68DB6C786867
:1051C000984700E000BF1837BD4680BD80B485B069
:1051D00000AFF860B9607A603B60FB681B681A68D2
:1051E000FB681B6822F480221A60FB681B683A681F
:1051F0005A60FB689B68402B08D1FB681B687A6883
:105200009A60FB681B68BA68DA6007E0FB681B6895
:10521000BA689A60FB681B687A68DA6000BF143766
:10522000BD465DF8047B704780B485B000AF786000
:105230007B681B68DBB2103B144AA2FB03231B09EB
:10524000FB60134AFB6813441B781A467B68DA65D7
:10525000FB68032B09D97B681B6823F47F7323F059
:1052600003031A1D7B689A6507E07B681B6823F4BB
:105270007F7323F003037A6893657B689B6D184600
:105280001437BD465DF8047B704700BFABAAAAAADD
:1052900008B7000880B485B000AF78600023FB73C6
:1052A0007B689B6ABB607B689B69002B1FD1BB68D6
:1052B000032B56D801A252F823F000BFCD520008AC
:1052C000DF520008CD520008635300087B68DB6A98
:1052D00003F08073002B46D00123FB7343E07B680F
:1052E000DB6AB3F1C07F40D10123FB733DE07B68F3
:1052F0009B69B3F5005F21D1BB68032B37D801A2AE
:1053000052F823F0155300081B53000815530008EA
:105310002D5300080123FB7330E07B68DB6A03F048
:105320008073002B25D00123FB7322E07B68DB6AAE
:10533000B3F1C07F1FD10123FB731CE0BB68022BBC
:1053400003D9BB68032B03D018E00123FB7315E0DE
:105350007B68DB6A03F08073002B0ED00123FB73A4
:105360000BE000BF0AE000BF08E000BF06E000BF9E
:1053700004E000BF02E000BF00E000BFFB7B184676
:105380001437BD465DF8047B704700BF80B489B018
:1053900000AF7860396000237B6100233B6100230C
:1053A000BB610023FB616BE10122FB6902FA03F39D
:1053B0007B613B681B687A6913403B613A697B6992
:1053C0009A4240F05A813B685B6803F00303012B6B
:1053D00005D03B685B6803F00303022B30D17B6888
:1053E0009B68BB61FB695B00032202FA03F3DB43AA
:1053F000BA691340BB613B68DA68FB695B0002FA7B
:1054000003F3BA691343BB617B68BA699A607B682E
:105410005B68BB610122FB6902FA03F3DB43BA69F3
:105420001340BB613B685B681B0903F00102FB6929
:1054300002FA03F3BA691343BB617B68BA695A6025
:105440003B685B6803F00303032B17D07B68DB68C2
:10545000BB61FB695B00032202FA03F3DB43BA6919
:105460001340BB613B689A68FB695B0002FA03F377
:10547000BA691343BB617B68BA69DA603B685B68F1
:1054800003F00303022B23D1FB69DA087B6808329F
:1054900053F82230BB61FB6903F007039B000F2226
:1054A00002FA03F3DB43BA691340BB613B681A6934
:1054B000FB6903F007039B0002FA03F3BA69134385
:1054C000BB61FB69DA087B680832B96943F82210CE
:1054D0007B681B68BB61FB695B00032202FA03F374
:1054E000DB43BA691340BB613B685B6803F00302AE
:1054F000FB695B0002FA03F3BA691343BB617B6883
:10550000BA691A603B685B6803F44033002B00F013
:10551000B4800023FB60604B5B6C5F4A43F48043C4
:1055200053645D4B5B6C03F48043FB60FB685B4A38
:10553000FB699B08023352F82330BB61FB6903F01F
:1055400003039B000F2202FA03F3DB43BA69134003
:10555000BB617B68524A93422BD07B68514A93428D
:1055600025D07B68504A93421FD07B684F4A9342B4
:1055700019D07B684E4A934213D07B684D4A9342C0
:105580000DD07B684C4A934207D07B684B4A9342CC
:1055900001D107230EE008230CE006230AE00523CF
:1055A00008E0042306E0032304E0022302E00123D1
:1055B00000E00023FA6902F0030292009340BA6906
:1055C0001343BB613549FB699B080233BA6941F853
:1055D00023203B4B9B68BB613B69DB43BA691340AB
:1055E000BB613B685B6803F48013002B03D0BA698E
:1055F0003B691343BB61324ABB699360304BDB6844
:10560000BB613B69DB43BA691340BB613B685B68C4
:1056100003F40013002B03D0BA693B691343BB6149
:10562000274ABB69D360264B5B68BB613B69DB43A0
:10563000BA691340BB613B685B6803F40033002B1D
:1056400003D0BA693B691343BB611D4ABB69536010
:105650001B4B1B68BB613B69DB43BA691340BB61F1
:105660003B685B6803F48033002B03D0BA693B6965
:105670001343BB61124ABB691360FB690133FB61D1
:10568000FB690F2B7FF690AE00BF00BF2437BD46ED
:105690005DF8047B704700BF0038024000380140CD
:1056A000000002400004024000080240000C0240DA
:1056B000001002400014024000180240001C02408A
:1056C000003C014080B483B000AF78600B467B8023
:1056D00013467B707B78002B03D07A887B689A61B5
:1056E00003E07B881A047B689A6100BF0C37BD46D3
:1056F0005DF8047B704780B584B000AF78607B684C
:10570000002B01D1012334E07B681B684CF6CC42AE
:105710001A607B681B6845F255521A607B681B68EB
:105720007A6852685A607B681B687A6892689A60E7
:10573000FEF78AFAF8600FE0FEF786FA0246FB6889
:10574000D31A312B08D97B681B68DB6803F003038D
:10575000002B01D003230CE07B681B68DB6803F09F
:105760000303002BE8D17B681B684AF6AA221A6063
:10577000002318461037BD4680BD80B483B000AF0B
:1057800078607B681B684AF6AA221A6000231846D4
:105790000C37BD465DF8047B7047000080B586B0CD
:1057A00000AF78607B68002B01D1012367E27B6842
:1057B0001B6803F00103002B75D0884B9B6803F036
:1057C0000C03042B0CD0854B9B6803F00C03082BB7
:1057D00012D1824B5B6803F48003B3F5800F0BD1C9
:1057E0007E4B1B6803F40033002B5BD07B685B6847
:1057F000002B57D1012342E27B685B68B3F5803F01
:1058000006D1764B1B68754A43F4803313601DE064
:105810007B685B68B3F5A02F0CD1704B1B686F4A97
:1058200043F4802313606D4B1B686C4A43F4803350
:1058300013600BE0694B1B68684A23F480331360E4
:10584000664B1B68654A23F4802313607B685B68A2
:10585000002B13D0FEF7F8F9386108E0FEF7F4F9F1
:1058600002463B69D31A642B01D9032307E25B4B41
:105870001B6803F40033002BF0D014E0FEF7E4F9CA
:10588000386108E0FEF7E0F902463B69D31A642B61
:1058900001D90323F3E1514B1B6803F40033002BC0
:1058A000F0D100E000BF7B681B6803F00203002B0F
:1058B00063D04A4B9B6803F00C03002B0BD0474B83
:1058C0009B6803F00C03082B1CD1444B5B6803F46A
:1058D0008003002B16D1414B1B6803F00203002B01
:1058E00005D07B68DB68012B01D00123C7E13B4B6E
:1058F0001B6823F0F8027B681B69DB003749134300
:105900000B603AE07B68DB68002B20D0344B01222F
:105910001A60FEF799F9386108E0FEF795F902463A
:105920003B69D31A022B01D90323A8E12B4B1B6837
:1059300003F00203002BF0D0284B1B6823F0F80281
:105940007B681B69DB00254913430B6015E0244B82
:1059500000221A60FEF778F9386108E0FEF774F962
:1059600002463B69D31A022B01D9032387E11B4B63
:105970001B6803F00203002BF0D17B681B6803F067
:105980000803002B36D07B685B69002B16D0154BC3
:1059900001221A60FEF758F9386108E0FEF754F961
:1059A00002463B69D31A022B01D9032367E10B4B53
:1059B0005B6F03F00203002BF0D01BE0094B0022C9
:1059C0001A60FEF741F938610EE0FEF73DF9024634
:1059D0003B69D31A022B07D9032350E10038024058
:1059E00000004742800E4742884B5B6F03F0020382
:1059F000002BEAD17B681B6803F00403002B00F046
:105A000097800023FB75814B1B6C03F08053002BA8
:105A10000FD10023BB607D4B1B6C7C4A43F080534D
:105A200013647A4B1B6C03F08053BB60BB6801238B
:105A3000FB75774B1B6803F48073002B18D1744BF4
:105A40001B68734A43F480731360FEF7FDF83861F6
:105A500008E0FEF7F9F802463B69D31A022B01D998
:105A600003230CE16A4B1B6803F48073002BF0D016
:105A70007B689B68012B06D1644B1B6F634A43F024
:105A8000010313671CE07B689B68052B0CD15F4BFF
:105A90001B6F5E4A43F0040313675C4B1B6F5B4A4A
:105AA00043F0010313670BE0584B1B6F574A23F079
:105AB00001031367554B1B6F544A23F0040313670C
:105AC0007B689B68002B15D0FEF7BEF838610AE0B2
:105AD000FEF7BAF802463B69D31A41F28832934284
