:020000040800F2
:100000000000022035150008510D0008570D0008AA
:100010005D0D0008630D0008690D00080000000078
:1000200000000000000000000000000021A7000800
:100030006F0D00080000000071A90008F983000896
:100040008515000885150008851500088515000828
:100050008515000885150008851500088515000818
:100060008515000885150008851500088515000808
:100070007D0D000885150008851500088515000808
:10008000910D0008851500088515000885150008E4
:10009000A50D000885150008B90D00088515000894
:1000A00085150008851500088515000885150008C8
:1000B00085150008851500088515000885150008B8
:1000C00085150008851500088515000885150008A8
:1000D00085150008CD0D0008E10D0008F50D00089C
:1000E0008515000885150008851500088515000888
:1000F0008515000885150008851500088515000878
:100100008515000885150008851500088515000867
:100110008515000885150008090E000885150008DA
:1001200085150008851500081D0E000885150008B6
:100130008515000885150008851500088515000837
:100140008515000885150008851500088515000827
:100150008515000885150008851500088515000817
:100160008515000885150008851500088515000807
:100170008515000885150008851500080000000099
:08018000851500088515000833
:1001900010B5054C237833B9044B13B10448AFF3C1
:1001A00000800123237010BD3000002000000000FB
:1001B00040AF000808B5034B1BB103490348AFF338
:1001C000008008BD000000003400002040AF00089F
:1001D00053B94AB9002908BF00281CBF4FF0FF31AE
:1001E0004FF0FF3000F074B9ADF1080C6DE904CEAA
:1001F00000F006F8DDF804E0DDE9022304B0704702
:100200002DE9F047089D04468E46002B4DD18A42C9
:10021000944669D9B2FA82F252B101FA02F3C2F1FC
:10022000200120FA01F10CFA02FC41EA030E94408D
:100230004FEA1C48210CBEFBF8F61FFA8CF708FBAE
:1002400016E341EA034306FB07F199420AD91CEB86
:10025000030306F1FF3080F01F81994240F21C81B8
:10026000023E63445B1AA4B2B3FBF8F008FB103300
:1002700044EA034400FB07F7A7420AD91CEB040435
:1002800000F1FF3380F00A81A74240F20781644405
:10029000023840EA0640E41B00261DB1D44000238A
:1002A000C5E900433146BDE8F0878B4209D9002DEE
:1002B00000F0EF800026C5E9000130463146BDE878
:1002C000F087B3FA83F6002E4AD18B4202D38242E2
:1002D00000F2F980841A61EB030301209E46002D91
:1002E000E0D0C5E9004EDDE702B9FFDEB2FA82F2E6
:1002F000002A40F09280A1EB0C014FEA1C471FFA44
:100300008CFE0126200CB1FBF7F307FB131140EA2A
:1003100001410EFB03F0884208D91CEB010103F1F7
:10032000FF3802D2884200F2CB804346091AA4B2B9
:10033000B1FBF7F007FB101144EA01440EFB00FE8D
:10034000A64508D91CEB040400F1FF3102D2A645F2
:1003500000F2BB800846A4EB0E0440EA03409CE791
:10036000C6F12007B34022FA07FC4CEA030C20FA3E
:1003700007F401FA06F31C43F9404FEA1C4900FA5E
:1003800006F3B1FBF9F8200C1FFA8CFE09FB1811DB
:1003900040EA014108FB0EF0884202FA06F20BD94E
:1003A0001CEB010108F1FF3A80F08880884240F29E
:1003B0008580A8F102086144091AA4B2B1FBF9F0E2
:1003C00009FB101144EA014100FB0EFE8E4508D9DD
:1003D0001CEB010100F1FF346CD28E456AD9023862
:1003E000614440EA0840A0FB0294A1EB0E01A14247
:1003F000C846A64656D353D05DB1B3EB080261EBB5
:100400000E0101FA07F722FA06F3F1401F43C5E98E
:10041000007100263146BDE8F087C2F12003D840C4
:100420000CFA02FC21FA03F3914001434FEA1C4706
:100430001FFA8CFEB3FBF7F007FB10360B0C43EAF8
:10044000064300FB0EF69E4204FA02F408D91CEBA8
:10045000030300F1FF382FD29E422DD902386344A6
:100460009B1B89B2B3FBF7F607FB163341EA034146
:1004700006FB0EF38B4208D91CEB010106F1FF3895
:1004800016D28B4214D9023E6144C91A46EA00468C
:1004900038E72E46284605E70646E3E61846F8E61E
:1004A0004B45A9D2B9EB020864EB0C0E0138A3E767
:1004B0004646EAE7204694E74046D1E7D0467BE748
:1004C000023B614432E7304609E76444023842E7C0
:1004D000704700BF80B58AB000AF304B304A1A6019
:1004E0002E4B06225A602D4B00229A602B4B002285
:1004F000DA602A4B4FF420221A61284B4FF4801205
:100500005A61264B00221A76244B01225A76234B3D
:1005100000229A76214B0022DA76204B00221A77AD
:100520001E4B01225A771D4803F0E2F80346002BC8
:1005300001D000F05FFB00237B610023BB6101233E
:10054000FB6100233B6000237B600023BB60002332
:10055000FB6000233B6101233B623B4619460F4889
:1005600003F0C2F90346002B01D000F043FB0B4817
:1005700003F09AFA0346002B01D000F03BFB48F64B
:100580000241064803F0F6FC0346002B01D000F0C0
:1005900031FB00BF2837BD4680BD00BF4C000020A6
:1005A0000064004080B58AB000AF786007F11403A2
:1005B00000221A605A609A60DA601A617B681B68D0
:1005C000214A93423CD100233B61204B1B6C1F4AC4
:1005D00043F0007313641D4B1B6C03F000733B610D
:1005E0003B690023FB60194B1B6B184A43F0020365
:1005F0001363164B1B6B03F00203FB60FB684FF4A5
:1006000040737B610223BB610023FB6103233B62D8
:1006100009237B6207F1140319460D4804F0DAFB45
:1006200000220521142003F0A9FF142003F0C2FFCB
:1006300000220521162003F0A1FF162003F0BAFFC7
:1006400000BF2837BD4680BD00640040003802402E
:100650000004024080B582B000AF00237B601B4BDA
:100660001B6B1A4A43F480031363184B1B6B03F490
:1006700080037B607B6800233B60144B1B6B134A39
:1006800043F400131363114B1B6B03F400133B6023
:100690003B68002205210C2003F070FF0C2003F0C2
:1006A00089FF00220521102003F068FF102003F0CD
:1006B00081FF002205213A2003F060FF3A2003F079
:1006C00079FF00BF0837BD4680BD00BF003802403B
:1006D00080B500AF204A0021204807F0F1FE034614
:1006E0001F4A13601F4A00211F4807F0E9FE034616
:1006F0001E4A13601E4A00211E4807F0E1FE034611
:100700001D4A13601D4A00211D4807F0D9FE03460B
:100710001C4A13601C4A00211C4807F0D1FE034606
:100720001B4A13601B4A00211B4807F0C9FE034601
:100730001A4A13601A4A00211A4807F0C1FE0346FC
:10074000194A1360194A0021194807F0B9FE0346F7
:10075000184A136000BF80BDE0AF0008B907000869
:10076000E000002004B000086526000840030020D7
:1007700028B0000819240008A00500204CB000088B
:10078000312900080008002070B00008092A00087C
:10079000600A002094B00008D1200008C00E00209C
:1007A000B8B00008A11E000820110020DCB000082D
:1007B000532600088015002080B582B000AF786015
:1007C0004FF47A7007F00EFFFAE7000080B58CB0A6
:1007D00000AF07F11C0300221A605A609A60DA60C9
:1007E0001A610023BB617D4B1B6B7C4A43F01003F5
:1007F00013637A4B1B6B03F01003BB61BB690023CF
:100800007B61764B1B6B754A43F004031363734B98
:100810001B6B03F004037B617B6900233B616F4B1F
:100820001B6B6E4A43F0800313636C4B1B6B03F02E
:1008300080033B613B690023FB60684B1B6B674A8D
:1008400043F001031363654B1B6B03F00103FB6073
:10085000FB680023BB60614B1B6B604A43F00203E3
:1008600013635E4B1B6B03F00203BB60BB6800238A
:100870007B605A4B1B6B594A43F008031363574B79
:100880001B6B03F008037B607B6801223221544814
:1008900004F03CFC01224FF4F971524804F036FC9C
:1008A00001224CF20301504804F030FC01224FF6C3
:1008B00080714E4804F02AFC01224FF47F414C48DD
:1008C00004F024FC7E23FB6100233B6200237B6257
:1008D00007F11C031946454804F07CFA4FF47053A5
:1008E000FB6100233B6200237B6207F11C03194676
:1008F0003B4804F06FFA3223FB6101233B62002383
:100900007B620023BB6207F11C031946344804F0E4
:1009100061FA4FF4F973FB6101233B6200237B62B0
:100920000023BB6207F11C0319462E4804F052FA5B
:100930004CF20303FB6101233B6200237B62002333
:10094000BB6207F11C031946274804F043FA4FF62F
:100950008073FB6101233B6200237B620023BB6247
:1009600007F11C031946214804F034FA4FF47F4381
:10097000FB6101233B6200237B620023BB6207F122
:100980001C0319461A4804F025FA4FF40043FB6192
:1009900000233B6200237B6207F11C0319461148C8
:1009A00004F018FAFF23FB6100233B6200237B6203
:1009B00007F11C0319460E4804F00CFA3823FB61BA
:1009C00000233B6200237B6207F11C0319460648A3
:1009D00004F000FA00BF3037BD4680BD0038024049
:1009E00000080240000002400004024000100240E3
:1009F000000C024080B500AF094B0A4A1A60084B50
:100A000003225A60064B40F6FF729A60044804F0D5
:100A100096FB0346002B01D000F0ECF800BF80BD30
:100A2000E01900200030004080B500AF02F0FAFD70
:100A300000F062F8FFF7CAFEFFF70CFE00F09AFB29
:100A400000F0C2FB00F0EAFB00F004FA00F09AFAB2
:100A5000FFF7D0FFFFF73EFD40F6C41002F024FE82
:100A600064221A491A4806F046FB642219491A48BA
:100A700006F041FB64221949194806F03CFB194B6A
:100A80001B681A68174B1B6822F008021A60164B85
:100A90001B681A68144B1B6822F008021A60134B7B
:100AA0001B681A68114B1B6822F008021A603C216F
:100AB0000F4805F059FB0F4804F083FB07F0B6FC24
:100AC000FFF706FE07F0D6FCFEE700BF501F002030
:100AD000C41A0020EC1E0020081B0020881E0020E5
:100AE0004C1B0020901B0020F01B0020501C0020FD
:100AF0007C1A0020E019002080B594B000AF07F107
:100B000020033022002118460AF012FA07F10C03E4
:100B100000221A605A609A60DA601A610023BB6092
:100B2000294B1B6C284A43F080531364264B1B6CE3
:100B300003F08053BB60BB6800237B60234B1B68C2
:100B4000224A43F480431360204B1B6803F4804324
:100B50007B607B6809233B624FF480337B62012317
:100B60007B630223BB634FF48003FB6304233B647A
:100B7000A8237B640223BB640423FB6407F12003E6
:100B8000184604F02FFB0346002B01D000F032F88A
:100B90000F23FB6002233B6100237B614FF4A053D2
:100BA000BB614FF48053FB6107F10C03052118462C
:100BB00004F090FD0346002B01D000F01BF800BFAD
:100BC0005037BD4680BD00BF003802400070004075
:100BD00080B582B000AF78607B681B68044A93429E
:100BE00001D102F041FD00BF0837BD4680BD00BF06
:100BF0000010004080B400AF72B600BFFEE70000F6
:100C000080B582B000AF00237B60124B5B6C114A51
:100C100043F4804353640F4B5B6C03F480437B606D
:100C20007B6800233B600B4B1B6C0A4A43F08053EC
:100C30001364084B1B6C03F080533B603B6800223D
:100C40000F216FF0010003F099FC00BF0837BD468B
:100C500080BD00BF0038024080B58EB000AF786024
:100C60000023FB620023BB620023FB60334B1B6C41
:100C7000324A43F010031364304B1B6C03F0100333
:100C8000FB60FB6807F1100207F1140311461846D8
:100C900004F040FF3B6AFB62FB6A002B03D104F0C7
:100CA00011FF786304E004F00DFF03465B007B63F3
:100CB0007B6B234AA2FB03239B0C013BBB62214BB2
:100CC000214A1A601F4B40F2E732DA601D4ABB6AC4
:100CD00053601C4B00221A611A4B00229A60194B78
:100CE00000229A61174804F047FF034687F8333023
:100CF00097F83330002B1BD1124804F08DFF0346C8
:100D000087F8333097F83330002B11D1362003F0B9
:100D100051FC7B680F2B08D800227968362003F03D
:100D20002DFC0A4A7B68136002E0012387F8333008
:100D300097F8333018463837BD4680BD003802403A
:100D400083DE1B43EC19002000100040240000202B
:100D500080B400AFFEE780B400AFFEE780B400AF20
:100D6000FEE780B400AFFEE780B400AFFEE780B4DA
:100D700000AF00BFBD465DF8047B704780B500AF93
:100D8000024803F0BDFD00BF80BD00BF501C002025
:100D900080B500AF024803F0B3FD00BF80BD00BFC7
:100DA000F01B002080B500AF024803F009F900BF36
:100DB00080BD00BF4C00002080B500AF024803F0AA
:100DC000FFF800BF80BD00BF4C00002080B500AF21
:100DD000024806F0F5F900BF80BD00BFC41A00202C
:100DE00080B500AF024806F0EBF900BF80BD00BF40
:100DF000081B002080B500AF024806F0E1F900BFF3
:100E000080BD00BF4C1B002080B500AF024805F03C
:100E100039FA00BF80BD00BFEC19002080B500AFDB
:100E2000024803F06DFD00BF80BD00BF901B002095
:100E300080B400AF064BD3F88830054A43F4700302
:100E4000C2F8883000BFBD465DF8047B704700BF24
:100E500000ED00E080B58EB000AF07F1280300225E
:100E60001A605A609A60DA6007F1200300221A6063
:100E70005A603B1D00221A605A609A60DA601A615B
:100E80005A619A613D4B3E4A1A603C4B40F24732F0
:100E90005A603A4B00229A60384B40F2CF72DA60C7
:100EA000364B00221A61354B80229A61334804F098
:100EB00063FE0346002B01D0FFF79CFE4FF48053E6
:100EC000BB6207F1280319462C4805F0A5FB034631
:100ED000002B01D0FFF78EFE284804F00DFF0346DB
:100EE000002B01D0FFF786FE00233B6200237B62CC
:100EF00007F120031946214805F08EFF0346002B19
:100F000001D0FFF777FE60237B600023BB600023E6
:100F1000FB6000237B613B1D00221946174805F04A
:100F2000B9FA0346002B01D0FFF764FE3B1D0422F3
:100F30001946124805F0AEFA0346002B01D0FFF720
:100F400059FE3B1D082219460C4805F0A3FA03463A
:100F5000002B01D0FFF74EFE3B1D0C22194607481F
:100F600005F098FA0346002B01D0FFF743FE034833
:100F700000F0C6F800BF3837BD4680BD341A0020E7
:100F80000004004080B58CB000AF07F10C032422B0
:100F90000021184609F0CCFF3B1D00221A605A6060
:100FA000204B214A1A601F4B00225A601D4B002221
:100FB0009A601C4B4FF6FF72DA601A4B00221A61DE
:100FC000184B00229A610123FB6000233B6101233F
:100FD0007B610023BB610023FB6100233B62012393
:100FE0007B620023BB620023FB6207F10C031946FE
:100FF0000C4805F013F80346002B01D0FFF7FAFD6B
:1010000000237B600023BB603B1D1946054805F0AB
:1010100003FF0346002B01D0FFF7ECFD00BF303784
:10102000BD4680BD7C1A00200008004080B485B019
:1010300000AF78607B681B680B4A93420DD1002398
:10104000FB600A4B1B6C094A43F002031364074B15
:101050001B6C03F00203FB60FB6800BF1437BD4646
:101060005DF8047B704700BF000400400038024078
:1010700080B58AB000AF786007F1140300221A60CF
:101080005A609A60DA601A617B681B68194A934259
:101090002BD100233B61184B1B6C174A43F0040310
:1010A0001364154B1B6C03F004033B613B69002385
:1010B000FB60114B1B6B104A43F0020313630E4B92
:1010C0001B6B03F00203FB60FB68C0237B61022300
:1010D000BB610023FB6100233B6202237B6207F1BB
:1010E00014031946054803F075FE00BF2837BD46B6
:1010F00080BD00BF000800400038024000040240EC
:1011000080B588B000AF786007F10C0300221A6048
:101110005A609A60DA601A617B681B68124A9342CF
:101120001ED10023BB60114B1B6B104A43F004031C
:1011300013630E4B1B6B03F00403BB60BB684FF4DF
:101140007073FB6002233B6100237B610023BB6162
:101150000223FB6107F10C031946054803F03AFE30
:1011600000BF2037BD4680BD00040040003802406B
:101170000008024080B500AF114B124A1A60104BB4
:101180004FF416525A600E4B00229A600C4B00220C
:10119000DA600B4B00221A61094B0C225A61084B92
:1011A00000229A61064B0022DA61054805F0C4FE70
:1011B0000346002B01D0FFF71DFD00BF80BD00BF1F
:1011C000C41A00200010014080B500AF114B124A34
:1011D0001A60104B4FF416525A600E4B00229A6060
:1011E0000C4B0022DA600B4B00221A61094B0C22D7
:1011F0005A61084B00229A61064B0022DA610548C9
:1012000005F09AFE0346002B01D0FFF7F3FC00BF68
:1012100080BD00BF081B00200044004080B500AF27
:10122000114B124A1A60104B4FF416525A600E4B73
:1012300000229A600C4B0022DA600B4B00221A61EC
:10124000094B0C225A61084B00229A61064B00227E
:10125000DA61054805F070FE0346002B01D0FFF768
:10126000C9FC00BF80BD00BF4C1B002000480040EF
:1012700080B58EB000AF786007F1240300221A60B9
:101280005A609A60DA601A617B681B689D4A9342D3
:1012900063D100233B629C4B5B6C9B4A43F0100381
:1012A0005364994B5B6C03F010033B623B6A002371
:1012B000FB61954B1B6B944A43F001031363924B04
:1012C0001B6B03F00103FB61FB694FF4C0637B629E
:1012D0000223BB620023FB6203233B6307237B6380
:1012E00007F124031946894803F074FD884B894AA5
:1012F0001A60874B4FF000625A60854B00229A605B
:10130000834B0022DA60824B4FF480621A61804B7B
:1013100000225A617E4B00229A617D4B0022DA61E5
:101320007B4B00221A627A4B00225A62784803F003
:101330004FF90346002B01D0FFF75CFC7B68744A31
:101340009A63734A7B68936300220521252003F08A
:1013500015F9252003F02EF9CFE07B681B686E4A53
:10136000934262D10023BB61674B1B6C664A43F416
:1013700000331364644B1B6C03F40033BB61BB6923
:1013800000237B61604B1B6B5F4A43F001031363D7
:101390005D4B1B6B03F001037B617B690C237B625C
:1013A0000223BB620023FB6203233B6307237B63AF
:1013B00007F124031946554803F00CFD574B584AD2
:1013C0001A60564B4FF000625A60544B00229A60EC
:1013D000524B0022DA60514B4FF480621A614F4B3E
:1013E00000225A614D4B00229A614C4B0022DA6177
:1013F0004A4B00221A62494B00225A62474803F0C6
:10140000E7F80346002B01D0FFF7F4FB7B68434A63
:101410009A63424A7B68936300220521262003F0E9
:10142000ADF8262003F0C6F867E07B681B683D4AEC
:10143000934262D100233B61334B1B6C324A43F42D
:1014400080231364304B1B6C03F480233B613B69A6
:101450000023FB602C4B1B6B2B4A43F002031363EE
:10146000294B1B6B03F00203FB60FB684FF44063E6
:101470007B620223BB620023FB6203233B630723DF
:101480007B6307F124031946274803F0A3FC274B8D
:10149000274A1A60254B4FF000625A60234B002206
:1014A0009A60224B0022DA60204B4FF480621A616E
:1014B0001E4B00225A611D4B00229A611B4B0022D9
:1014C000DA611A4B00221A62184B00225A6217483E
:1014D00003F07EF80346002B01D0FFF78BFB7B68FF
:1014E000124A9A63114A7B689363002205212720E0
:1014F00003F044F8272003F05DF800BF3837BD46FD
:1015000080BD00BF001001400038024000000240D2
:10151000901B00204064024000440040F01B00206B
:10152000886002400048004000040240501C002037
:1015300028600240DFF834D00D480E490E4A0023DF
:1015400002E0D458C4500433C4188C42F9D30B4A77
:101550000B4C002301E013600432A242FBD3FFF7DF
:1015600067FC09F0B3FCFFF75FFA70470000022048
:10157000000000203000002068B10008300000208A
:1015800010690020FEE7B0B485B000AFF860B96024
:101590007A603B60FB6800221A60FB6800225A6296
:1015A000FB6800229A62FB680022DA62FB68002274
:1015B0001A63FB6800225A63FB68002283F8382014
:1015C000FB68002283F83920FB68002283F83A2068
:1015D000FB68002283F83B20FB683A6ADA63FB6809
:1015E0007A685A62FB68BA689A60FB683A685A601F
:1015F000FB6800221A61FB6808225A61FB6800221E
:101600001A76BB68002B03D0FB680422DA6002E084
:10161000FB680022DA60FB68DA6B3B6A14461D4601
:101620000FCD0FC495E8030084E80300FB6818465B
:101630001437BD46B0BC704780B586B002AFF860C5
:10164000B9607A603B603B68009300237A68B968B0
:10165000F868FFF798FFFB6818461037BD4680BD55
:1016600080B586B002AFF860B9607A607B6800939D
:10167000BB6800220021F868FFF785FFFB68184669
:101680001037BD4680BD80B582B000AF786039604C
:101690007B6893F93A30002B02D1786800F0A9F802
:1016A000022006F09FFF7B685B6A002B25D07B68D9
:1016B00023221A777B6800225A777B6820229A7748
:1016C0007B685B6ADAB27B68DA773B681B16DAB252
:1016D0007B6883F820203B681B14DAB27B6883F8B0
:1016E00021203B681B12DAB27B6883F822203B681A
:1016F000DAB27B6883F8232022E07B68A2221A7783
:101700007B6800225A777B6800229A777B680022E8
:10171000DA773B68DAB27B6883F820203B681B12DB
:10172000DAB27B6883F821203B681B14DAB27B684D
:1017300083F822203B681B16DAB27B6883F82320EB
:101740007B683A689A62786800F0C1FA03461846E6
:101750000837BD4680BD80B582B000AF78607B6839
:101760005B6A002B1ED07B6823221A777B680022DD
:101770005A777B6820229A777B685B6ADAB27B684B
:10178000DA777B68002283F820207B68002283F8C8
:1017900021207B68002283F822207B68002283F8C6
:1017A00023201BE07B6881221A777B6800225A770E
:1017B0007B6800229A777B680022DA777B680022B8
:1017C00083F820207B68002283F821207B68002298
:1017D00083F822207B68002283F823207B68002284
:1017E0009A62786800F073FA034618460837BD46D7
:1017F00080BD80B582B000AF78607B685B6A002BEB
:101800001ED07B6823221A777B680D225A777B686B
:1018100020229A777B685B6ADAB27B68DA777B682A
:10182000002283F820207B68002283F821207B6837
:10183000002283F822207B68002283F823201BE00B
:101840007B6888221A777B6800225A777B6800229F
:101850009A777B680022DA777B68002283F8202061
:101860007B68002283F821207B68002283F82220F5
:101870007B68002283F823207B68012283F83A20CA
:10188000786800F024FA034618460837BD4680BD44
:1018900080B483B000AF78607B689B68002B02D077
:1018A0007B689B6801E07B685B6818460C37BD4627
:1018B0005DF8047B704780B582B000AF78607B68CC
:1018C0005B6A002B1ED07B6840221A777B680F2250
:1018D0005A777B6821229A777B685B6ADAB27B68E9
:1018E000DA777B68012283F820207B68002283F866
:1018F00021207B68002283F822207B68002283F865
:1019000023201BE07B689C221A777B6800225A7791
:101910007B6800229A777B680022DA777B68002256
:1019200083F820207B68002283F821207B68002236
:1019300083F822207B68002283F823207B681A1D0D
:101940007B681C331946104600F05EFB03461846C0
:101950000837BD4680BD80B582B000AF78607B6837
:101960005B6A002B1BD17B689A221A777B68002266
:101970005A777B6800229A777B680022DA777B6847
:10198000002283F820207B68002283F821207B68D6
:10199000002283F822207B68002283F823207B68C2
:1019A0001A1D7B681C331946104600F02DFB0346B8
:1019B00018460837BD4680BD80B582B000AF78605C
:1019C0007B685B6A002B1BD17B689B221A777B6844
:1019D00000225A777B6800229A777B680022DA77A8
:1019E0007B68002283F820207B68002283F8212076
:1019F0007B68002283F822207B68002283F8232062
:101A00007B681A1D7B681C331946104600F0FCFAEF
:101A1000034618460837BD4680BD80B483B000AF8A
:101A200078607B68DB6A18460C37BD465DF8047B3E
:101A3000704780B483B000AF78607B689B6A1846BB
:101A40000C37BD465DF8047B704780B483B000AFAF
:101A500078607B6893F93B3018460C37BD465DF8DB
:101A6000047B704780B483B000AF78600B46FB7096
:101A70007B68FA7883F8382000BF0C37BD465DF8E4
:101A8000047B704780B483B000AF78600B46FB7076
:101A90007B68FA7883F83B2000BF0C37BD465DF8C1
:101AA000047B704780B586B000AF786039607B6892
:101AB0009B68002B54D17B68DB6A643B3A689A428E
:101AC0001FDA7B68DA6A3B68D31ABB60BB68514A8D
:101AD000934203DD7B68504A9A620BE0BB685A422E
:101AE0007B689A627B689B6A4C4A934202DB7B6804
:101AF0004B4A9A627B689B6A19467868FFF7C3FD78
:101B00002AE07B68DB6A64333A689A4220DD7B68AE
:101B1000DB6A3A68D31AFB60FB683E4A934203DDF6
:101B20007B683C4A9A620CE07B68FA689A627B6840
:101B30009B6A44F61F62934203DC7B6844F6206292
:101B40009A627B689B6A19467868FFF79CFD03E000
:101B500000217868FFF797FD022006F043FD54E06E
:101B60007B68DB6A643B3A689A4221DA7B68DA6A0E
:101B70003B68D31A3B613B6940F6B832934203DDC0
:101B80007B68284A9A620CE03B695A427B689A62F9
:101B90007B689B6A13F1630F03DB7B686FF0630262
:101BA0009A627B689B6A19467868FFF76CFD29E0AA
:101BB0007B68DB6A64333A689A421FDD7B68DB6AC4
:101BC0003A68D31A7B617B6940F6B832934204DDF0
:101BD0007B6840F6B8329A6209E07B687A699A625B
:101BE0007B689B6A632B02DC7B6864229A627B6859
:101BF0009B6A19467868FFF746FD03E00021786884
:101C0000FFF741FD022006F0EDFC002318461837CF
:101C1000BD4680BDA08601006079FEFFE1B1FFFFF7
:101C2000E0B1FFFF48F4FFFF80B582B000AF7860FD
:101C300039607B689B68002B0ED13B6899B27B684A
:101C400034331A46786800F00EF802467B681B6B46
:101C5000D21A7B68DA6202E07B683A68DA6200BF17
:101C60000837BD4680BD80B489B000AFF8600B4630
:101C70007A607B817B89A3F50043BB617B681B682D
:101C8000BA69D31A7B617B6903F500435A429BB260
:101C900092B258BF5342A3F50043FB617B6913F531
:101CA000004F03DAFB6903F58033FB617B681B6837
:101CB000FA6913443B617B683A691A603B6903F532
:101CC000004318462437BD465DF8047B704780B555
:101CD00082B000AF78607B681A1D7B681C331946A0
:101CE000104600F091F9034618460837BD4680BDFE
:101CF00080B485B000AFF860B9607A60FB68BA68FC
:101D00001A60FB687A685A60FB6818461437BD464B
:101D10005DF8047B704780B586B002AF78603960AB
:101D20007B681A687B685B681946104604F03EF8C9
:101D300040F29973019340F2CC6300934FF48773A0
:101D400000223968786800F04DF80346FB607B6834
:101D50005B68002B05D17B681B681B68FA685A63B7
:101D600018E07B685B68042B05D17B681B681B68E7
:101D7000FA689A630EE07B685B68082B05D17B6884
:101D80001B681B68FA68DA6304E07B681B681B68E1
:101D9000FA681A643A687B689A600123184610371B
:101DA000BD4680BD80B483B000AF78607B689B681F
:101DB00018460C37BD465DF8047B704780B582B08D
:101DC00000AF78607B680022DA607B681A687B6805
:101DD0005B681946104604F0B1F80123184608372D
:101DE000BD4680BD80B485B000AFF860B9607A6050
:101DF0003B60BA687B68D31AF969BA698A1A03FB2F
:101E000002F239687B68CB1A92FBF3F2BB69134488
:101E100018461437BD465DF8047B704780B483B024
:101E200000AF0346FB7197F90730002B0BDBFB7902
:101E300003F01F02074997F907305B09012000FAF8
:101E400002F241F8232000BF0C37BD465DF8047B49
:101E5000704700BF00E100E080B483B000AF0346EC
:101E6000FB7197F90730002B12DBFB7903F01F029F
:101E70000A4997F907305B09012000FA02F2203382
:101E800041F82320BFF34F8F00BFBFF36F8F00BF18
:101E900000BF0C37BD465DF8047B704700E100E0F1
:101EA00080B582B000AF7860104B1B78DBB2012B9D
:101EB0000CBF01230023DBB2002B06D00B4B00220A
:101EC0001A700B4800F016F80CE0084B1B78DBB2D8
:101ED000022B0CBF01230023DBB2002B02D0034BEB
:101EE00000221A70012006F07DFBDDE7B01C002007
:101EF000DC1C002090B585B000AF78601420FFF79F
:101F0000ABFF3C4B9B68002B48D10023FB60FB6878
:101F1000012B66DC374B1C68374AFB6852F82330CC
:101F20001846FFF7B5FC03469C420CBF0123002373
:101F3000DBB2002B2ED0314B1B789C2B1BD12E4AB1
:101F4000FB6852F823302E4A128811461846FFF7D4
:101F50006BFE294AFB6852F82330284A527852B265
:101F600011461846FFF77EFD234AFB6852F82330DE
:101F700000221A600EE0214B1B789A2B0AD11E4AD0
:101F8000FB6852F823301D4AD27952B211461846E6
:101F9000FFF778FDFB680133FB60B8E7154B5B6822
:101FA000184A93421DD1144B9B6800221A60134BB0
:101FB0001B78602B12D1104B9B68104A927952B259
:101FC00011461846FFF74EFD0B4BDB680B4AD279E2
:101FD00052B211461846FFF745FD02E0074B5B7809
:101FE0000D2B1420FFF71AFF012318461437BD46A6
:101FF00090BD00BFB41C0020E41D0020D01C0020B8
:10200000D61C00200100800580B582B000AF78604A
:1020100039607B685B68002B03D17B681B68002BF1
:102020001BD0104801F05FFE0346002B0CBF0123BC
:102030000023DBB2002B00D0F3E70B4B3A68796842
:10204000084801F075FD0346002B14BF012300234F
:10205000DBB2002B01D0002300E001231846083733
:10206000BD4680BD4C000020D81C002080B582B049
:1020700000AF78600B4B0C4A0021786801F068FED5
:102080000346002B14BF01230023DBB2002B01D039
:10209000FEF7B0FD054B01221A7000BF0837BD46A0
:1020A00080BD00BFD01C0020B41C0020B01C00204C
:1020B00080B483B000AF7860044B02221A7000BF76
:1020C0000C37BD465DF8047B704700BFB01C002094
:1020D00080B584B000AF7860834B844A1A60824B2D
:1020E000834A5A60804B834A9A607F4B824ADA6007
:1020F00000F008F90023FB607C48FFF7DCFB0220BE
:1021000006F070FA7A48FFF7D6FB022006F06AFA6A
:102110007848FFF7D0FB022006F064FA774B1B6982
:1021200019467448FFF780FD744BDB78FB72FB7A2D
:10213000002B63D0FB7A012B21D1714B5B681946D0
:102140006A48FFF7AFFC6948FFF773FC0346002BB2
:102150000CBF01230023DBB2002B06D06448FFF73D
:10216000FAFA664B0022DA7038E06048FFF761FC4B
:1021700003465B4219465E48FFF785FA2EE0FB7A7C
:10218000022B14D15E4B9B6819465A48FFF78AFC14
:102190005848FFF74EFC0346002B0CBF01230023D9
:1021A000DBB2002B1AD0554B0022DA7016E0FB7A16
:1021B000032B13D1524BDB6819464F48FFF772FCD3
:1021C0004D48FFF736FC0346002B0CBF01230023CC
:1021D000DBB2002B02D0494B0022DA70FB7A072BCE
:1021E00001D100F0BBF8FB7A082B37D100F0B6F82C
:1021F00000F088F8414B0022DA702FE03B48FFF7EF
:10220000AAFB022006F0EEF93948FFF7A4FB0220F2
:1022100006F0E8F93548FFF718FC0346002B14BF19
:1022200001230023DBB2002B05D03048FFF7C4FBAD
:10223000022006F0D7F92E48FFF707FC0346002BD3
:1022400014BF01230023DBB2002B05D02848FFF781
:10225000B3FB022006F0C6F900F080F801F018FA8E
:102260000246FB68D31AB3F57A7F8CBF01230023A3
:10227000DBB2002B34D01D4B1B6801331B4A1360AB
:102280001A4B1B68032B05DD1C4A137A43F001032C
:10229000137204E0194A137A6FF300031372154B9B
:1022A0001B680133134A1360124B1B68032B0ADDB2
:1022B000124A137A43F002031372104A137A43F05E
:1022C0000403137209E00D4A137A6FF3410313728A
:1022D0000A4A137A6FF38203137201F0D9F9F86096
:1022E000012006F07FF907E7E41D0020E41C002030
:1022F000241D0020641D0020A41D00207400002067
:102300008C00002080B500AF052006F06BF9104866
:10231000FFF752FB052006F065F90E48FFF74CFB6E
:10232000052006F05FF90A48FFF763FA052006F07A
:1023300059F90848FFF75DFA052006F053F90648F9
:10234000FFF757FA052006F04DF900BF80BD00BF2A
:10235000E41C0020241D0020641D002080B500AF77
:10236000022006F03FF90A48FFF7F5F9022006F0CF
:1023700039F90848FFF7EFF9022006F033F906486B
:10238000FFF7E9F9052006F02DF900BF80BD00BF79
:10239000E41C0020241D0020641D002080B582B0B4
:1023A00000AF786039607B68012B1CD13B684FF629
:1023B000FF72934217D10E4A40F241110D48FFF7C8
:1023C0004FF90B4A4FF4A1710B48FFF749F9084B3D
:1023D00001220A490A48FFF72FF9054B0222074953
:1023E0000848FFF729F900BF0837BD4680BD00BF88
:1023F00074000020E41C0020241D002001000006C1
:10240000641D0020A41D002080B500AF4FF6FF71B1
:102410000120FFF7C3FF80BD80B582B000AF7860B8
:10242000694B1B685B6A1A46684B1A60674B1B68EE
:102430009BB26749184600F0D9F80346654A136015
:10244000644B1B68644A1361644B1B6903F40053BB
:10245000002B05D0604A93796FF30003937104E079
:102460005D4A937943F0010393715D4B1B6903F05F
:102470004003002B05D0584A93796FF341039371C1
:1024800004E0554A937943F002039371544B1B695E
:1024900003F02003002B05D04F4A93796FF382039A
:1024A000937104E04C4A937943F0040393714C4BCD
:1024B0001B6903F01003002B05D0474A93796FF393
:1024C000C303937104E0444A937943F00803937182
:1024D000434B1B6903F00803002B05D03E4A937958
:1024E0006FF30413937104E03B4A937943F01003B4
:1024F00093713B4B1B6903F00403002B05D0364A54
:1025000093796FF34513937104E0334A937943F061
:1025100020039371324B1B6903F00203002B05D09B
:102520002D4A93796FF38613937104E02A4A9379C5
:1025300043F0400393712B4B1B6903F02003002BE6
:1025400005D0254A93796FF3C713937104E0224AAB
:10255000937943F080039371224B1B6903F01003BE
:10256000002B05D01C4AD3796FF30003D37104E02C
:10257000194AD37943F00103D3711A4B1B6903F055
:102580000803002B05D0144AD3796FF34103D371AC
:1025900004E0114AD37943F00203D371124B1B6953
:1025A00003F08003002B05D00B4AD3796FF382032D
:1025B000D37104E0084AD37943F00403D3710120B6
:1025C00006F010F82CE700BF7C1A0020F81D002050
:1025D000F41D0020FC1D00207400002000080240B3
:1025E0000010024000040240000C024080B487B09A
:1025F00000AF03463960FB80FB88A3F500433B61D5
:102600003B681B683A69D31AFB60FB6803F500431B
:102610005A429BB292B258BF5342A3F500437B612A
:10262000FB6813F5004F03DA7B6903F580337B61A8
:102630003B681B687A691344BB603B68BA681A60E0
:10264000BB6803F5004318461C37BD465DF8047BA4
:10265000704780B582B000AF78604FF47A7005F0B3
:10266000C1FFFAE780B582B000AF7860074802F09A
:10267000A8FD00F00FF8064B5B79002B01D000F0AD
:1026800013F9052005F0AEFFF0E700BFE0190020C8
:102690007400002080B582B000AF7B4BDB78042B48
:1026A0005DD1794B1B7A03F00803DBB2002B56D1C6
:1026B000764B1B69012B13D1734B9B7903F00403F9
:1026C000DBB2002B0CD1724B4FF480129A61704B2D
:1026D00020229A6100F0DCFF03466E4A136005E099
:1026E0006B4B10229A61684B0022DA70674B1B69B2
:1026F000022B13D1644B9B7903F00803DBB2002B50
:102700000CD1634B10229A61614B4FF400129A6115
:1027100000F0BEFF03465F4A136005E05C4B2022D9
:102720009A61594B0022DA7000F0B2FF0246594B11
:102730001B68D31AB3F5FA5F8CBF01230023DBB209
:10274000002B00F09D80504A137A43F00803137267
:102750004F4B10229A614E4B20229A6190E04E4BD3
:102760001B88002B31D14A4B10229A61484B202202
:102770009A614A4B4FF000729A61642005F032FF73
:10278000464B4FF080629A61142005F02BFF434BBB
:102790004FF400729A61642005F024FF3F4B4FF024
:1027A00000629A61142005F01DFF3C4B4FF48062DB
:1027B0009A61642005F016FF384B4FF400629A616D
:1027C0004FF4967005F00EFF5AE0314B10229A61DB
:1027D0002F4B20229A61324B4FF080429A61642045
:1027E00005F000FF2E4B4FF000429A61142005F0D7
:1027F000F9FE2B4B4FF480429A61642005F0F2FE03
:10280000284B4FF400329A61142005F0EBFE244B64
:102810004FF400429A61642005F0E4FE214B02224D
:102820009A611E2005F0DEFE14237B607B68002B7E
:102830001DDD174B4FF480729A61184B4FF0807278
:102840009A617B685B00184605F0CCFE104B4FF098
:1028500080729A61114B4FF480729A617B685B00C1
:10286000184605F0BFFE7B68013B7B60DEE7084B46
:102870004FF480729A614FF4FA7005F0B3FEFFE7EF
:1028800000BF0837BD4680BD740000208C000020CA
:1028900000000240001E00207C000020000C0240CE
:1028A000001002400008024080B582B000AF1A4B11
:1028B0005B791A46194B53F822301A46184B1A60A6
:1028C000154B5B791A46174B53F822301A46164BB4
:1028D0001A6000237B60124B1B687A689A4214DAF4
:1028E000114B1B68184605F07DFE104B4FF480120B
:1028F0009A610D4B1B68184605F074FE0B4B1022B5
:102900009A617B6801337B60E5E7034B00225A71D3
:1029100000BF0837BD4680BD7400002030B10008FC
:10292000081E002018B10008041E00200008024004
:1029300080B584B000AF7860194B1A4A1A60184B02
:10294000194A5A60194BDB78FB73FB7B052B10D1BE
:10295000174B5B6919461348FFF7DDF94FF44870D0
:1029600005F040FE0F48FFF729FA104B0022DA70FD
:1029700012E0FB7B062B0FD10D4B9B6919460A48D1
:10298000FFF7C9F94FF4487005F02CFE0648FFF731
:1029900015FA064B0022DA700A2005F023FED1E773
:1029A0002C1E00200C1E00201C1E00207400002085
:1029B0008C00002080B582B000AF786039607B6801
:1029C000012B0ED13B684FF6FF72934209D10022D2
:1029D00006490748FFF78CF9042204490548FFF728
:1029E00087F900BF0837BD4680BD00BF341A0020FC
:1029F0000C1E00201C1E002080B500AF4FF6FF719A
:102A00000120FFF7D7FF80BDB0B584B000AF78607C
:102A1000644B1B78002B6FD0634B1B78842B68D1E1
:102A2000614B5B78532B64D15F4B9B78FB73FB7BD3
:102A3000012B1ED15C4B93F8334033215A4800F0F0
:102A400093FC03469C4214BF01230023DBB2002BFE
:102A50000CD0564B1B790133DAB2544B1A716423F4
:102A600005225349534804F0B4FA3FE000F0B8F8A7
:102A70003CE0FB7B022B33D14B4BDC7F1F214A48D0
:102A800000F072FC03469C4214BF01230023DBB21A
:102A9000002B06D0454B1B790133DAB2434B1A7138
:102AA00024E0424BDB78002B07D03F4BDB78072B31
:102AB00003D03D4BDB78082B0DD13F4A3A4B1446EF
:102AC0001D460FCD0FC495E80F0084E80F003A4B68
:102AD000DA78364BDA7000F0EFF800F081F805E0B4
:102AE000324B1B790133DAB2304B1A712D4B002275
:102AF0001A70022005F076FD304B1B78002B07D0B2
:102B00002E4B00221A702E4B00221A7000F0ECF8A7
:102B100000F0BEFD02462B4B1B68D31AB3F57A7F3B
:102B20008CBF01230023DBB2002B3FF471AF264B97
:102B30001B78002B09D164230D222449244804F07A
:102B400048FA214B01221A7010E0224B1B78002B0F
:102B500006D064230D221D491D4804F03AFA05E011
:102B6000642307221C491A4804F033FA00F090FD50
:102B70000346144A1360124B1B780133DAB2104B30
:102B80001A700F4B1B78052B7FF642AF074B0022C4
:102B90005A750D4B00221A70104B002283F84C20FE
:102BA00036E700BF841E0020501F00207400002064
:102BB000C0AF0008C41A00208C000020861E002030
:102BC000B81F0020B41F0020B91F002014000020EF
:102BD000081B0020BA1F002004000020341E002023
:102BE00080B500AF2F4B84221A702E4B53225A709F
:102BF0002C4B01229A702C4BDA782A4BDA702B4B33
:102C00001B681846FEF709FF0346264A5360274B08
:102C10009B681846FEF701FF0346224A9360234B48
:102C2000DB681846FEF7F9FE03461E4AD360204BC8
:102C30001B681846FFF7B6F803461A46194B5A6147
:102C40001B4B5B681846FFF7ADF803461A46154B59
:102C50009A61154B5A7D134B83F82E20114A124B63
:102C6000DB8813850F4A104B1B8953850E4B1B794C
:102C70001A460C4B5A620B4B1B6A0133094A13620A
:102C80003321084800F070FB03461A46054B83F8D1
:102C90003320642334220349064804F09AF900BF24
:102CA00080BD00BFAC00002074000020E41D0020A7
:102CB0002C1E0020C41A002080B400AF074BDB7824
:102CC000082B05D1064B00221A80064B0822DA7029
:102CD00000BFBD465DF8047B704700BF8C0000203C
:102CE0007C0000207400002080B582B000AF874BCC
:102CF0001B78DD2B03D1864B00221A7006E0834B34
:102D00001B78A52B02D1824B01221A70804B1B78B5
:102D1000002B00F09F817D4B9B78BB71BB79902B82
:102D200033D17C4B012283F84C20784B1B799BB22A
:102D30001B029AB2754B5B799BB213449AB2754BE6
:102D40009A80724B1B7A9BB21B029AB26F4B5B7AD2
:102D50009BB213449BB21AB26E4BDA806B4B9B7AD8
:102D60009BB21B029AB2694BDB7A9BB213449AB2B4
:102D7000684B5A83674B5B8B674AA2FB0323DB08D4
:102D80009BB2DAB2654B5A7546E1BB79912B18D1EB
:102D90005E4B1B799BB21B029AB25C4B5B799BB278
:102DA00013449AB25B4B1A85584BDB799BB21B02DA
:102DB0009AB2564B1B7A9BB213449AB2554B5A8522
:102DC0002AE1BB79922B00F02781BB79932B11D19B
:102DD0004E4B1B7A1A064D4B5B7A1B041A444B4B25
:102DE0009B7A1B021344494AD27A13441A46494B30
:102DF0009A6011E1BB79942B08D1444B1A79454B69
:102E00009A77424B5A79434BDA7705E1BB79952B98
:102E100040F0F5803D4B1B79012B24D13B4B5B7976
:102E20009BB21B029AB2394B9B799BB213449AB264
:102E3000384B9A85354BDB799BB21B029AB2334BE8
:102E40001B7A9BB213449AB2324BDA852F4B5B7AD2
:102E50009BB21B029AB22D4B9B7A9BB213449AB23F
:102E60002C4B1A86C4E0294B1B79022B24D1274B0B
:102E70005B799BB21B029AB2244B9B799BB21344A1
:102E80009AB2244B5A86214BDB799BB21B029AB231
:102E90001E4B1B7A9BB213449AB21E4B9A861B4B55
:102EA0005B7A9BB21B029AB2184B9B7A9BB213447B
:102EB0009AB2184BDA869BE0144B1B79032B2FD167
:102EC000124B5B799BB21B029AB2104B9B799BB25F
:102ED00013449AB20F4B1A870C4BDB799BB21B023F
:102EE0009AB20A4B1B7A9BB213449AB2094B5A8787
:102EF000064B5B7A9BB21B029AB2044B9B7A9BB245
:102F000013449AB2034B9A8772E000BFEC1E002074
:102F1000BA1F0020341E0020CDCCCCCC7400002081
:102F2000494B1B79042B26D1474B5B799BB21B0283
:102F30009AB2454B9B799BB213449AB2434BDA87C2
:102F4000414BDB799BB21B029AB23F4B1B7A9BB27F
:102F500013449AB23D4BA3F840203B4B5B7A9BB2A3
:102F60001B029AB2384B9B7A9BB213449AB2374BEE
:102F7000A3F842203CE0344B1B79052B27D1324B80
:102F80005B799BB21B029AB22F4B9B799BB2134485
:102F90009AB22E4BA3F844202B4BDB799BB21B0239
:102FA0009AB2294B1B7A9BB213449AB2274BA3F8CF
:102FB0004620254B5B7A9BB21B029AB2224B9B7A2E
:102FC0009BB213449AB2214BA3F8482010E01E4B49
:102FD0001B79062B0CD11C4B5B799BB21B029AB25E
:102FE000194B9B799BB213449AB2184BA3F84A2011
:102FF000174B95229A70164B82221A730CE0BB79FC
:10300000962B09D1104B5B799AB2104B1A840E4B58
:103010009B799AB20D4B5A840D4B9B780133DAB2EF
:103020000B4B9A700A4B1B7B0133DAB2084B1A73B5
:10303000074B9B78962B40F28E81054B90229A701D
:10304000034B7D221A7386E1EC1E0020341E002003
:1030500014000020514B5B78FB71FB79032B40F08F
:10306000A7804F4B022283F84C204C4B1B799BB21C
:103070001B029AB2494B5B799BB213449AB2484BFC
:103080009A80474B0022DA80444B1B7A1B02434A4A
:10309000527A13441A46424B9A60404B9B7A9BB239
:1030A0001B029AB23D4BDB7A9BB213449AB23C4B63
:1030B0009A813A4B1B7B9BB21B029AB2374B5B7BCC
:1030C0009BB213449AB2364B1A82344B9B7B9BB211
:1030D0001B029AB2314BDB7B9BB213449AB2304B4A
:1030E0005A822E4B1B7C9BB21B029AB22B4B5B7CF1
:1030F0009BB213449AB22A4B9A82284B9B7C9BB278
:103100001B029AB2254BDB7C9BB213449AB2244B30
:10311000DA82224B1B7D9BB21B029AB21F4B5B7D56
:103120009BB213449AB21E4B1A831C4B9A7D1C4BC4
:103130001A771A4BDB7D9AB2194B5A83174B1A7EBA
:10314000174B5A77154B5A7E154B9A77134B9A7E2D
:10315000134BDA77114BDB7E9BB21B029AB20F4BFB
:103160001B7F9BB213449AB20D4B1A840B4B5B7FAF
:103170009BB21B029AB2094B9B7F9BB213449AB23B
:10318000074B5A84064B5B8BDAB2064B5A756423A5
:1031900007220549054803F01CFFDCE0EC1E002077
:1031A000341E0020740000200C000020081B0020AA
:1031B000FB79042B40F0CF80694BDA78694B83F8B8
:1031C0002420674B1B799BB21B029AB2644B5B793C
:1031D0009BB213449AB2634B9A85614B9B799BB225
:1031E0001B029AB25E4BDB799BB213449AB25D4BE1
:1031F000DA855B4B1B7A9BB21B029AB2584B5B7A07
:103200009BB213449AB2574B1A86554B9B7A9BB28A
:103210001B029AB2524BDB7A9BB213449AB2514BC7
:103220005A864F4B1B7B9BB21B029AB24C4B5B7B6B
:103230009BB213449AB24B4B9A86494B9B7B9BB2F1
:103240001B029AB2464BDB7B9BB213449AB2454BAE
:10325000DA86434B1B7C9BB21B029AB2404B5B7CD1
:103260009BB213449AB23F4B1A873D4B9B7C9BB257
:103270001B029AB23A4BDB7C9BB213449AB2394B95
:103280005A87374B1B7D9BB21B029AB2344B5B7D36
:103290009BB213449AB2334B9A87314B9B7D9BB2BE
:1032A0001B029AB22E4BDB7D9BB213449AB22D4B7C
:1032B000DA872B4B1B7E9BB21B029AB2284B5B7E9C
:1032C0009BB213449AB2274BA3F84020244B9B7E19
:1032D0009BB21B029AB2224BDB7E9BB213449AB282
:1032E000204BA3F842201E4B1B7F9BB21B029AB2BD
:1032F0001B4B5B7F9BB213449AB21A4BA3F844203A
:10330000174B9B7F9BB21B029AB2154BDB7F9BB284
:1033100013449AB2134BA3F84620114B93F8203074
:103320009BB21B029AB20E4B93F821309BB213440E
:103330009AB20C4BA3F84820094B93F822309BB269
:103340001B029AB2064B93F823309BB213449AB2F5
:10335000044BA3F84A2000BF0837BD4680BD00BF1C
:10336000EC1E0020341E002080B485B000AF7860D1
:1033700039600023FB730023BB60BA683B689A4244
:103380000ADABB687A6813441A78FB7B1344FB7330
:10339000BB680133BB60F0E7FB7B18461437BD46C2
:1033A0005DF8047B7047000080B588B000AF78609E
:1033B000786804F0B1F9F861FB69013B0F2B63D821
:1033C00001A252F823F000BF093400082734000896
:1033D000893400084534000889340008893400081D
:1033E00089340008633400088934000889340008EF
:1033F00089340008893400088934000889340008B9
:1034000089340008813400080023BB617B681B6895
:103410001B68BB617B681B685B68BB61BB697B68C1
:1034200000221A6431E000237B617B681B681B6803
:103430007B617B681B685B687B617B697B680022C2
:103440001A6422E000233B617B681B681B683B61B8
:103450007B681B685B683B613B697B6800221A6480
:1034600013E00023FB607B681B681B68FB607B68C4
:103470001B685B68FB60FB687B6800221A6404E0E1
:103480007B6800221A6400E000BF7B681B68214A49
:10349000934210D1204B01221A7064221F49204808
:1034A00003F029FE1F4B1B681A681E4B1B6822F095
:1034B00008021A602AE07B681B681B4A934210D1FD
:1034C0001A4B00221A70642219491A4803F013FE9D
:1034D000194B1B681A68184B1B6822F008021A6007
:1034E00014E07B681B68154A93420FD1144B0022ED
:1034F0001A7064221349144803F0FDFD134B1B6836
:103500001A68124B1B6822F008021A6000BF2037AD
:10351000BD4680BD00100140841E0020501F0020C9
:10352000C41A0020901B002000440040861E00208A
:10353000EC1E0020081B0020F01B0020004800406B
:10354000851E0020881E00204C1B0020501C0020DF
:1035500080B582B000AF78600B467B807B681B68CB
:10356000214A934210D1214B01221A706422204932
:10357000204803F0C0FD204B1B681A681E4B1B68D7
:1035800022F008021A602AE07B681B681B4A9342FB
:1035900010D11B4B01221A7064221A491A4803F0F9
:1035A000AAFD1A4B1B681A68184B1B6822F0080208
:1035B0001A6014E07B681B68154A93420FD1154BC3
:1035C00001221A7064221449144803F094FD144B2C
:1035D0001B681A68124B1B6822F008021A6000BFB1
:1035E0000837BD4680BD00BF00100140841E00208A
:1035F000501F0020C41A0020901B002000440040EF
:10360000861E0020EC1E0020081B0020F01B00205E
:1036100000480040851E0020881E00204C1B002012
:10362000501C002080B500AF0E4B1B680D4A43F4C0
:10363000007313600B4B1B680A4A43F480631360EA
:10364000084B1B68074A43F480731360032000F0A3
:103650008AFF0F20FDF700FBFDF7D2FA0023184682
:1036600080BD00BF003C024080B400AF064B1B7819
:103670001A46064B1B681344044A136000BFBD463C
:103680005DF8047B704700BF28000020BC1F0020AD
:1036900080B400AF034B1B681846BD465DF8047B41
:1036A000704700BFBC1F002080B584B000AF7860B9
:1036B000FFF7EEFFB8607B68FB60FB68B3F1FF3F8C
:1036C00005D00A4B1B781A46FB681344FB6000BF09
:1036D000FFF7DEFF0246BB68D31AFA689A42F7D8B2
:1036E00000BF00BF1037BD4680BD00BF28000020CE
:1036F00080B584B000AF78607B68002B01D10123D6
:10370000EDE07B6893F82030DBB2002B02D17868C3
:10371000FCF748FF7B681B681A687B681B6842F0EF
:1037200001021A60FFF7B4FFF86012E0FFF7B0FF84
:103730000246FB68D31A0A2B0BD97B685B6A43F4F9
:1037400000327B685A627B68052283F820200123BF
:10375000C5E07B681B685B6803F00103002BE5D0C4
:103760007B681B681A687B681B6822F002021A607B
:10377000FFF78EFFF86012E0FFF78AFF0246FB6852
:10378000D31A0A2B0BD97B685B6A43F400327B683F
:103790005A627B68052283F8202001239FE07B6822
:1037A0001B685B6803F00203002BE5D17B681B7E7E
:1037B000012B08D17B681B681A687B681B6842F084
:1037C00080021A6007E07B681B681A687B681B68C8
:1037D00022F080021A607B685B7E012B08D17B6837
:1037E0001B681A687B681B6842F040021A6007E099
:1037F0007B681B681A687B681B6822F040021A60AD
:103800007B689B7E012B08D17B681B681A687B68EC
:103810001B6842F020021A6007E07B681B681A6888
:103820007B681B6822F020021A607B68DB7E012B1C
:1038300008D17B681B681A687B681B6822F010023D
:103840001A6007E07B681B681A687B681B6842F097
:1038500010021A607B681B7F012B08D17B681B68F4
:103860001A687B681B6842F008021A6007E07B68F0
:103870001B681A687B681B6822F008021A607B6864
:103880005B7F012B08D17B681B681A687B681B680B
:1038900042F004021A6007E07B681B681A687B68C4
:1038A0001B6822F004021A607B689A687B68DB68F8
:1038B0001A437B681B691A437B685B6942EA030110
:1038C0007B685B685A1E7B681B680A43DA617B6809
:1038D00000225A627B68012283F8202000231846C8
:1038E0001037BD4680BD000080B487B000AF78605F
:1038F00039607B681B687B617B6893F82030FB74C0
:10390000FB7C012B03D0FB7C022B40F0BE80654B7F
:103910007B617B69D3F8003243F001027B69C3F815
:1039200000227B69D3F8003223F47C527B69C3F810
:1039300000227B69D3F800223B685B6A1B021A43B2
:103940007B69C3F800223B685B6903F01F03012217
:1039500002FA03F3FB607B69D3F81C22FB68DB43AC
:103960001A407B69C3F81C223B68DB69002B23D11A
:103970007B69D3F80C22FB68DB431A407B69C3F8F0
:103980000C223B68DB6819043B685B689BB23A68B1
:10399000526919437B69483243F832103B689B688F
:1039A00019043B681B689AB23B685B690A437969F2
:1039B0004833DB000B445A603B68DB69012B22D1A2
:1039C0007B69D3F80C22FB681A437B69C3F80C228D
:1039D0003B681B6819043B685B689BB23A68526994
:1039E00019437B69483243F832103B689B681904DD
:1039F0003B68DB689AB23B685B690A437969483384
:103A0000DB000B445A603B689B69002B09D17B6942
:103A1000D3F80422FB68DB431A407B69C3F8042215
:103A200007E07B69D3F80422FB681A437B69C3F87B
:103A300004223B681B69002B09D17B69D3F814224F
:103A4000FB68DB431A407B69C3F8142207E07B69FB
:103A5000D3F81422FB681A437B69C3F814223B682D
:103A60001B6A012B07D17B69D3F81C22FB681A4320
:103A70007B69C3F81C227B69D3F8003223F0010272
:103A80007B69C3F80022002306E07B685B6A43F48D
:103A900080227B685A62012318461C37BD465DF8B8
:103AA000047B70470064004080B584B000AF78604C
:103AB0007B6893F82030DBB2012B2ED17B68022289
:103AC00083F820207B681B681A687B681B6822F0DB
:103AD00001021A60FFF7DCFDF86012E0FFF7D8FD85
:103AE0000246FB68D31A0A2B0BD97B685B6A43F446
:103AF00000327B685A627B68052283F8202001230C
:103B000012E07B681B685B6803F00103002BE5D1C2
:103B10007B6800225A62002306E07B685B6A43F4FC
:103B200000227B685A62012318461037BD4680BDCB
:103B300080B489B000AFF860B9607A603B60FB6820
:103B400093F82030FB77FB681B689B68BB61FB7FA9
:103B5000012B03D0FB7F022B40F0B880BB6903F040
:103B60008063002B0AD1BB6903F00063002B05D1F1
:103B7000BB6903F08053002B00F0A080BB691B0ED3
:103B800003F003037B617B69022B07D9FB685B6A47
:103B900043F40002FB685A6201239EE001227B6924
:103BA0009A403B681A60BB689B68002B0DD1BB68CC
:103BB0001B685A05BB68DB68F96809681A437B69AA
:103BC00018331B010B441A600FE0BB685B68DA0016
:103BD000BB689B681A43BB68DB68F96809681A43CD
:103BE0007B6918331B010B441A60FB681968BB68BA
:103BF0001A697B6918331B010B4404331A60BB68D4
:103C00001B7D012B11D1FB681A687B6918331B01DE
:103C1000134404331B68FA68116843F480727B69AB
:103C200018331B010B4404331A607B6807331B787D
:103C30001A067B6806331B781B041A437B6805331E
:103C40001B781B0213437A68043212781046FA6814
:103C5000116843EA00027B691B010B4403F5C6733C
:103C60001A607B6803331B781A067B6802331B7863
:103C70001B041A437B6801331B781B0213437A68C9
:103C800012781046FA68116843EA00027B691B014A
:103C90000B4403F5C4731A60FB681A687B69183318
:103CA0001B0113441B68FA68116843F001027B6929
:103CB00018331B010B441A6000230EE0FB685B6A9B
:103CC00043F40012FB685A62012306E0FB685B6A5A
:103CD00043F48022FB685A62012318462437BD460C
:103CE0005DF8047B704780B485B000AF7860002336
:103CF000FB607B6893F82030FB72FB7A012B02D0CB
:103D0000FB7A022B1DD17B681B689B6803F08063E4
:103D1000002B02D0FB680133FB607B681B689B684B
:103D200003F00063002B02D0FB680133FB607B686B
:103D30001B689B6803F08053002B02D0FB680133A3
:103D4000FB60FB6818461437BD465DF8047B70477E
:103D500080B487B000AFF860B9607A603B60FB6800
:103D600093F82030FB75FB7D012B03D0FB7D022BEC
:103D700040F0F380BB68002B0ED1FB681B68DB684A
:103D800003F00303002B16D1FB685B6A43F40012B7
:103D9000FB685A620123E7E0FB681B681B6903F0BC
:103DA0000303002B07D1FB685B6A43F40012FB6836
:103DB0005A620123D8E0FB681A68BB681B331B01F9
:103DC00013441B6803F004027B689A607B689B685D
:103DD000002B0CD1FB681A68BB681B331B01134412
:103DE0001B685B0DC3F30A027B681A600BE0FB687B
:103DF0001A68BB681B331B0113441B68DB0823F0E4
:103E000060427B685A60FB681A68BB681B331B0101
:103E100013441B6803F002027B68DA60FB681A68CF
:103E2000BB681B331B01134404331B6803F00F02F0
:103E30007B681A61FB681A68BB681B331B0113445B
:103E400004331B681B0ADAB27B689A61FB681A6844
:103E5000BB681B331B01134404331B681B0C9AB251
:103E60007B685A61FB681A68BB681B01134403F541
:103E7000DC731B68DAB23B681A70FB681A68BB68AF
:103E80001B01134403F5DC731B681A0A3B680133FA
:103E9000D2B21A70FB681A68BB681B01134403F5A1
:103EA000DC731B681A0C3B680233D2B21A70FB68D1
:103EB0001A68BB681B01134403F5DC731B681A0EF8
:103EC0003B680333D2B21A70FB681A68BB681B01E7
:103ED000134403F5DE731A683B680433D2B21A70D8
:103EE000FB681A68BB681B01134403F5DE731B688B
:103EF0001A0A3B680533D2B21A70FB681A68BB68AD
:103F00001B01134403F5DE731B681A0C3B68063370
:103F1000D2B21A70FB681A68BB681B01134403F520
:103F2000DE731B681A0E3B680733D2B21A70BB6887
:103F3000002B08D1FB681B68DA68FB681B6842F03D
:103F40002002DA6007E0FB681B681A69FB681B68DF
:103F500042F020021A61002306E0FB685B6A43F42A
:103F60008022FB685A62012318461C37BD465DF863
:103F7000047B704780B485B000AF786039607B689F
:103F800093F82030FB73FB7B012B02D0FB7B022BD1
:103F900009D17B681B6859697B681B683A680A43CA
:103FA0005A61002306E07B685B6A43F480227B68E9
:103FB0005A62012318461437BD465DF8047B7047EA
:103FC00080B58AB000AF786000237B627B681B6895
:103FD0005B693B627B681B685B68FB617B681B6895
:103FE0009B68BB617B681B68DB687B617B681B68C7
:103FF0001B693B617B681B689B69FB603B6A03F044
:104000000103002B7CD0BB6903F00103002B23D0FC
:104010007B681B6801229A60BB6903F00203002BD6
:1040200003D0786800F083F916E0BB6903F004035D
:10403000002B04D07B6A43F400637B620CE0BB6915
:1040400003F00803002B04D07B6A43F480537B62A7
:1040500002E0786800F089F9BB6903F48073002BF3
:1040600024D07B681B684FF480729A60BB6903F4AC
:104070000073002B03D0786800F063F916E0BB6989
:1040800003F48063002B04D07B6A43F400537B620B
:104090000CE0BB6903F40063002B04D07B6A43F49B
:1040A00080437B6202E0786800F069F9BB6903F441
:1040B0008033002B24D07B681B684FF480329A60D9
:1040C000BB6903F40033002B03D0786800F043F998
:1040D00016E0BB6903F48023002B04D07B6A43F411
:1040E00000437B620CE0BB6903F40023002B04D087
:1040F0007B6A43F480337B6202E0786800F049F920
:104100003B6A03F00803002B0CD07B6903F010031B
:10411000002B07D07B6A43F400737B627B681B68CB
:104120001022DA603B6A03F00403002B0BD07B699A
:1041300003F00803002B06D07B681B680822DA60B6
:10414000786800F030F93B6A03F00203002B09D0D5
:104150007B681B68DB6803F00303002B02D07868E0
:10416000FDF784FF3B6A03F04003002B0CD03B6952
:1041700003F01003002B07D07B6A43F480637B625B
:104180007B681B6810221A613B6A03F02003002B36
:104190000BD03B6903F00803002B06D07B681B683B
:1041A00008221A61786800F012F93B6A03F01003E4
:1041B000002B09D07B681B681B6903F00303002BED
:1041C00002D0786800F0F9F83B6A03F40033002B62
:1041D0000BD0FB6903F01003002B06D07B681B6833
:1041E00010225A60786800F0FCF83B6A03F48033D0
:1041F000002B0BD0FB6903F00803002B06D07B6873
:104200001B6808225A60786800F0F5F83B6A03F4EE
:104210000043002B7BD0FB6903F00403002B72D01A
:104220003B6A03F48073002B08D0FB6803F00103A2
:10423000002B03D07B6A43F001037B623B6A03F4EB
:104240000073002B08D0FB6803F00203002B03D09F
:104250007B6A43F002037B623B6A03F48063002BBA
:1042600008D0FB6803F00403002B03D07B6A43F003
:1042700004037B623B6A03F40063002B43D0FB68BA
:1042800003F07003002B3ED0FB6803F07003602B3B
:104290002BD0602B2ED8502B22D0502B2AD8402B3D
:1042A00019D0402B26D8302B10D0302B22D8102BF1
:1042B00002D0202B05D01DE07B6A43F008037B620F
:1042C00019E07B6A43F010037B6214E07B6A43F0E1
:1042D00020037B620FE07B6A43F040037B620AE0CD
:1042E0007B6A43F080037B6205E07B6A43F4807362
:1042F0007B6200E000BF7B681B689A697B681B6873
:1043000022F070029A617B681B6804225A607B6A03
:10431000002B08D07B685A6A7B6A1A437B685A6212
:104320007868FDF7C5FE00BF2837BD4680BD80B464
:1043300083B000AF786000BF0C37BD465DF8047BEA
:10434000704780B483B000AF786000BF0C37BD46C3
:104350005DF8047B704780B483B000AF786000BF25
:104360000C37BD465DF8047B704780B483B000AF66
:10437000786000BF0C37BD465DF8047B704780B4A1
:1043800083B000AF786000BF0C37BD465DF8047B9A
:10439000704780B483B000AF786000BF0C37BD4673
:1043A0005DF8047B704780B483B000AF786000BFD5
:1043B0000C37BD465DF8047B704780B483B000AF16
:1043C000786000BF0C37BD465DF8047B704780B451
:1043D00083B000AF786000BF0C37BD465DF8047B4A
:1043E000704780B483B000AF786000BF0C37BD4623
:1043F0005DF8047B704780B483B000AF786000BF85
:104400000C37BD465DF8047B7047000080B485B072
:1044100000AF78607B6803F00703FB600C4BDB6840
:10442000BB60BA684FF6FF031340BB60FB681A021B
:10443000BB68134343F0BF6343F40033BB60044ADB
:10444000BB68D36000BF1437BD465DF8047B70477E
:1044500000ED00E080B400AF044BDB681B0A03F002
:1044600007031846BD465DF8047B704700ED00E089
:1044700080B483B000AF0346FB7197F90730002B7F
:104480000BDBFB7903F01F02074997F907305B0943
:10449000012000FA02F241F8232000BF0C37BD468C
:1044A0005DF8047B704700BF00E100E080B483B09A
:1044B00000AF03463960FB7197F90730002B0ADB28
:1044C0003B68DAB20C4997F907301201D2B20B44BB
:1044D00083F800230AE03B68DAB20849FB7903F06D
:1044E0000F03043B1201D2B20B441A7600BF0C3703
:1044F000BD465DF8047B704700E100E000ED00E0A0
:1045000080B489B000AFF860B9607A60FB6803F0EE
:104510000703FB61FB69C3F10703042B28BF0423D6
:10452000BB61FB690433062B02D9FB69033B00E046
:1045300000237B614FF0FF32BB6902FA03F3DA43D9
:10454000BB681A407B699A404FF0FF317B6901FAE2
:1045500003F3D9437B680B40134318462437BD4609
:104560005DF8047B704780B582B000AF78607868F2
:10457000FFF74CFF00BF0837BD4680BD80B586B051
:1045800000AF0346B9607A60FB7300237B61FFF7DD
:1045900061FF78617A68B9687869FFF7B1FF024610
:1045A00097F90F3011461846FFF780FF00BF183704
:1045B000BD4680BD80B582B000AF0346FB7197F960
:1045C00007301846FFF754FF00BF0837BD4680BDCF
:1045D00080B586B000AF786000237B61FFF758F8A4
:1045E00038617B68002B01D1012399E07B680222AE
:1045F00083F835207B68002283F834207B681B68B1
:104600001A687B681B6822F001021A600FE0FFF74E
:104610003FF802463B69D31A052B08D97B68202254
:104620005A657B68032283F83520032378E07B6892
:104630001B681B6803F00103002BE8D17B681B6833
:104640001B687B617A69384B13407B617B685A68D1
:104650007B689B681A437B68DB681A437B681B692D
:104660001A437B685B691A437B689B691A437B68C2
:10467000DB691A437B681B6A13437A6913437B61C6
:104680007B685B6A042B07D17B68DA6A7B681B6BEB
:1046900013437A6913437B617B681B687A691A60EC
:1046A0007B681B685B697B617B6923F007037B6127
:1046B0007B685B6A7A6913437B617B685B6A042B66
:1046C00017D17B689B6A7A6913437B617B68DB6ADD
:1046D000002B0ED0786800F001FB0346002B08D0B9
:1046E0007B6840225A657B68012283F835200123CC
:1046F00016E07B681B687A695A61786800F0B8FA3E
:104700000346FB607B68DB6D3F229A40FB689A6042
:104710007B6800225A657B68012283F835200023DC
:1047200018461837BD4680BD3F8010F080B586B072
:1047300000AFF860B9607A603B600023FB75FB68EE
:104740009B6D3B61FB6893F83430012B01D1022350
:1047500040E0FB68012283F83420FB6893F8353091
:10476000DBB2012B2FD1FB68022283F83520FB68D6
:1047700000225A653B687A68B968F86800F04AFA1E
:10478000FB68DB6D3F229A403B699A60FB681B68BF
:104790001A68FB681B6842F016021A60FB681B6C03
:1047A000002B07D0FB681B681A68FB681B6842F087
:1047B00008021A60FB681B681A68FB681B6842F0F5
:1047C00001021A6005E0FB68002283F8342002230E
:1047D000FB75FB7D18461837BD4680BD80B584B09B
:1047E00000AF78607B689B6DFB60FEF751FFB8609F
:1047F0007B6893F83530DBB2022B08D07B688022CF
:104800005A657B68002283F83420012352E07B68DC
:104810001B681A687B681B6822F016021A607B68A6
:104820001B685A697B681B6822F080025A617B68AA
:104830001B6C002B03D17B689B6C002B07D07B6823
:104840001B681A687B681B6822F008021A607B6884
:104850001B681A687B681B6822F001021A6013E06B
:10486000FEF716FF0246BB68D31A052B0CD97B68EE
:1048700020225A657B68032283F835207B6800225A
:1048800083F83420032315E07B681B681B6803F062
:104890000103002BE4D17B68DB6D3F229A40FB686B
:1048A0009A607B68012283F835207B68002283F8B8
:1048B0003420002318461037BD4680BD80B483B035
:1048C00000AF78607B6893F83530DBB2022B04D000
:1048D0007B6880225A6501230CE07B68052283F8FF
:1048E00035207B681B681A687B681B6822F0010210
:1048F0001A60002318460C37BD465DF8047B7047EC
:1049000080B586B000AF78600023BB608E4B1B681B
:104910008E4AA2FB03239B0A7B617B689B6D3B61F4
:104920003B691B68FB607B68DB6D08229A40FB6873
:104930001340002B1AD07B681B681B6803F004032C
:10494000002B13D07B681B681A687B681B6822F0F9
:1049500004021A607B68DB6D08229A403B699A600A
:104960007B685B6D43F001027B685A657B68DB6D99
:1049700001229A40FB681340002B12D07B681B6811
:104980005B6903F08003002B0BD07B68DB6D012299
:104990009A403B699A607B685B6D43F002027B68DA
:1049A0005A657B68DB6D04229A40FB681340002B3C
:1049B00012D07B681B681B6803F00203002B0BD02E
:1049C0007B68DB6D04229A403B699A607B685B6D73
:1049D00043F004027B685A657B68DB6D10229A40C5
:1049E000FB681340002B43D07B681B681B6803F0F7
:1049F0000803002B3CD07B68DB6D10229A403B699A
:104A00009A607B681B681B6803F48023002B18D016
:104A10007B681B681B6803F40023002B08D17B68AC
:104A20001B6C002B24D07B681B6C786898471FE0B8
:104A30007B689B6C002B1BD07B689B6C78689847CD
:104A400016E07B681B681B6803F48073002B07D19A
:104A50007B681B681A687B681B6822F008021A6072
:104A60007B681B6C002B03D07B681B6C78689847B5
:104A70007B68DB6D20229A40FB681340002B00F01E
:104A80008F807B681B681B6803F01003002B00F00D
:104A900087807B68DB6D20229A403B699A607B6847
:104AA00093F83530DBB2052B36D17B681B681A686A
:104AB0007B681B6822F016021A607B681B685A69C3
:104AC0007B681B6822F080025A617B681B6C002B9C
:104AD00003D17B689B6C002B07D07B681B681A682E
:104AE0007B681B6822F008021A607B68DB6D3F223E
:104AF0009A403B699A607B68012283F835207B6885
:104B0000002283F834207B681B6D002B7ED07B68ED
:104B10001B6D7868984779E07B681B681B6803F415
:104B20008023002B1DD07B681B681B6803F40023C7
:104B3000002B0DD17B685B6C002B31D07B685B6CEC
:104B4000786898472CE000BF00000020B5814E1B1C
:104B50007B68DB6B002B23D07B68DB6B7868984726
:104B60001EE07B681B681B6803F48073002B0FD169
:104B70007B681B681A687B681B6822F010021A6049
:104B80007B68012283F835207B68002283F834207B
:104B90007B68DB6B002B03D07B68DB6B7868984706
:104BA0007B685B6D002B32D07B685B6D03F001038B
:104BB000002B22D07B68052283F835207B681B6898
:104BC0001A687B681B6822F001021A60BB68013317
:104BD000BB607A699A4207D37B681B681B6803F045
:104BE0000103002BF2D100E000BF7B68012283F8B3
:104BF00035207B68002283F834207B68DB6C002B37
:104C000005D07B68DB6C7868984700E000BF1837F8
:104C1000BD4680BD80B485B000AFF860B9607A60F1
:104C20003B60FB681B681A68FB681B6822F48022E3
:104C30001A60FB681B683A685A60FB689B68402BE7
:104C400008D1FB681B687A689A60FB681B68BA68C1
:104C5000DA6007E0FB681B68BA689A60FB681B684B
:104C60007A68DA6000BF1437BD465DF8047B704790
:104C700080B485B000AF78607B681B68DBB2103B06
:104C8000144AA2FB03231B09FB60134AFB6813446D
:104C90001B781A467B68DA65FB68032B09D97B68A9
:104CA0001B6823F47F7323F003031A1D7B689A6546
:104CB00007E07B681B6823F47F7323F003037A68A3
:104CC00093657B689B6D18461437BD465DF8047B81
:104CD000704700BFABAAAAAA48B1000880B485B04B
:104CE00000AF78600023FB737B689B6ABB607B68C6
:104CF0009B69002B1FD1BB68032B56D801A252F829
:104D000023F000BF154D0008274D0008154D000881
:104D1000AB4D00087B68DB6A03F08073002B46D044
:104D20000123FB7343E07B68DB6AB3F1C07F40D1B2
:104D30000123FB733DE07B689B69B3F5005F21D1E4
:104D4000BB68032B37D801A252F823F05D4D000851
:104D5000634D00085D4D0008754D00080123FB738D
:104D600030E07B68DB6A03F08073002B25D00123E1
:104D7000FB7322E07B68DB6AB3F1C07F1FD10123A4
:104D8000FB731CE0BB68022B03D9BB68032B03D069
:104D900018E00123FB7315E07B68DB6A03F0807386
:104DA000002B0ED00123FB730BE000BF0AE000BF15
:104DB00008E000BF06E000BF04E000BF02E000BF63
:104DC00000E000BFFB7B18461437BD465DF8047B4E
:104DD000704700BF80B489B000AF786039600023AD
:104DE0007B6100233B610023BB610023FB616BE11E
:104DF0000122FB6902FA03F37B613B681B687A6955
:104E000013403B613A697B699A4240F05A813B68A2
:104E10005B6803F00303012B05D03B685B6803F07C
:104E20000303022B30D17B689B68BB61FB695B008D
:104E3000032202FA03F3DB43BA691340BB613B6808
:104E4000DA68FB695B0002FA03F3BA691343BB61DA
:104E50007B68BA699A607B685B68BB610122FB6909
:104E600002FA03F3DB43BA691340BB613B685B683A
:104E70001B0903F00102FB6902FA03F3BA69134349
:104E8000BB617B68BA695A603B685B6803F00303E7
:104E9000032B17D07B68DB68BB61FB695B000322D7
:104EA00002FA03F3DB43BA691340BB613B689A68BB
:104EB000FB695B0002FA03F3BA691343BB617B68C9
:104EC000BA69DA603B685B6803F00303022B23D105
:104ED000FB69DA087B68083253F82230BB61FB6952
:104EE00003F007039B000F2202FA03F3DB43BA69C6
:104EF0001340BB613B681A69FB6903F007039B0021
:104F000002FA03F3BA691343BB61FB69DA087B68F1
:104F10000832B96943F822107B681B68BB61FB69E2
:104F20005B00032202FA03F3DB43BA691340BB615F
:104F30003B685B6803F00302FB695B0002FA03F362
:104F4000BA691343BB617B68BA691A603B685B68E6
:104F500003F44033002B00F0B4800023FB60604B6F
:104F60005B6C5F4A43F4804353645D4B5B6C03F4BA
:104F70008043FB60FB685B4AFB699B08023352F885
:104F80002330BB61FB6903F003039B000F2202FA8D
:104F900003F3DB43BA691340BB617B68524A934217
:104FA0002BD07B68514A934225D07B68504A93426C
:104FB0001FD07B684F4A934219D07B684E4A934278
:104FC00013D07B684D4A93420DD07B684C4A934284
:104FD00007D07B684B4A934201D107230EE0082398
:104FE0000CE006230AE0052308E0042306E003237F
:104FF00004E0022302E0012300E00023FA6902F04A
:10500000030292009340BA691343BB613549FB69BF
:105010009B080233BA6941F823203B4B9B68BB6174
:105020003B69DB43BA691340BB613B685B6803F4CF
:105030008013002B03D0BA693B691343BB61324A2A
:10504000BB699360304BDB68BB613B69DB43BA698A
:105050001340BB613B685B6803F40013002B03D073
:10506000BA693B691343BB61274ABB69D360264BCE
:105070005B68BB613B69DB43BA691340BB613B685A
:105080005B6803F40033002B03D0BA693B69134318
:10509000BB611D4ABB6953601B4B1B68BB613B690D
:1050A000DB43BA691340BB613B685B6803F4803340
:1050B000002B03D0BA693B691343BB61124ABB6939
:1050C0001360FB690133FB61FB690F2B7FF690AE28
:1050D00000BF00BF2437BD465DF8047B704700BFAA
:1050E0000038024000380140000002400004024045
:1050F00000080240000C0240001002400014024070
:1051000000180240001C0240003C014080B483B003
:1051100000AF78600B467B8013467B707B78002B5A
:1051200003D07A887B689A6103E07B881A047B68E5
:105130009A6100BF0C37BD465DF8047B704780B5AF
:1051400084B000AF78607B68002B01D1012334E08C
:105150007B681B684CF6CC421A607B681B6845F282
:1051600055521A607B681B687A6852685A607B687F
:105170001B687A6892689A60FEF78AFAF8600FE016
:10518000FEF786FA0246FB68D31A312B08D97B68F2
:105190001B68DB6803F00303002B01D003230CE042
:1051A0007B681B68DB6803F00303002BE8D17B6896
:1051B0001B684AF6AA221A60002318461037BD461B
:1051C00080BD80B483B000AF78607B681B684AF60E
:1051D000AA221A60002318460C37BD465DF8047BEE
:1051E0007047000080B586B000AF78607B68002B08
:1051F00001D1012367E27B681B6803F00103002BE8
:1052000075D0884B9B6803F00C03042B0CD0854BA6
:105210009B6803F00C03082B12D1824B5B6803F4EC
:105220008003B3F5800F0BD17E4B1B6803F4003372
:10523000002B5BD07B685B68002B57D1012342E2D7
:105240007B685B68B3F5803F06D1764B1B68754A77
:1052500043F4803313601DE07B685B68B3F5A02FD7
:105260000CD1704B1B686F4A43F4802313606D4B65
:105270001B686C4A43F4803313600BE0694B1B6876
:10528000684A23F480331360664B1B68654A23F435
:10529000802313607B685B68002B13D0FEF7F8F95E
:1052A000386108E0FEF7F4F902463B69D31A642B33
:1052B00001D9032307E25B4B1B6803F40033002B87
:1052C000F0D014E0FEF7E4F9386108E0FEF7E0F909
:1052D00002463B69D31A642B01D90323F3E1514BF6
:1052E0001B6803F40033002BF0D100E000BF7B68A3
:1052F0001B6803F00203002B63D04A4B9B6803F04A
:105300000C03002B0BD0474B9B6803F00C03082BBE
:105310001CD1444B5B6803F48003002B16D1414B36
:105320001B6803F00203002B05D07B68DB68012BB0
:1053300001D00123C7E13B4B1B6823F0F8027B68D7
:105340001B69DB00374913430B603AE07B68DB687D
:10535000002B20D0344B01221A60FEF799F93861F6
:1053600008E0FEF795F902463B69D31A022B01D9F2
:105370000323A8E12B4B1B6803F00203002BF0D0A2
:10538000284B1B6823F0F8027B681B69DB0025496A
:1053900013430B6015E0244B00221A60FEF778F9E6
:1053A000386108E0FEF774F902463B69D31A022B14
:1053B00001D9032387E11B4B1B6803F00203002B79
:1053C000F0D17B681B6803F00803002B36D07B68A4
:1053D0005B69002B16D0154B01221A60FEF758F9B5
:1053E000386108E0FEF754F902463B69D31A022BF4
:1053F00001D9032367E10B4B5B6F03F00203002B22
:10540000F0D01BE0094B00221A60FEF741F9386129
:105410000EE0FEF73DF902463B69D31A022B07D98D
:10542000032350E10038024000004742800E47420B
:10543000884B5B6F03F00203002BEAD17B681B688B
:1054400003F00403002B00F097800023FB75814BD1
:105450001B6C03F08053002B0FD10023BB607D4BEE
:105460001B6C7C4A43F0805313647A4B1B6C03F033
:105470008053BB60BB680123FB75774B1B6803F44B
:105480008073002B18D1744B1B68734A43F48073EC
:105490001360FEF7FDF8386108E0FEF7F9F8024600
:1054A0003B69D31A022B01D903230CE16A4B1B6819
:1054B00003F48073002BF0D07B689B68012B06D12E
:1054C000644B1B6F634A43F0010313671CE07B6866
:1054D0009B68052B0CD15F4B1B6F5E4A43F00403A6
:1054E00013675C4B1B6F5B4A43F0010313670BE0D0
:1054F000584B1B6F574A23F001031367554B1B6F23
:10550000544A23F0040313677B689B68002B15D073
:10551000FEF7BEF838610AE0FEF7BAF802463B69CA
:10552000D31A41F28832934201D90323CBE0494B8D
:105530001B6F03F00203002BEED014E0FEF7A8F877
:1055400038610AE0FEF7A4F802463B69D31A41F23B
:105550008832934201D90323B5E03E4B1B6F03F021
:105560000203002BEED1FB7D012B05D1394B1B6CC7
:10557000384A23F0805313647B689B69002B00F04A
:10558000A180344B9B6803F00C03082B5CD07B6834
:105590009B69022B41D1314B00221A60FEF778F84B
:1055A000386108E0FEF774F802463B69D31A022B13
:1055B00001D9032387E0274B1B6803F00073002BFE
:1055C000F0D17B68DA697B681B6A1A437B685B6A87
:1055D0009B011A437B689B6A5B08013B1B041A43CF
:1055E0007B68DB6A1B061B4913434B601B4B012284
:1055F0001A60FEF74DF8386108E0FEF749F80246F8
:105600003B69D31A022B01D903235CE0114B1B68C1
:1056100003F00073002BF0D054E0104B00221A600E
:10562000FEF736F8386108E0FEF732F802463B69CB
:10563000D31A022B01D9032345E0064B1B6803F064
:105640000073002BF0D13DE07B689B69012B07D1F3
:10565000012338E0003802400070004060004742FB
:105660001B4B5B68FB607B689B69012B28D0FB6848
:1056700003F480027B68DB699A4221D1FB6803F066
:105680003F027B681B6A9A421AD1FA6847F6C073D8
:1056900013407A68526A9201934211D1FB6803F475
:1056A00040327B689B6A5B08013B1B049A4207D12E
:1056B000FB6803F070627B68DB6A1B069A4201D0CC
:1056C000012300E0002318461837BD4680BD00BF07
:1056D0000038024080B584B000AF786039607B68E4
:1056E000002B01D10123CCE0684B1B6803F00703BA
:1056F0003A689A420CD9654B3A68D2B21A70634B39
:105700001B6803F007033A689A4201D00123B8E00E
:105710007B681B6803F00203002B20D07B681B68AA
:1057200003F00403002B05D0594B9B68584A43F4FF
:10573000E05393607B681B6803F00803002B05D0DF
:10574000534B9B68524A43F460439360504B9B68B1
:1057500023F0F0027B689B684D4913438B607B68A4
:105760001B6803F00103002B44D07B685B68012BAE
:1057700007D1474B1B6803F40033002B19D10123D9
:105780007FE07B685B68022B03D07B685B68032B40
:1057900007D13F4B1B6803F00073002B09D1012395
:1057A0006FE03B4B1B6803F00203002B01D1012388
:1057B00067E0374B9B6823F003027B685B683449E2
:1057C00013438B60FDF764FFF8600AE0FDF760FFAC
:1057D0000246FB68D31A41F28832934201D903236F
:1057E0004FE02B4B9B6803F00C027B685B689B00CF
:1057F0009A42EBD1254B1B6803F007033A689A42A3
:105800000CD2224B3A68D2B21A70204B1B6803F0BC
:1058100007033A689A4201D0012332E07B681B6893
:1058200003F00403002B08D0194B9B6823F4E052CB
:105830007B68DB68164913438B607B681B6803F049
:105840000803002B09D0124B9B6823F460427B684D
:105850001B69DB000E4913438B6000F021F8024600
:105860000B4B9B681B0903F00F030A49CB5C22FA20
:1058700003F3094A1360094B1B681846FBF7ECF960
:10588000002318461037BD4680BD00BF003C0240D3
:105890000038024000B10008000000202400002071
:1058A0002DE9B04F94B000AF00237B640023FB646C
:1058B00000233B640023BB64794B9B6803F00C031B
:1058C000082B0DD0082B00F2E180002B02D0042B16
:1058D00003D0DBE0734BBB64DBE0734BBB64D8E00D
:1058E0006F4B5B6803F03F037B646D4B5B6803F4B5
:1058F0008003002B63D06A4B5B689B090022BB636B
:10590000FA63BB6BC3F308033B6300237B63D7E9F4
:105910000C4522462B464FF000004FF00001590184
:1059200041EAD261500102460B462146511A3961C3
:10593000294663EB01037B614FF000024FF0000347
:10594000D7E904AB59468B01514643EA916351466E
:105950008A015146B2EB0108594663EB01094FF049
:1059600000024FF000034FEAC90343EA58734FEABD
:10597000C80290469946234618EB0303BB602B46AA
:1059800049EB0303FB604FF000024FF00003D7E93F
:10599000024529464B02214643EAD15321464A0299
:1059A000104619467B6C0022BB62FA62D7E90A23D3
:1059B000FAF70EFC02460B461346FB6458E0384BE0
:1059C0005B689B09002218461146C0F308033B623E
:1059D00000237B62D7E9088942464B464FF000001E
:1059E0004FF00001590141EAD261500102460B46D5
:1059F0004146B2EB010A494663EB010B4FF000024E
:105A00004FF000034FEA8B1343EA9A634FEA8A127E
:105A1000B2EB0A0463EB0B054FF000024FF00003FA
:105A2000EB0043EA5473E20014461D464346E31874
:105A30003B604B4645EB03037B604FF000024FF0A9
:105A40000003D7E9004529468B02214643EA9153DA
:105A500021468A02104619467B6C0022BB61FA611E
:105A6000D7E90623FAF7B4FB02460B461346FB645C
:105A70000B4B5B681B0C03F0030301335B003B64BF
:105A8000FA6C3B6CB2FBF3F3BB6402E0054BBB6406
:105A900000BFBB6C18465037BD46BDE8B08F00BF95
:105AA000003802400024F40000127A0080B400AFF5
:105AB000034B1B681846BD465DF8047B704700BF6A
:105AC0000000002080B500AFFFF7F0FF0246054B55
:105AD0009B689B0A03F007030349CB5C22FA03F39C
