:020000040800F2
:100000000000022035150008510D0008570D0008AA
:100010005D0D0008630D0008690D00080000000078
:1000200000000000000000000000000071900008C7
:100030006F0D000800000000C1920008416D00082B
:100040008515000885150008851500088515000828
:100050008515000885150008851500088515000818
:100060008515000885150008851500088515000808
:100070007D0D000885150008851500088515000808
:10008000910D0008851500088515000885150008E4
:10009000A50D000885150008B90D00088515000894
:1000A00085150008851500088515000885150008C8
:1000B00085150008851500088515000885150008B8
:1000C00085150008851500088515000885150008A8
:1000D00085150008CD0D0008E10D0008F50D00089C
:1000E0008515000885150008851500088515000888
:1000F0008515000885150008851500088515000878
:100100008515000885150008851500088515000867
:100110008515000885150008090E000885150008DA
:1001200085150008851500081D0E000885150008B6
:100130008515000885150008851500088515000837
:100140008515000885150008851500088515000827
:100150008515000885150008851500088515000817
:100160008515000885150008851500088515000807
:100170008515000885150008851500080000000099
:08018000851500088515000833
:1001900010B5054C237833B9044B13B10448AFF3C1
:1001A00000800123237010BD10000020000000001B
:1001B0009098000808B5034B1BB103490348AFF3FF
:1001C000008008BD00000000140000209098000886
:1001D00053B94AB9002908BF00281CBF4FF0FF31AE
:1001E0004FF0FF3000F074B9ADF1080C6DE904CEAA
:1001F00000F006F8DDF804E0DDE9022304B0704702
:100200002DE9F047089D04468E46002B4DD18A42C9
:10021000944669D9B2FA82F252B101FA02F3C2F1FC
:10022000200120FA01F10CFA02FC41EA030E94408D
:100230004FEA1C48210CBEFBF8F61FFA8CF708FBAE
:1002400016E341EA034306FB07F199420AD91CEB86
:10025000030306F1FF3080F01F81994240F21C81B8
:10026000023E63445B1AA4B2B3FBF8F008FB103300
:1002700044EA034400FB07F7A7420AD91CEB040435
:1002800000F1FF3380F00A81A74240F20781644405
:10029000023840EA0640E41B00261DB1D44000238A
:1002A000C5E900433146BDE8F0878B4209D9002DEE
:1002B00000F0EF800026C5E9000130463146BDE878
:1002C000F087B3FA83F6002E4AD18B4202D38242E2
:1002D00000F2F980841A61EB030301209E46002D91
:1002E000E0D0C5E9004EDDE702B9FFDEB2FA82F2E6
:1002F000002A40F09280A1EB0C014FEA1C471FFA44
:100300008CFE0126200CB1FBF7F307FB131140EA2A
:1003100001410EFB03F0884208D91CEB010103F1F7
:10032000FF3802D2884200F2CB804346091AA4B2B9
:10033000B1FBF7F007FB101144EA01440EFB00FE8D
:10034000A64508D91CEB040400F1FF3102D2A645F2
:1003500000F2BB800846A4EB0E0440EA03409CE791
:10036000C6F12007B34022FA07FC4CEA030C20FA3E
:1003700007F401FA06F31C43F9404FEA1C4900FA5E
:1003800006F3B1FBF9F8200C1FFA8CFE09FB1811DB
:1003900040EA014108FB0EF0884202FA06F20BD94E
:1003A0001CEB010108F1FF3A80F08880884240F29E
:1003B0008580A8F102086144091AA4B2B1FBF9F0E2
:1003C00009FB101144EA014100FB0EFE8E4508D9DD
:1003D0001CEB010100F1FF346CD28E456AD9023862
:1003E000614440EA0840A0FB0294A1EB0E01A14247
:1003F000C846A64656D353D05DB1B3EB080261EBB5
:100400000E0101FA07F722FA06F3F1401F43C5E98E
:10041000007100263146BDE8F087C2F12003D840C4
:100420000CFA02FC21FA03F3914001434FEA1C4706
:100430001FFA8CFEB3FBF7F007FB10360B0C43EAF8
:10044000064300FB0EF69E4204FA02F408D91CEBA8
:10045000030300F1FF382FD29E422DD902386344A6
:100460009B1B89B2B3FBF7F607FB163341EA034146
:1004700006FB0EF38B4208D91CEB010106F1FF3895
:1004800016D28B4214D9023E6144C91A46EA00468C
:1004900038E72E46284605E70646E3E61846F8E61E
:1004A0004B45A9D2B9EB020864EB0C0E0138A3E767
:1004B0004646EAE7204694E74046D1E7D0467BE748
:1004C000023B614432E7304609E76444023842E7C0
:1004D000704700BF80B58AB000AF304B304A1A6019
:1004E0002E4B06225A602D4B00229A602B4B002285
:1004F000DA602A4B4FF420221A61284B4FF4801205
:100500005A61264B00221A76244B01225A76234B3D
:1005100000229A76214B0022DA76204B00221A77AD
:100520001E4B01225A771D4801F086FE0346002B20
:1005300001D000F05FFB00237B610023BB6101233E
:10054000FB6100233B6000237B600023BB60002332
:10055000FB6000233B6101233B623B4619460F4889
:1005600001F066FF0346002B01D000F043FB0B486F
:1005700002F03EF80346002B01D000F03BFB48F6AA
:100580000241064802F09AFA0346002B01D000F01F
:1005900031FB00BF2837BD4680BD00BF2C000020C6
:1005A0000064004080B58AB000AF786007F11403A2
:1005B00000221A605A609A60DA601A617B681B68D0
:1005C000214A93423CD100233B61204B1B6C1F4AC4
:1005D00043F0007313641D4B1B6C03F000733B610D
:1005E0003B690023FB60194B1B6B184A43F0020365
:1005F0001363164B1B6B03F00203FB60FB684FF4A5
:1006000040737B610223BB610023FB6103233B62D8
:1006100009237B6207F1140319460D4803F07EF9A4
:1006200000220521142002F04DFD142002F066FD89
:1006300000220521162002F045FD162002F05EFD85
:1006400000BF2837BD4680BD00640040003802402E
:100650000004024080B582B000AF00237B601B4BDA
:100660001B6B1A4A43F480031363184B1B6B03F490
:1006700080037B607B6800233B60144B1B6B134A39
:1006800043F400131363114B1B6B03F400133B6023
:100690003B68002205210C2002F014FD0C2002F022
:1006A0002DFD00220521102002F00CFD102002F08B
:1006B00025FD002205213A2002F004FD3A2002F037
:1006C0001DFD00BF0837BD4680BD00BF0038024099
:1006D00080B500AF204A0021204806F095FB034674
:1006E0001F4A13601F4A00211F4806F08DFB034676
:1006F0001E4A13601E4A00211E4806F085FB034671
:100700001D4A13601D4A00211D4806F07DFB03466B
:100710001C4A13601C4A00211C4806F075FB034666
:100720001B4A13601B4A00211B4806F06DFB034661
:100730001A4A13601A4A00211A4806F065FB03465C
:10074000194A1360194A0021194806F05DFB034657
:10075000184A136000BF80BD28990008B907000837
:10076000A40000204C9900086D1D0008040300201F
:1007700070990008C51B00086405002094990008C2
:10078000891E0008C4070020B89900089D1E0008B3
:10079000240A0020DC990008A91A0008840E002011
:1007A000009A0008DD180008E4100020249A0008D0
:1007B000611D00084415002080B582B000AF78604C
:1007C0004FF47A7006F0B2FBFAE7000080B58CB007
:1007D00000AF07F11C0300221A605A609A60DA60C9
:1007E0001A610023BB617D4B1B6B7C4A43F01003F5
:1007F00013637A4B1B6B03F01003BB61BB690023CF
:100800007B61764B1B6B754A43F004031363734B98
:100810001B6B03F004037B617B6900233B616F4B1F
:100820001B6B6E4A43F0800313636C4B1B6B03F02E
:1008300080033B613B690023FB60684B1B6B674A8D
:1008400043F001031363654B1B6B03F00103FB6073
:10085000FB680023BB60614B1B6B604A43F00203E3
:1008600013635E4B1B6B03F00203BB60BB6800238A
:100870007B605A4B1B6B594A43F008031363574B79
:100880001B6B03F008037B607B6801223221544814
:1008900003F0E0F901224FF4F971524803F0DAF95C
:1008A00001224CF20301504803F0D4F901224FF623
:1008B00080714E4803F0CEF901224FF47F414C483D
:1008C00003F0C8F97E23FB6100233B6200237B62B7
:1008D00007F11C031946454803F020F84FF4705304
:1008E000FB6100233B6200237B6207F11C03194676
:1008F0003B4803F013F83223FB6101233B620023E2
:100900007B620023BB6207F11C031946344803F0E5
:1009100005F84FF4F973FB6101233B6200237B620E
:100920000023BB6207F11C0319462E4802F0F6FFB4
:100930004CF20303FB6101233B6200237B62002333
:10094000BB6207F11C031946274802F0E7FF4FF688
:100950008073FB6101233B6200237B620023BB6247
:1009600007F11C031946214802F0D8FF4FF47F43DA
:10097000FB6101233B6200237B620023BB6207F122
:100980001C0319461A4802F0C9FF4FF40043FB61EB
:1009900000233B6200237B6207F11C0319461148C8
:1009A00002F0BCFFFF23FB6100233B6200237B625C
:1009B00007F11C0319460E4802F0B0FF3823FB6113
:1009C00000233B6200237B6207F11C0319460648A3
:1009D00002F0A4FF00BF3037BD4680BD00380240A2
:1009E00000080240000002400004024000100240E3
:1009F000000C024080B500AF094B0A4A1A60084B50
:100A000003225A60064B40F6FF729A60044803F0D6
:100A10003AF90346002B01D000F0ECF800BF80BD8E
:100A2000A41900200030004080B500AF01F09EFB0B
:100A300000F062F8FFF7CAFEFFF70CFE00F09AFB29
:100A400000F0C2FB00F0EAFB00F004FA00F09AFAB2
:100A5000FFF7D0FFFFF73EFD40F6C41001F0C8FBE2
:100A600064221A491A4805F058F8642219491A48AC
:100A700005F053F864221949194805F04EF8194B4E
:100A80001B681A68174B1B6822F008021A60164B85
:100A90001B681A68144B1B6822F008021A60134B7B
:100AA0001B681A68114B1B6822F008021A603C216F
:100AB0000F4804F0FDF80F4803F027F906F05AF943
:100AC000FFF706FE06F07AF9FEE700BF301D0020B2
:100AD000101B0020941D0020CC1A0020F81D0020BF
:100AE000881A0020141C0020B41B0020541B002076
:100AF000401A0020A419002080B594B000AF07F17F
:100B0000200330220021184608F0BAFE07F10C033A
:100B100000221A605A609A60DA601A610023BB6092
:100B2000294B1B6C284A43F080531364264B1B6CE3
:100B300003F08053BB60BB6800237B60234B1B68C2
:100B4000224A43F480431360204B1B6803F4804324
:100B50007B607B6809233B624FF480337B62012317
:100B60007B630223BB634FF48003FB6304233B647A
:100B7000A8237B640223BB640423FB6407F12003E6
:100B8000184603F0D3F80346002B01D000F032F8EA
:100B90000F23FB6002233B6100237B614FF4A053D2
:100BA000BB614FF48053FB6107F10C03052118462C
:100BB00003F034FB0346002B01D000F01BF800BF0C
:100BC0005037BD4680BD00BF003802400070004075
:100BD00080B582B000AF78607B681B68044A93429E
:100BE00001D101F0E5FA00BF0837BD4680BD00BF66
:100BF0000010004080B400AF72B600BFFEE70000F6
:100C000080B582B000AF00237B60124B5B6C114A51
:100C100043F4804353640F4B5B6C03F480437B606D
:100C20007B6800233B600B4B1B6C0A4A43F08053EC
:100C30001364084B1B6C03F080533B603B6800223D
:100C40000F216FF0010002F03DFA00BF0837BD46EA
:100C500080BD00BF0038024080B58EB000AF786024
:100C60000023FB620023BB620023FB60334B1B6C41
:100C7000324A43F010031364304B1B6C03F0100333
:100C8000FB60FB6807F1100207F1140311461846D8
:100C900003F0E4FC3B6AFB62FB6A002B03D103F028
:100CA000B5FC786304E003F0B1FC03465B007B63B2
:100CB0007B6B234AA2FB03239B0C013BBB62214BB2
:100CC000214A1A601F4B40F2E732DA601D4ABB6AC4
:100CD00053601C4B00221A611A4B00229A60194B78
:100CE00000229A61174803F0EBFC034687F8333083
:100CF00097F83330002B1BD1124803F031FD034627
:100D000087F8333097F83330002B11D1362002F0BA
:100D1000F5F97B680F2B08D800227968362002F09D
:100D2000D1F90A4A7B68136002E0012387F8333067
:100D300097F8333018463837BD4680BD003802403A
:100D400083DE1B43B0190020001000400400002087
:100D500080B400AFFEE780B400AFFEE780B400AF20
:100D6000FEE780B400AFFEE780B400AFFEE780B4DA
:100D700000AF00BFBD465DF8047B704780B500AF93
:100D8000024802F061FB00BF80BD00BF141C0020C0
:100D900080B500AF024802F057FB00BF80BD00BF26
:100DA000B41B002080B500AF024801F0ADFE00BFCB
:100DB00080BD00BF2C00002080B500AF024801F0CC
:100DC000A3FE00BF80BD00BF2C00002080B500AF97
:100DD000024804F007FF00BF80BD00BF881A002052
:100DE00080B500AF024804F0FDFE00BF80BD00BF2B
:100DF000CC1A002080B500AF024804F0F3FE00BF1B
:100E000080BD00BF101B002080B500AF024803F07A
:100E1000DDFF00BF80BD00BFB019002080B500AF6E
:100E2000024802F011FB00BF80BD00BF541B002030
:100E300080B400AF064BD3F88830054A43F4700302
:100E4000C2F8883000BFBD465DF8047B704700BF24
:100E500000ED00E080B58EB000AF07F1280300225E
:100E60001A605A609A60DA6007F1200300221A6063
:100E70005A603B1D00221A605A609A60DA601A615B
:100E80005A619A613D4B3E4A1A603C4B40F24732F0
:100E90005A603A4B00229A60384B40F2CF72DA60C7
:100EA000364B00221A61354B80229A61334803F099
:100EB00007FC0346002B01D0FFF79CFE4FF4805344
:100EC000BB6207F1280319462C4804F049F9034690
:100ED000002B01D0FFF78EFE284803F0B1FC03463B
:100EE000002B01D0FFF786FE00233B6200237B62CC
:100EF00007F120031946214804F032FD0346002B78
:100F000001D0FFF777FE60237B600023BB600023E6
:100F1000FB6000237B613B1D00221946174804F04B
:100F20005DF80346002B01D0FFF764FE3B1D042251
:100F30001946124804F052F80346002B01D0FFF77F
:100F400059FE3B1D082219460C4804F047F8034699
:100F5000002B01D0FFF74EFE3B1D0C22194607481F
:100F600004F03CF80346002B01D0FFF743FE034892
:100F700000F0C6F800BF3837BD4680BDF819002024
:100F80000004004080B58CB000AF07F10C032422B0
:100F90000021184608F074FC3B1D00221A605A60BC
:100FA000204B214A1A601F4B00225A601D4B002221
:100FB0009A601C4B4FF6FF72DA601A4B00221A61DE
:100FC000184B00229A610123FB6000233B6101233F
:100FD0007B610023BB610023FB6100233B62012393
:100FE0007B620023BB620023FB6207F10C031946FE
:100FF0000C4803F0B7FD0346002B01D0FFF7FAFDC4
:1010000000237B600023BB603B1D1946054804F0AC
:10101000A7FC0346002B01D0FFF7ECFD00BF3037E3
:10102000BD4680BD401A00200008004080B485B055
:1010300000AF78607B681B680B4A93420DD1002398
:10104000FB600A4B1B6C094A43F002031364074B15
:101050001B6C03F00203FB60FB6800BF1437BD4646
:101060005DF8047B704700BF000400400038024078
:1010700080B58AB000AF786007F1140300221A60CF
:101080005A609A60DA601A617B681B68194A934259
:101090002BD100233B61184B1B6C174A43F0040310
:1010A0001364154B1B6C03F004033B613B69002385
:1010B000FB60114B1B6B104A43F0020313630E4B92
:1010C0001B6B03F00203FB60FB68C0237B61022300
:1010D000BB610023FB6100233B6202237B6207F1BB
:1010E00014031946054802F019FC00BF2837BD4615
:1010F00080BD00BF000800400038024000040240EC
:1011000080B588B000AF786007F10C0300221A6048
:101110005A609A60DA601A617B681B68124A9342CF
:101120001ED10023BB60114B1B6B104A43F004031C
:1011300013630E4B1B6B03F00403BB60BB684FF4DF
:101140007073FB6002233B6100237B610023BB6162
:101150000223FB6107F10C031946054802F0DEFB90
:1011600000BF2037BD4680BD00040040003802406B
:101170000008024080B500AF114B124A1A60104BB4
:101180004FF4E1325A600E4B00229A600C4B002261
:10119000DA600B4B00221A61094B0C225A61084B92
:1011A00000229A61064B0022DA61054804F068FCCF
:1011B0000346002B01D0FFF71DFD00BF80BD00BF1F
:1011C000881A00200010014080B500AF114B124A70
:1011D0001A60104B4FF4E1325A600E4B00229A60B5
:1011E0000C4B0022DA600B4B00221A61094B0C22D7
:1011F0005A61084B00229A61064B0022DA610548C9
:1012000004F03EFC0346002B01D0FFF7F3FC00BFC7
:1012100080BD00BFCC1A00200044004080B500AF64
:10122000114B124A1A60104B4FF4E1325A600E4BC8
:1012300000229A600C4B0022DA600B4B00221A61EC
:10124000094B0C225A61084B00229A61064B00227E
:10125000DA61054804F014FC0346002B01D0FFF7C7
:10126000C9FC00BF80BD00BF101B0020004800402B
:1012700080B58EB000AF786007F1240300221A60B9
:101280005A609A60DA601A617B681B689D4A9342D3
:1012900063D100233B629C4B5B6C9B4A43F0100381
:1012A0005364994B5B6C03F010033B623B6A002371
:1012B000FB61954B1B6B944A43F001031363924B04
:1012C0001B6B03F00103FB61FB694FF4C0637B629E
:1012D0000223BB620023FB6203233B6307237B6380
:1012E00007F124031946894802F018FB884B894A04
:1012F0001A60874B4FF000625A60854B00229A605B
:10130000834B0022DA60824B4FF480621A61804B7B
:1013100000225A617E4B00229A617D4B0022DA61E5
:101320007B4B00221A627A4B00225A62784801F005
:10133000F3FE0346002B01D0FFF75CFC7B68744A88
:101340009A63734A7B68936300220521252001F08C
:10135000B9FE252001F0D2FECFE07B681B686E4A03
:10136000934262D10023BB61674B1B6C664A43F416
:1013700000331364644B1B6C03F40033BB61BB6923
:1013800000237B61604B1B6B5F4A43F001031363D7
:101390005D4B1B6B03F001037B617B690C237B625C
:1013A0000223BB620023FB6203233B6307237B63AF
:1013B00007F124031946554802F0B0FA574B584A32
:1013C0001A60564B4FF000625A60544B00229A60EC
:1013D000524B0022DA60514B4FF480621A614F4B3E
:1013E00000225A614D4B00229A614C4B0022DA6177
:1013F0004A4B00221A62494B00225A62474801F0C8
:101400008BFE0346002B01D0FFF7F4FB7B68434AB9
:101410009A63424A7B68936300220521262001F0EB
:1014200051FE262001F06AFE67E07B681B683D4A9A
:10143000934262D100233B61334B1B6C324A43F42D
:1014400080231364304B1B6C03F480233B613B69A6
:101450000023FB602C4B1B6B2B4A43F002031363EE
:10146000294B1B6B03F00203FB60FB684FF44063E6
:101470007B620223BB620023FB6203233B630723DF
:101480007B6307F124031946274802F047FA274BEC
:10149000274A1A60254B4FF000625A60234B002206
:1014A0009A60224B0022DA60204B4FF480621A616E
:1014B0001E4B00225A611D4B00229A611B4B0022D9
:1014C000DA611A4B00221A62184B00225A6217483E
:1014D00001F022FE0346002B01D0FFF78BFB7B6857
:1014E000124A9A63114A7B689363002205212720E0
:1014F00001F0E8FD272001F001FE00BF3837BD46AE
:1015000080BD00BF001001400038024000000240D2
:10151000541B00204064024000440040B41B0020E3
:10152000886002400048004000040240141C002073
:1015300028600240DFF834D00D480E490E4A0023DF
:1015400002E0D458C4500433C4188C42F9D30B4A77
:101550000B4C002301E013600432A242FBD3FFF7DF
:1015600067FC08F05BF9FFF75FFA704700000220A4
:101570000000002010000020AC9A0008100000209D
:10158000B0670020FEE780B485B000AFF860B960B6
:101590007A603B60FB687A681A62FB68BA685A60D6
:1015A000FB683A681A60FB680022DA60FB68082270
:1015B0001A61FB6800221A75BB68002B03D0FB6818
:1015C00004229A6002E0FB6800229A60FB681846D9
:1015D0001437BD465DF8047B704780B582B000AF1C
:1015E000786039603B68002200217868FFF7CBFF04
:1015F0007B6818460837BD4680BD80B483B000AF15
:1016000078607B685B68002B02D07B685B6801E0D8
:101610007B681B6818460C37BD465DF8047B704735
:1016200080B582B000AF78607B681B6A002B1AD04F
:101630007B6823221A767B680C225A767B682022EC
:101640009A767B681B6ADAB27B68DA767B6800225E
:101650001A777B6800225A777B6800229A777B682A
:101660000022DA7717E07B689C221A767B680022DA
:101670005A767B6800229A767B680022DA767B684D
:1016800000221A777B6800225A777B6800229A77BB
:101690007B680022DA777A687B681833194610462F
:1016A00000F09EF9034618460837BD4680BD80B459
:1016B00083B000AF78607B689B6A18460C37BD46E4
:1016C0005DF8047B704780B483B000AF78607B68BE
:1016D00093F9303018460C37BD465DF8047B7047EF
:1016E00080B483B000AF78600B46FB707B68FA78FB
:1016F00083F8302000BF0C37BD465DF8047B70478F
:1017000080B582B000AF786039603B6899B27B6881
:101710002C331A46786800F007F802467B689A6214
:1017200000BF0837BD4680BD80B489B000AFF86007
:101730000B467A607B817B89A3F50043BB617B68A4
:101740001B68BA69D31A7B617B6903F500435A426F
:101750009BB292B258BF5342A3F50043FB617B6931
:1017600013F5004F03DAFB6903F58033FB617B68F7
:101770001B68FA6913443B617B683A691A603B69EC
:1017800003F5004318462437BD465DF8047B7047D7
:1017900080B485B000AFF860B9607A60FB68BA6861
:1017A0001A60FB687A685A60FB6818461437BD46B1
:1017B0005DF8047B7047000080B584B002AF7860AC
:1017C00039607B681A687B685B681946104603F0CD
:1017D00091F840F29973019340F2CC6300934FF477
:1017E000877300223968786800F01AF802460B4BBC
:1017F0005A633A687B689A604FF4487005F096FB2C
:101800007B681A687B685B681946104603F03AF9F2
:10181000012318460837BD4680BD00BF00040040C4
:1018200080B485B000AFF860B9607A603B60BA6898
:101830007B68D31AF969BA698A1A03FB02F239681C
:101840007B68CB1A92FBF3F2BB691344184614373A
:10185000BD465DF8047B704780B483B000AF03469B
:10186000FB7197F90730002B0BDBFB7903F01F02AC
:10187000074997F907305B09012000FA02F241F8A5
:10188000232000BF0C37BD465DF8047B704700BFC6
:1018900000E100E080B483B000AF0346FB7197F92C
:1018A0000730002B12DBFB7903F01F020A4997F97E
:1018B00007305B09012000FA02F2203341F82320AF
:1018C000BFF34F8F00BFBFF36F8F00BF00BF0C3758
:1018D000BD465DF8047B704700E100E080B582B052
:1018E00000AF7860144B1B78DBB2012B0CBF0123D7
:1018F0000023DBB2002B09D00F4B00221A700F4BD4
:1019000000221A600E4800F01DF811E00A4B1B7807
:10191000DBB2022B0CBF01230023DBB2002B07D06C
:10192000064B1B680133054A1360034B00221A70F3
:10193000012005F0FBFAD5E7741C0020A81C00204C
:10194000A01C002090B585B000AF78601420FFF790
:10195000A1FF1F4B9B68002B32D10023FB60FB686B
:10196000032B2DDC1A4B1C681A4AFB6852F82330F3
:101970001846FFF742FE03469C4205D1164B1B78E2
:101980009C2B01D1012300E00023002B14D0114A2D
:10199000FB6852F82330114A128811461846FFF7A7
:1019A000AFFE0C4AFB6852F823300B4A527852B211
:1019B00011461846FFF794FEFB680133FB60CEE743
:1019C0001420FFF749FF012318461437BD4690BD88
:1019D000781C0020141D0020941C00209A1C00205C
:1019E00080B582B000AF786039607B685B68002B9F
:1019F00003D17B681B68002B1BD0104800F017FF39
:101A00000346002B0CBF01230023DBB2002B00D0C8
:101A1000F3E70B4B3A687968084800F02DFE03465F
:101A2000002B14BF01230023DBB2002B01D00023C5
:101A300000E0012318460837BD4680BD2C00002079
:101A40009C1C002080B582B000AF78600B4B0C4A24
:101A50000021786800F020FF0346002B14BF01230B
:101A60000023DBB2002B01D0FFF7C4F8054B0122A5
:101A70001A7000BF0837BD4680BD00BF941C00200F
:101A8000781C0020741C002080B483B000AF786004
:101A9000044B02221A7000BF0C37BD465DF8047B70
:101AA000704700BF741C002080B588B000AF78601C
:101AB0002A4B2B4A1A60294B2A4A5A60274B284A3C
:101AC0009A60264B264ADA6007F10C030022264969
:101AD0001846FFF75DFE4FF47A7005F027FA234BA6
:101AE000DB78FB77FB7F002B33D0FB7F012B12D100
:101AF0001B48FFF795FD1A48FFF7D9FD03461A4624
:101B00001B4B1A631648FFF7DEFD03461A46184BB7
:101B100083F834201DE0FB7F042B1AD1134B1B6983
:101B2000012B09D107F10C0300211846FFF744FEF1
:101B30000E4B0022DA700CE00C4B1B69022B08D113
:101B400007F10C03B4211846FFF736FE074B0022BD
:101B5000DA70012005F0EAF9C1E700BF141D00208A
:101B6000AC1C0020E01C0020F81900208C00002094
:101B70005400002080B582B000AF786039607B6887
:101B8000012B0ED13B684FF6FF72934209D140F210
:101B900041110648FFF721FD4FF4A1710448FFF7FA
:101BA0001CFD00BF0837BD4680BD00BFAC1C002037
:101BB000E01C002080B500AF4FF6FF710120FFF759
:101BC000D9FF80BD80B582B000AF78605F4B1B69E4
:101BD00003F40053002B05D05D4A137F6FF300031D
:101BE000137704E05A4A137F43F001031377594BEC
:101BF0001B6903F04003002B05D0554A137F6FF398
:101C00004103137704E0524A137F43F00203137732
:101C1000504B1B6903F02003002B05D04C4A137F67
:101C20006FF38203137704E0494A137F43F0040300
:101C30001377484B1B6903F01003002B05D0444A6F
:101C4000137F6FF3C303137704E0414A137F43F01C
:101C5000080313773F4B1B6903F00803002B05D0E3
:101C60003B4A137F6FF30413137704E0384A137F62
:101C700043F010031377374B1B6903F00403002B69
:101C800005D0334A137F6FF34513137704E0304ACE
:101C9000137F43F0200313772E4B1B6903F00203DD
:101CA000002B05D02A4A137F6FF38613137704E0C5
:101CB000274A137F43F040031377274B1B6903F038
:101CC0002003002B05D0224A137F6FF3C71313772D
:101CD00004E01F4A137F43F0800313771E4B1B69F8
:101CE00003F01003002B05D0194A537F6FF3000354
:101CF000537704E0164A537F43F001035377164BA2
:101D00001B6903F00803002B05D0114A537F6FF3C2
:101D10004103537704E00E4A537F43F002035377A5
:101D20000E4B1B6903F08003002B05D0084A537F3C
:101D30006FF38203537704E0054A537F43F00403B3
:101D40005377012005F0F2F840E700BF0008024099
:101D5000540000200010024000040240000C024029
:101D600080B483B000AF7860FEE7000080B582B039
:101D700000AF7860074801F0C8FF00F00FF8064B8D
:101D80005B79002B01D000F03BF8052005F0CEF880
:101D9000F0E700BFA41900205400002080B500AF78
:101DA000164B4FF000729A61642005F0BFF8134B98
:101DB0004FF080629A61142005F0B8F80F4B4FF491
:101DC00000729A61642005F0B1F80C4B4FF000628C
:101DD0009A61142005F0AAF8084B4FF480629A61CA
:101DE000642005F0A3F8054B4FF400629A614FF4AC
:101DF000967005F09BF800BF80BD00BF000C02404C
:101E000080B582B000AF1A4B5B791A46194B53F874
:101E100022301A46184B1A60154B5B791A46174B3D
:101E200053F822301A46164B1A6000237B60124B7F
:101E30001B687A689A4214DA114B1B68184605F041
:101E400075F8104B4FF480129A610D4B1B681846C1
:101E500005F06CF80B4B10229A617B6801337B60B4
:101E6000E5E7034B00225A7100BF0837BD4680BD2D
:101E700054000020789A0008281D0020609A00086D
:101E8000241D00200008024080B582B000AF7860B9
:101E90004FF47A7005F04AF8FAE70000B0B584B064
:101EA00000AF78601E4B1B78002B34D01D4B1B7885
:101EB000842B30D11B4B5B78532B2CD1194B9B7847
:101EC000FB73FB7B022B1ED1164BDC7D17211548C3
:101ED00000F02EF803469C4214BF01230023DBB21E
:101EE000002B06D0104B1B790133DAB20E4B1A715E
:101EF00009E00E4A0B4B14461D460FCD0FC495E862
:101F0000030084E80300064B00221A7064220021BB
:101F1000044807F0B5FC012005F008F8C2E700BF4F
:101F20002C1D0020F81D0020540000208C000020F3
:101F300080B485B000AF786039600023FB73002364
:101F4000BB60BA683B689A420ADABB687A68134495
:101F50001A78FB7B1344FB73BB680133BB60F0E76B
:101F6000FB7B18461437BD465DF8047B70470000C4
:101F700080B588B000AF7860424804F0DFF8F861BF
:101F8000FB69013B0F2B63D801A252F823F000BF7D
:101F9000D11F0008EF1F0008512000080D20000885
:101FA0005120000851200008512000082B20000873
:101FB000512000085120000851200008512000083D
:101FC0005120000851200008512000084920000835
:101FD0000023BB612B4B1B681B68BB61294B1B6833
:101FE0005B68BB61BB697B6800221A6431E0002337
:101FF0007B61244B1B681B687B61224B1B685B6801
:102000007B617B697B6800221A6422E000233B61CC
:102010001C4B1B681B683B611A4B1B685B683B6170
:102020003B697B6800221A6413E00023FB607B6835
:102030001B681B68FB607B681B685B68FB60FB6858
:102040007B6800221A6404E07B6800221A6400E0C6
:1020500000BF7B681B680C4A93420FD10B4B0122D7
:102060001A7064220A49074803F057FD094B1B68A0
:102070001A68084B1B6822F008021A6000BF20375C
:10208000BD4680BD881A0020001001402C1D002094
:10209000F81D0020541B002080B582B000AF78608E
:1020A0000B467B807B681B68214A934210D1214BF1
:1020B00001221A7064222049204803F02EFD204B93
:1020C0001B681A681E4B1B6822F008021A602AE07F
:1020D0007B681B681B4A934210D11B4B01221A706C
:1020E00064221A491A4803F018FD1A4B1B681A6833
:1020F000184B1B6822F008021A6014E07B681B680A
:10210000154A93420FD1154B01221A7064221449CB
:10211000144803F002FD144B1B681A68124B1B682D
:1021200022F008021A6000BF0837BD4680BD00BF1C
:10213000001001402C1D0020F81D0020881A0020EE
:10214000541B0020004400402E1D0020941D002040
:10215000CC1A0020B41B0020004800402D1D002098
:10216000301D0020101B0020141C002080B500AF83
:102170000E4B1B680D4A43F4007313600B4B1B6836
:102180000A4A43F480631360084B1B68074A43F410
:1021900080731360032000F08AFF0F20FEF75CFDC0
:1021A000FEF72EFD0023184680BD00BF003C024014
:1021B00080B400AF064B1B781A46064B1B681344CD
:1021C000044A136000BFBD465DF8047B704700BF42
:1021D000080000205C1E002080B400AF034B1B6889
:1021E0001846BD465DF8047B704700BF5C1E0020AA
:1021F00080B584B000AF7860FFF7EEFFB8607B6811
:10220000FB60FB68B3F1FF3F05D00A4B1B781A4611
:10221000FB681344FB6000BFFFF7DEFF0246BB68AC
:10222000D31AFA689A42F7D800BF00BF1037BD46EC
:1022300080BD00BF0800002080B584B000AF78608A
:102240007B68002B01D10123EDE07B6893F82030FF
:10225000DBB2002B02D17868FEF7A4F97B681B681B
:102260001A687B681B6842F001021A60FFF7B4FF2E
:10227000F86012E0FFF7B0FF0246FB68D31A0A2BA2
:102280000BD97B685B6A43F400327B685A627B68D7
:10229000052283F820200123C5E07B681B685B686A
:1022A00003F00103002BE5D07B681B681A687B688C
:1022B0001B6822F002021A60FFF78EFFF86012E03E
:1022C000FFF78AFF0246FB68D31A0A2B0BD97B68FB
:1022D0005B6A43F400327B685A627B68052283F8AC
:1022E000202001239FE07B681B685B6803F00203EA
:1022F000002BE5D17B681B7E012B08D17B681B6816
:102300001A687B681B6842F080021A6007E07B68ED
:102310001B681A687B681B6822F080021A607B6861
:102320005B7E012B08D17B681B681A687B681B6881
:1023300042F040021A6007E07B681B681A687B68FD
:102340001B6822F040021A607B689B7E012B08D13B
:102350007B681B681A687B681B6842F020021A6061
:1023600007E07B681B681A687B681B6822F0200204
:102370001A607B68DB7E012B08D17B681B681A68BA
:102380007B681B6822F010021A6007E07B681B68FC
:102390001A687B681B6842F010021A607B681B7F1A
:1023A000012B08D17B681B681A687B681B6842F0A8
:1023B00008021A6007E07B681B681A687B681B6864
:1023C00022F008021A607B685B7F012B08D17B68D2
:1023D0001B681A687B681B6842F004021A6007E0F9
:1023E0007B681B681A687B681B6822F004021A600D
:1023F0007B689A687B68DB681A437B681B691A43B1
:102400007B685B6942EA03017B685B685A1E7B68F4
:102410001B680A43DA617B6800225A627B680122EA
:1024200083F82020002318461037BD4680BD0000E9
:1024300080B487B000AF786039607B681B687B61CF
:102440007B6893F82030FB74FB7C012B03D0FB7C72
:10245000022B40F0BE80654B7B617B69D3F8003274
:1024600043F001027B69C3F800227B69D3F8003294
:1024700023F47C527B69C3F800227B69D3F80022E5
:102480003B685B6A1B021A437B69C3F800223B6806
:102490005B6903F01F03012202FA03F3FB607B690F
:1024A000D3F81C22FB68DB431A407B69C3F81C226B
:1024B0003B68DB69002B23D17B69D3F80C22FB68D6
:1024C000DB431A407B69C3F80C223B68DB681904C4
:1024D0003B685B689BB23A68526919437B69483232
:1024E00043F832103B689B6819043B681B689AB23A
:1024F0003B685B690A4379694833DB000B445A60E7
:102500003B68DB69012B22D17B69D3F80C22FB6885
:102510001A437B69C3F80C223B681B6819043B68AB
:102520005B689BB23A68526919437B69483243F849
:1025300032103B689B6819043B68DB689AB23B68C1
:102540005B690A4379694833DB000B445A603B6896
:102550009B69002B09D17B69D3F80422FB68DB431C
:102560001A407B69C3F8042207E07B69D3F8042290
:10257000FB681A437B69C3F804223B681B69002B84
:1025800009D17B69D3F81422FB68DB431A407B69CD
:10259000C3F8142207E07B69D3F81422FB681A43BE
:1025A0007B69C3F814223B681B6A012B07D17B6946
:1025B000D3F81C22FB681A437B69C3F81C227B6991
:1025C000D3F8003223F001027B69C3F80022002314
:1025D00006E07B685B6A43F480227B685A620123D1
:1025E00018461C37BD465DF8047B70470064004008
:1025F00080B584B000AF78607B6893F82030DBB2A0
:10260000012B2ED17B68022283F820207B681B6877
:102610001A687B681B6822F001021A60FFF7DCFD74
:10262000F86012E0FFF7D8FD0246FB68D31A0A2BC8
:102630000BD97B685B6A43F400327B685A627B6823
:10264000052283F82020012312E07B681B685B6869
:1026500003F00103002BE5D17B6800225A620023BE
:1026600006E07B685B6A43F400227B685A620123C0
:1026700018461037BD4680BD80B489B000AFF86001
:10268000B9607A603B60FB6893F82030FB77FB68A9
:102690001B689B68BB61FB7F012B03D0FB7F022B78
:1026A00040F0B880BB6903F08063002B0AD1BB699E
:1026B00003F00063002B05D1BB6903F08053002BAE
:1026C00000F0A080BB691B0E03F003037B617B69F4
:1026D000022B07D9FB685B6A43F40002FB685A626D
:1026E00001239EE001227B699A403B681A60BB6827
:1026F0009B68002B0DD1BB681B685A05BB68DB6863
:10270000F96809681A437B6918331B010B441A6086
:102710000FE0BB685B68DA00BB689B681A43BB6864
:10272000DB68F96809681A437B6918331B010B449D
:102730001A60FB681968BB681A697B6918331B014A
:102740000B4404331A60BB681B7D012B11D1FB685D
:102750001A687B6918331B01134404331B68FA6839
:10276000116843F480727B6918331B010B440433F6
:102770001A607B6807331B781A067B6806331B7860
:102780001B041A437B6805331B781B0213437A68CA
:10279000043212781046FA68116843EA00027B6935
:1027A0001B010B4403F5C6731A607B6803331B7867
:1027B0001A067B6802331B781B041A437B680133BB
:1027C0001B781B0213437A6812781046FA68116866
:1027D00043EA00027B691B010B4403F5C4731A60D2
:1027E000FB681A687B6918331B0113441B68FA687D
:1027F000116843F001027B6918331B010B441A6016
:1028000000230EE0FB685B6A43F40012FB685A6227
:10281000012306E0FB685B6A43F48022FB685A628E
:10282000012318462437BD465DF8047B704780B409
:1028300085B000AF78600023FB607B6893F82030A0
:10284000FB72FB7A012B02D0FB7A022B1DD17B6835
:102850001B689B6803F08063002B02D0FB68013388
:10286000FB607B681B689B6803F00063002B02D051
:10287000FB680133FB607B681B689B6803F0805337
:10288000002B02D0FB680133FB60FB68184614374D
:10289000BD465DF8047B704780B487B000AFF86038
:1028A000B9607A603B60FB6893F82030FB75FB7D74
:1028B000012B03D0FB7D022B40F0F380BB68002B83
:1028C0000ED1FB681B68DB6803F00303002B16D1F5
:1028D000FB685B6A43F40012FB685A620123E7E07D
:1028E000FB681B681B6903F00303002B07D1FB681F
:1028F0005B6A43F40012FB685A620123D8E0FB686C
:102900001A68BB681B331B0113441B6803F00402E5
:102910007B689A607B689B68002B0CD1FB681A6807
:10292000BB681B331B0113441B685B0DC3F30A0216
:102930007B681A600BE0FB681A68BB681B331B01DD
:1029400013441B68DB0823F060427B685A60FB6815
:102950001A68BB681B331B0113441B6803F0020297
:102960007B68DA60FB681A68BB681B331B01134481
:1029700004331B6803F00F027B681A61FB681A6856
:10298000BB681B331B01134404331B681B0ADAB2F8
:102990007B689A61FB681A68BB681B331B01134490
:1029A00004331B681B0C9AB27B685A61FB681A6877
:1029B000BB681B01134403F5DC731B68DAB23B6888
:1029C0001A70FB681A68BB681B01134403F5DC73BB
:1029D0001B681A0A3B680133D2B21A70FB681A6886
:1029E000BB681B01134403F5DC731B681A0C3B68BE
:1029F0000233D2B21A70FB681A68BB681B01134419
:102A000003F5DC731B681A0E3B680333D2B21A70ED
:102A1000FB681A68BB681B01134403F5DE731A6870
:102A20003B680433D2B21A70FB681A68BB681B019A
:102A3000134403F5DE731B681A0A3B680533D2B2F0
:102A40001A70FB681A68BB681B01134403F5DE7338
:102A50001B681A0C3B680633D2B21A70FB681A68FE
:102A6000BB681B01134403F5DE731B681A0E3B6839
:102A70000733D2B21A70BB68002B08D1FB681B6801
:102A8000DA68FB681B6842F02002DA6007E0FB6846
:102A90001B681A69FB681B6842F020021A61002358
:102AA00006E0FB685B6A43F48022FB685A620123FC
:102AB00018461C37BD465DF8047B704780B485B06E
:102AC00000AF786039607B6893F82030FB73FB7B44
:102AD000012B02D0FB7B022B09D17B681B68596953
:102AE0007B681B683A680A435A61002306E07B68EA
:102AF0005B6A43F480227B685A62012318461437CC
:102B0000BD465DF8047B704780B58AB000AF786041
:102B100000237B627B681B685B693B627B681B6888
:102B20005B68FB617B681B689B68BB617B681B689B
:102B3000DB687B617B681B681B693B617B681B688A
:102B40009B69FB603B6A03F00103002B7CD0BB69EF
:102B500003F00103002B23D07B681B6801229A60DD
:102B6000BB6903F00203002B03D0786800F083F9FF
:102B700016E0BB6903F00403002B04D07B6A43F426
:102B800000637B620CE0BB6903F00803002B04D0F8
:102B90007B6A43F480537B6202E0786800F089F935
:102BA000BB6903F48073002B24D07B681B684FF44F
:102BB00080729A60BB6903F40073002B03D07868BD
:102BC00000F063F916E0BB6903F48063002B04D0C6
:102BD0007B6A43F400537B620CE0BB6903F400633F
:102BE000002B04D07B6A43F480437B6202E0786868
:102BF00000F069F9BB6903F48033002B24D07B68B3
:102C00001B684FF480329A60BB6903F40033002BD9
:102C100003D0786800F043F916E0BB6903F4802321
:102C2000002B04D07B6A43F400437B620CE0BB6959
:102C300003F40023002B04D07B6A43F480337B62CF
:102C400002E0786800F049F93B6A03F00803002BC2
:102C50000CD07B6903F01003002B07D07B6A43F490
:102C600000737B627B681B681022DA603B6A03F0AA
:102C70000403002B0BD07B6903F00803002B06D064
:102C80007B681B680822DA60786800F030F93B6ADC
:102C900003F00203002B09D07B681B68DB6803F09C
:102CA0000303002B02D07868FEF7CCFE3B6A03F0EA
:102CB0004003002B0CD03B6903F01003002B07D01E
:102CC0007B6A43F480637B627B681B6810221A6115
:102CD0003B6A03F02003002B0BD03B6903F0080391
:102CE000002B06D07B681B6808221A61786800F008
:102CF00012F93B6A03F01003002B09D07B681B68B4
:102D00001B6903F00303002B02D0786800F0F9F888
:102D10003B6A03F40033002B0BD0FB6903F0100374
:102D2000002B06D07B681B6810225A60786800F080
:102D3000FCF83B6A03F48033002B0BD0FB6903F0F3
:102D40000803002B06D07B681B6808225A6078684D
:102D500000F0F5F83B6A03F40043002B7BD0FB69DD
:102D600003F00403002B72D03B6A03F48073002B42
:102D700008D0FB6803F00103002B03D07B6A43F00B
:102D800001037B623B6A03F40073002B08D0FB68ED
:102D900003F00203002B03D07B6A43F002037B6243
:102DA0003B6A03F48063002B08D0FB6803F0040344
:102DB000002B03D07B6A43F004037B623B6A03F47D
:102DC0000063002B43D0FB6803F07003002B3ED060
:102DD000FB6803F07003602B2BD0602B2ED8502B98
:102DE00022D0502B2AD8402B19D0402B26D8302B5C
:102DF00010D0302B22D8102B02D0202B05D01DE074
:102E00007B6A43F008037B6219E07B6A43F010039E
:102E10007B6214E07B6A43F020037B620FE07B6AF5
:102E200043F040037B620AE07B6A43F080037B62ED
:102E300005E07B6A43F480737B6200E000BF7B683F
:102E40001B689A697B681B6822F070029A617B6834
:102E50001B6804225A607B6A002B08D07B685A6A80
:102E60007B6A1A437B685A627868FEF70DFE00BFE2
:102E70002837BD4680BD80B483B000AF786000BF06
:102E80000C37BD465DF8047B704780B483B000AF5B
:102E9000786000BF0C37BD465DF8047B704780B496
:102EA00083B000AF786000BF0C37BD465DF8047B8F
:102EB000704780B483B000AF786000BF0C37BD4668
:102EC0005DF8047B704780B483B000AF786000BFCA
:102ED0000C37BD465DF8047B704780B483B000AF0B
:102EE000786000BF0C37BD465DF8047B704780B446
:102EF00083B000AF786000BF0C37BD465DF8047B3F
:102F0000704780B483B000AF786000BF0C37BD4617
:102F10005DF8047B704780B483B000AF786000BF79
:102F20000C37BD465DF8047B704780B483B000AFBA
:102F3000786000BF0C37BD465DF8047B704780B4F5
:102F400083B000AF786000BF0C37BD465DF8047BEE
:102F50007047000080B485B000AF78607B6803F0F4
:102F60000703FB600C4BDB68BB60BA684FF6FF03DE
:102F70001340BB60FB681A02BB68134343F0BF6396
:102F800043F40033BB60044ABB68D36000BF14370E
:102F9000BD465DF8047B704700ED00E080B400AFF3
:102FA000044BDB681B0A03F007031846BD465DF8B7
:102FB000047B704700ED00E080B483B000AF0346AF
:102FC000FB7197F90730002B0BDBFB7903F01F0235
:102FD000074997F907305B09012000FA02F241F82E
:102FE000232000BF0C37BD465DF8047B704700BF4F
:102FF00000E100E080B483B000AF03463960FB71AC
:1030000097F90730002B0ADB3B68DAB20C4997F9D5
:1030100007301201D2B20B4483F800230AE03B6868
:10302000DAB20849FB7903F00F03043B1201D2B274
:103030000B441A7600BF0C37BD465DF8047B704721
:1030400000E100E000ED00E080B489B000AFF8607E
:10305000B9607A60FB6803F00703FB61FB69C3F1A9
:103060000703042B28BF0423BB61FB690433062B31
:1030700002D9FB69033B00E000237B614FF0FF3284
:10308000BB6902FA03F3DA43BB681A407B699A40D2
:103090004FF0FF317B6901FA03F3D9437B680B40A2
:1030A000134318462437BD465DF8047B704780B54E
:1030B00082B000AF78607868FFF74CFF00BF083738
:1030C000BD4680BD80B586B000AF0346B9607A606A
:1030D000FB7300237B61FFF761FF78617A68B96851
:1030E0007869FFF7B1FF024697F90F30114618468D
:1030F000FFF780FF00BF1837BD4680BD80B582B0A6
:1031000000AF0346FB7197F907301846FFF754FFED
:1031100000BF0837BD4680BD80B586B000AF78607F
:1031200000237B61FFF758F838617B68002B01D1E1
:10313000012399E07B68022283F835207B68002216
:1031400083F834207B681B681A687B681B6822F050
:1031500001021A600FE0FFF73FF802463B69D31AFD
:10316000052B08D97B6820225A657B68032283F8E7
:103170003520032378E07B681B681B6803F001039C
:10318000002BE8D17B681B681B687B617A69384B30
:1031900013407B617B685A687B689B681A437B6835
:1031A000DB681A437B681B691A437B685B691A43B7
:1031B0007B689B691A437B68DB691A437B681B6ADF
:1031C00013437A6913437B617B685B6A042B07D1E5
:1031D0007B68DA6A7B681B6B13437A6913437B61F4
:1031E0007B681B687A691A607B681B685B697B6116
:1031F0007B6923F007037B617B685B6A7A69134311
:103200007B617B685B6A042B17D17B689B6A7A6958
:1032100013437B617B68DB6A002B0ED0786800F07B
:1032200001FB0346002B08D07B6840225A657B686F
:10323000012283F83520012316E07B681B687A6938
:103240005A61786800F0B8FA0346FB607B68DB6D72
:103250003F229A40FB689A607B6800225A657B682F
:10326000012283F83520002318461837BD4680BD5B
:103270003F8010F080B586B000AFF860B9607A602A
:103280003B600023FB75FB689B6D3B61FB6893F81B
:103290003430012B01D1022340E0FB68012283F886
:1032A0003420FB6893F83530DBB2012B2FD1FB685B
:1032B000022283F83520FB6800225A653B687A6851
:1032C000B968F86800F04AFAFB68DB6D3F229A4063
:1032D0003B699A60FB681B681A68FB681B6842F0D0
:1032E00016021A60FB681B6C002B07D0FB681B687A
:1032F0001A68FB681B6842F008021A60FB681B68CA
:103300001A68FB681B6842F001021A6005E0FB685E
:10331000002283F834200223FB75FB7D1846183702
:10332000BD4680BD80B584B000AF78607B689B6D82
:10333000FB60FEF751FFB8607B6893F83530DBB275
:10334000022B08D07B6880225A657B68002283F8B4
:103350003420012352E07B681B681A687B681B6875
:1033600022F016021A607B681B685A697B681B682A
:1033700022F080025A617B681B6C002B03D17B68B2
:103380009B6C002B07D07B681B681A687B681B68E6
:1033900022F008021A607B681B681A687B681B6849
:1033A00022F001021A6013E0FEF716FF0246BB6826
:1033B000D31A052B0CD97B6820225A657B6803221F
:1033C00083F835207B68002283F83420032315E03E
:1033D0007B681B681B6803F00103002BE4D17B684A
:1033E000DB6D3F229A40FB689A607B68012283F87C
:1033F00035207B68002283F83420002318461037DC
:10340000BD4680BD80B483B000AF78607B6893F820
:103410003530DBB2022B04D07B6880225A65012351
:103420000CE07B68052283F835207B681B681A68EE
:103430007B681B6822F001021A60002318460C37D3
:10344000BD465DF8047B704780B586B000AF7860FC
:103450000023BB608E4B1B688E4AA2FB03239B0A92
:103460007B617B689B6D3B613B691B68FB607B6894
:10347000DB6D08229A40FB681340002B1AD07B6852
:103480001B681B6803F00403002B13D07B681B68C8
:103490001A687B681B6822F004021A607B68DB6D87
:1034A00008229A403B699A607B685B6D43F0010299
:1034B0007B685A657B68DB6D01229A40FB6813408C
:1034C000002B12D07B681B685B6903F08003002B24
:1034D0000BD07B68DB6D01229A403B699A607B6868
:1034E0005B6D43F002027B685A657B68DB6D0422EA
:1034F0009A40FB681340002B12D07B681B681B6846
:1035000003F00203002B0BD07B68DB6D04229A4092
:103510003B699A607B685B6D43F004027B685A6587
:103520007B68DB6D10229A40FB681340002B43D070
:103530007B681B681B6803F00803002B3CD07B688A
:10354000DB6D10229A403B699A607B681B681B68A0
:1035500003F48023002B18D07B681B681B6803F4DE
:103560000023002B08D17B681B6C002B24D07B68C8
:103570001B6C786898471FE07B689B6C002B1BD006
:103580007B689B6C7868984716E07B681B681B68B3
:1035900003F48073002B07D17B681B681A687B6873
:1035A0001B6822F008021A607B681B6C002B03D09A
:1035B0007B681B6C786898477B68DB6D20229A409B
:1035C000FB681340002B00F08F807B681B681B6832
:1035D00003F01003002B00F087807B68DB6D202256
:1035E0009A403B699A607B6893F83530DBB2052BD3
:1035F00036D17B681B681A687B681B6822F016024C
:103600001A607B681B685A697B681B6822F080021D
:103610005A617B681B6C002B03D17B689B6C002B71
:1036200007D07B681B681A687B681B6822F0080259
:103630001A607B68DB6D3F229A403B699A607B6829
:10364000012283F835207B68002283F834207B68D0
:103650001B6D002B7ED07B681B6D7868984779E0E6
:103660007B681B681B6803F48023002B1DD07B68DC
:103670001B681B6803F40023002B0DD17B685B6C77
:10368000002B31D07B685B6C786898472CE000BFDA
:1036900000000020B5814E1B7B68DB6B002B23D024
:1036A0007B68DB6B786898471EE07B681B681B684B
:1036B00003F48073002B0FD17B681B681A687B684A
:1036C0001B6822F010021A607B68012283F8352003
:1036D0007B68002283F834207B68DB6B002B03D0EF
:1036E0007B68DB6B786898477B685B6D002B32D01A
:1036F0007B685B6D03F00103002B22D07B68052201
:1037000083F835207B681B681A687B681B6822F089
:1037100001021A60BB680133BB607A699A4207D321
:103720007B681B681B6803F00103002BF2D100E0EB
:1037300000BF7B68012283F835207B68002283F874
:1037400034207B68DB6C002B05D07B68DB6C7868F1
:10375000984700E000BF1837BD4680BD80B485B0F3
:1037600000AFF860B9607A603B60FB681B681A685C
:10377000FB681B6822F480221A60FB681B683A68A9
:103780005A60FB689B68402B08D1FB681B687A680D
:103790009A60FB681B68BA68DA6007E0FB681B6820
:1037A000BA689A60FB681B687A68DA6000BF1437F1
:1037B000BD465DF8047B704780B485B000AF78608B
:1037C0007B681B68DBB2103B144AA2FB03231B0976
:1037D000FB60134AFB6813441B781A467B68DA6562
:1037E000FB68032B09D97B681B6823F47F7323F0E4
:1037F00003031A1D7B689A6507E07B681B6823F446
:103800007F7323F003037A6893657B689B6D18468A
:103810001437BD465DF8047B704700BFABAAAAAA67
:10382000909A000880B485B000AF78600023FB73E5
:103830007B689B6ABB607B689B69002B1FD1BB6860
:10384000032B56D801A252F823F000BF5D380008C0
:103850006F3800085D380008F33800087B68DB6AC1
:1038600003F08073002B46D00123FB7343E07B6899
:10387000DB6AB3F1C07F40D10123FB733DE07B687D
:103880009B69B3F5005F21D1BB68032B37D801A238
:1038900052F823F0A5380008AB380008A538000816
:1038A000BD3800080123FB7330E07B68DB6A03F05E
:1038B0008073002B25D00123FB7322E07B68DB6A39
:1038C000B3F1C07F1FD10123FB731CE0BB68022B47
:1038D00003D9BB68032B03D018E00123FB7315E069
:1038E0007B68DB6A03F08073002B0ED00123FB732F
:1038F0000BE000BF0AE000BF08E000BF06E000BF29
:1039000004E000BF02E000BF00E000BFFB7B184600
:103910001437BD465DF8047B704700BF80B489B0A2
:1039200000AF7860396000237B6100233B61002396
:10393000BB610023FB616BE10122FB6902FA03F327
:103940007B613B681B687A6913403B613A697B691C
:103950009A4240F05A813B685B6803F00303012BF5
:1039600005D03B685B6803F00303022B30D17B6812
:103970009B68BB61FB695B00032202FA03F3DB4334
:10398000BA691340BB613B68DA68FB695B0002FA05
:1039900003F3BA691343BB617B68BA699A607B68B9
:1039A0005B68BB610122FB6902FA03F3DB43BA697E
:1039B0001340BB613B685B681B0903F00102FB69B4
:1039C00002FA03F3BA691343BB617B68BA695A60B0
:1039D0003B685B6803F00303032B17D07B68DB684D
:1039E000BB61FB695B00032202FA03F3DB43BA69A4
:1039F0001340BB613B689A68FB695B0002FA03F302
:103A0000BA691343BB617B68BA69DA603B685B687B
:103A100003F00303022B23D1FB69DA087B68083229
:103A200053F82230BB61FB6903F007039B000F22B0
:103A300002FA03F3DB43BA691340BB613B681A69BE
:103A4000FB6903F007039B0002FA03F3BA6913430F
:103A5000BB61FB69DA087B680832B96943F8221058
:103A60007B681B68BB61FB695B00032202FA03F3FE
:103A7000DB43BA691340BB613B685B6803F0030238
:103A8000FB695B0002FA03F3BA691343BB617B680D
:103A9000BA691A603B685B6803F44033002B00F09E
:103AA000B4800023FB60604B5B6C5F4A43F480434F
:103AB00053645D4B5B6C03F48043FB60FB685B4AC3
:103AC000FB699B08023352F82330BB61FB6903F0AA
:103AD00003039B000F2202FA03F3DB43BA6913408E
:103AE000BB617B68524A93422BD07B68514A934218
:103AF00025D07B68504A93421FD07B684F4A93423F
:103B000019D07B684E4A934213D07B684D4A93424A
:103B10000DD07B684C4A934207D07B684B4A934256
:103B200001D107230EE008230CE006230AE0052359
:103B300008E0042306E0032304E0022302E001235B
:103B400000E00023FA6902F0030292009340BA6990
:103B50001343BB613549FB699B080233BA6941F8DD
:103B600023203B4B9B68BB613B69DB43BA69134035
:103B7000BB613B685B6803F48013002B03D0BA6918
:103B80003B691343BB61324ABB699360304BDB68CE
:103B9000BB613B69DB43BA691340BB613B685B684F
:103BA00003F40013002B03D0BA693B691343BB61D4
:103BB000274ABB69D360264B5B68BB613B69DB432B
:103BC000BA691340BB613B685B6803F40033002BA8
:103BD00003D0BA693B691343BB611D4ABB6953609B
:103BE0001B4B1B68BB613B69DB43BA691340BB617C
:103BF0003B685B6803F48033002B03D0BA693B69F0
:103C00001343BB61124ABB691360FB690133FB615B
:103C1000FB690F2B7FF690AE00BF00BF2437BD4677
:103C20005DF8047B704700BF003802400038014057
:103C3000000002400004024000080240000C024064
:103C4000001002400014024000180240001C024014
:103C5000003C014080B483B000AF78600B467B80AD
:103C600013467B707B78002B03D07A887B689A613F
:103C700003E07B881A047B689A6100BF0C37BD465D
:103C80005DF8047B704780B584B000AF78607B68D6
:103C9000002B01D1012334E07B681B684CF6CC4239
:103CA0001A607B681B6845F255521A607B681B6876
:103CB0007A6852685A607B681B687A6892689A6072
:103CC000FEF78AFAF8600FE0FEF786FA0246FB6814
:103CD000D31A312B08D97B681B68DB6803F0030318
:103CE000002B01D003230CE07B681B68DB6803F02A
:103CF0000303002BE8D17B681B684AF6AA221A60EE
:103D0000002318461037BD4680BD80B483B000AF95
:103D100078607B681B684AF6AA221A60002318465E
:103D20000C37BD465DF8047B7047000080B586B057
:103D300000AF78607B68002B01D1012367E27B68CC
:103D40001B6803F00103002B75D0884B9B6803F0C0
:103D50000C03042B0CD0854B9B6803F00C03082B41
:103D600012D1824B5B6803F48003B3F5800F0BD153
:103D70007E4B1B6803F40033002B5BD07B685B68D1
:103D8000002B57D1012342E27B685B68B3F5803F8B
:103D900006D1764B1B68754A43F4803313601DE0EF
:103DA0007B685B68B3F5A02F0CD1704B1B686F4A22
:103DB00043F4802313606D4B1B686C4A43F48033DB
:103DC00013600BE0694B1B68684A23F4803313606F
:103DD000664B1B68654A23F4802313607B685B682D
:103DE000002B13D0FEF7F8F9386108E0FEF7F4F97C
:103DF00002463B69D31A642B01D9032307E25B4BCC
:103E00001B6803F40033002BF0D014E0FEF7E4F954
:103E1000386108E0FEF7E0F902463B69D31A642BEB
:103E200001D90323F3E1514B1B6803F40033002B4A
:103E3000F0D100E000BF7B681B6803F00203002B99
:103E400063D04A4B9B6803F00C03002B0BD0474B0D
:103E50009B6803F00C03082B1CD1444B5B6803F4F4
:103E60008003002B16D1414B1B6803F00203002B8B
:103E700005D07B68DB68012B01D00123C7E13B4BF8
:103E80001B6823F0F8027B681B69DB00374913438A
:103E90000B603AE07B68DB68002B20D0344B0122BA
:103EA0001A60FEF799F9386108E0FEF795F90246C5
:103EB0003B69D31A022B01D90323A8E12B4B1B68C2
:103EC00003F00203002BF0D0284B1B6823F0F8020C
:103ED0007B681B69DB00254913430B6015E0244B0D
:103EE00000221A60FEF778F9386108E0FEF774F9ED
:103EF00002463B69D31A022B01D9032387E11B4BEE
:103F00001B6803F00203002BF0D17B681B6803F0F1
:103F10000803002B36D07B685B69002B16D0154B4D
:103F200001221A60FEF758F9386108E0FEF754F9EB
:103F300002463B69D31A022B01D9032367E10B4BDD
:103F40005B6F03F00203002BF0D01BE0094B002253
:103F50001A60FEF741F938610EE0FEF73DF90246BE
:103F60003B69D31A022B07D9032350E100380240E2
:103F700000004742800E4742884B5B6F03F002030C
:103F8000002BEAD17B681B6803F00403002B00F0D0
:103F900097800023FB75814B1B6C03F08053002B33
:103FA0000FD10023BB607D4B1B6C7C4A43F08053D8
:103FB00013647A4B1B6C03F08053BB60BB68012316
:103FC000FB75774B1B6803F48073002B18D1744B7F
:103FD0001B68734A43F480731360FEF7FDF8386181
:103FE00008E0FEF7F9F802463B69D31A022B01D923
:103FF00003230CE16A4B1B6803F48073002BF0D0A1
:104000007B689B68012B06D1644B1B6F634A43F0AE
:10401000010313671CE07B689B68052B0CD15F4B89
:104020001B6F5E4A43F0040313675C4B1B6F5B4AD4
:1040300043F0010313670BE0584B1B6F574A23F003
:1040400001031367554B1B6F544A23F00403136796
:104050007B689B68002B15D0FEF7BEF838610AE03C
:10406000FEF7BAF802463B69D31A41F2883293420E
:1040700001D90323CBE0494B1B6F03F00203002B54
:10408000EED014E0FEF7A8F838610AE0FEF7A4F8D5
:1040900002463B69D31A41F28832934201D9032385
:1040A000B5E03E4B1B6F03F00203002BEED1FB7D0E
:1040B000012B05D1394B1B6C384A23F08053136414
:1040C0007B689B69002B00F0A180344B9B6803F058
:1040D0000C03082B5CD07B689B69022B41D1314BD0
:1040E00000221A60FEF778F8386108E0FEF774F8ED
:1040F00002463B69D31A022B01D9032387E0274BE1
:104100001B6803F00073002BF0D17B68DA697B68D1
:104110001B6A1A437B685B6A9B011A437B689B6A34
:104120005B08013B1B041A437B68DB6A1B061B49C7
:1041300013434B601B4B01221A60FEF74DF83861A8
:1041400008E0FEF749F802463B69D31A022B01D971
:1041500003235CE0114B1B6803F00073002BF0D0CD
:1041600054E0104B00221A60FEF736F8386108E080
:10417000FEF732F802463B69D31A022B01D903231A
:1041800045E0064B1B6803F00073002BF0D13DE0C7
:104190007B689B69012B07D1012338E0003802407E
:1041A00000700040600047421B4B5B68FB607B680F
:1041B0009B69012B28D0FB6803F480027B68DB69D4
:1041C0009A4221D1FB6803F03F027B681B6A9A4246
:1041D0001AD1FA6847F6C07313407A68526A92019E
:1041E000934211D1FB6803F440327B689B6A5B0801
:1041F000013B1B049A4207D1FB6803F070627B68A5
:10420000DB6A1B069A4201D0012300E00023184616
:104210001837BD4680BD00BF0038024080B584B06D
:1042200000AF786039607B68002B01D10123CCE0BE
:10423000684B1B6803F007033A689A420CD9654B38
:104240003A68D2B21A70634B1B6803F007033A68EE
:104250009A4201D00123B8E07B681B6803F0020397
:10426000002B20D07B681B6803F00403002B05D0D3
:10427000594B9B68584A43F4E05393607B681B6832
:1042800003F00803002B05D0534B9B68524A43F4BC
:1042900060439360504B9B6823F0F0027B689B68FF
:1042A0004D4913438B607B681B6803F00103002BAF
:1042B00044D07B685B68012B07D1474B1B6803F434
:1042C0000033002B19D101237FE07B685B68022B50
:1042D00003D07B685B68032B07D13F4B1B6803F05F
:1042E0000073002B09D101236FE03B4B1B6803F0E7
:1042F0000203002B01D1012367E0374B9B6823F0B9
:1043000003027B685B68344913438B60FDF764FFED
:10431000F8600AE0FDF760FF0246FB68D31A41F23D
:104320008832934201D903234FE02B4B9B6803F063
:104330000C027B685B689B009A42EBD1254B1B68A3
:1043400003F007033A689A420CD2224B3A68D2B281
:104350001A70204B1B6803F007033A689A4201D099
:10436000012332E07B681B6803F00403002B08D0B4
:10437000194B9B6823F4E0527B68DB6816491343B2
:104380008B607B681B6803F00803002B09D0124B7D
:104390009B6823F460427B681B69DB000E49134372
:1043A0008B6000F021F802460B4B9B681B0903F061
:1043B0000F030A49CB5C22FA03F3094A1360094B45
:1043C0001B681846FCF748FC002318461037BD460A
:1043D00080BD00BF003C024000380240489A0008FF
:1043E00000000020040000202DE9B04F94B000AF81
:1043F00000237B640023FB6400233B640023BB6435
:10440000794B9B6803F00C03082B0DD0082B00F2AE
:10441000E180002B02D0042B03D0DBE0734BBB64A4
:10442000DBE0734BBB64D8E06F4B5B6803F03F038A
:104430007B646D4B5B6803F48003002B63D06A4B95
:104440005B689B090022BB63FA63BB6BC3F3080381
:104450003B6300237B63D7E90C4522462B464FF094
:1044600000004FF00001590141EAD26150010246BB
:104470000B462146511A3961294663EB01037B61E2
:104480004FF000024FF00003D7E904AB59468B010F
:10449000514643EA916351468A015146B2EB010805
:1044A000594663EB01094FF000024FF000034FEA59
:1044B000C90343EA58734FEAC80290469946234617
:1044C00018EB0303BB602B4649EB0303FB604FF083
:1044D00000024FF00003D7E9024529464B0221466E
:1044E00043EAD15321464A02104619467B6C00220A
:1044F000BB62FA62D7E90A23FBF76AFE02460B4663
:104500001346FB6458E0384B5B689B090022184651
:104510001146C0F308033B6200237B62D7E9088998
:1045200042464B464FF000004FF00001590141EA6E
:10453000D261500102460B464146B2EB010A4946A0
:1045400063EB010B4FF000024FF000034FEA8B13B7
:1045500043EA9A634FEA8A12B2EB0A0463EB0B0553
:104560004FF000024FF00003EB0043EA5473E20007
:1045700014461D464346E3183B604B4645EB030398
:104580007B604FF000024FF00003D7E90045294659
:104590008B02214643EA915321468A02104619466E
:1045A0007B6C0022BB61FA61D7E90623FBF710FEA2
:1045B00002460B461346FB640B4B5B681B0C03F077
:1045C000030301335B003B64FA6C3B6CB2FBF3F317
:1045D000BB6402E0054BBB6400BFBB6C18465037A0
:1045E000BD46BDE8B08F00BF003802400024F40093
:1045F00000127A0080B400AF034B1B681846BD461A
:104600005DF8047B704700BF0000002080B500AF5C
:10461000FFF7F0FF0246054B9B689B0A03F0070378
:104620000349CB5C22FA03F3184680BD00380240F0
:10463000589A000880B500AFFFF7DCFF0246054B33
:104640009B685B0B03F007030349CB5C22FA03F37F
:10465000184680BD00380240589A000880B483B0E4
:1046600000AF786039607B680F221A60124B9B683C
:1046700003F003027B685A600F4B9B6803F0F00263
:104680007B689A600C4B9B6803F4E0527B68DA60AD
:10469000094B9B68DB0803F4E0527B681A61074B07
:1046A0001B6803F007023B681A6000BF0C37BD4669
:1046B0005DF8047B704700BF00380240003C0240B8
:1046C00080B582B000AF78607B68002B01D10123F8
:1046D00041E07B6893F83D30DBB2002B06D17B686C
:1046E000002283F83C207868FCF7A0FC7B6802225B
:1046F00083F83D207B681A687B68043319461046AE
:1047000000F01EFE7B68012283F846207B680122B0
:1047100083F83E207B68012283F83F207B680122DA
:1047200083F840207B68012283F841207B680122C6
:1047300083F842207B68012283F843207B680122B2
:1047400083F844207B68012283F845207B6801229E
:1047500083F83D20002318460837BD4680BD000081
:1047600080B485B000AF78607B6893F83D30DBB2F1
:10477000012B01D001234EE07B68022283F83D200B
:104780007B681B68DA687B681B6842F00102DA60AC
:104790007B681B68234A934222D07B681B68B3F175
:1047A000804F1DD07B681B681F4A934218D07B68DE
:1047B0001B681E4A934213D07B681B681C4A9342B5
:1047C0000ED07B681B681B4A934209D07B681B682C
:1047D000194A934204D07B681B68184A934211D14E
:1047E0007B681B689B6803F00703FB60FB68062B74
:1047F00010D07B681B681A687B681B6842F0010256
:104800001A6007E07B681B681A687B681B6842F0C7
:1048100001021A60002318461437BD465DF8047B78
:10482000704700BF00000140000400400008004045
:10483000000C00400004014000400140001800400E
:1048400080B582B000AF78607B68002B01D1012376
:1048500041E07B6893F83D30DBB2002B06D17B68EA
:10486000002283F83C20786800F039F87B68022247
:1048700083F83D207B681A687B680433194610462C
:1048800000F05EFD7B68012283F846207B680122F0
:1048900083F83E207B68012283F83F207B68012259
:1048A00083F840207B68012283F841207B68012245
:1048B00083F842207B68012283F843207B68012231
:1048C00083F844207B68012283F845207B6801221D
:1048D00083F83D20002318460837BD4680BD80B4CC
:1048E00083B000AF786000BF0C37BD465DF8047B35
:1048F0007047000080B584B000AF786039603B68D5
:10490000002B09D17B6893F83E30DBB2012B14BF3A
:1049100001230023DBB222E03B68042B09D17B6832
:1049200093F83F30DBB2012B14BF01230023DBB22D
:1049300015E03B68082B09D17B6893F84030DBB267
:10494000012B14BF01230023DBB208E07B6893F83E
:104950004130DBB2012B14BF01230023DBB2002B5B
:1049600001D001237CE03B68002B04D17B6802224C
:1049700083F83E2013E03B68042B04D17B680222BD
:1049800083F83F200BE03B68082B04D17B680222B0
:1049900083F8402003E07B68022283F841207B6893
:1049A0001B6801223968184600F0B4FF7B681B6859
:1049B0002D4A934204D07B681B682C4A934201D154
:1049C000012300E00023002B07D07B681B685A6C92
:1049D0007B681B6842F400425A647B681B68224A69
:1049E000934222D07B681B68B3F1804F1DD07B6857
:1049F0001B681F4A934218D07B681B681D4A93426C
:104A000013D07B681B681C4A93420ED07B681B68DE
:104A1000164A934209D07B681B68184A934204D017
:104A20007B681B68164A934211D17B681B689B68A0
:104A300003F00703FB60FB68062B10D07B681B6844
:104A40001A687B681B6842F001021A6007E07B6805
:104A50001B681A687B681B6842F001021A60002319
:104A600018461037BD4680BD0000014000040140DB
:104A70000004004000080040000C004000400140DD
:104A80000018004080B582B000AF786039607B6864
:104A90001B6800223968184600F03CFF7B681B68E1
:104AA0002E4A934204D07B681B682D4A934201D161
:104AB000012300E00023002B17D07B681B681A6AD3
:104AC00041F211131340002B0FD17B681B681A6A47
:104AD00040F244431340002B07D17B681B685A6C9B
:104AE0007B681B6822F400425A647B681B681A6A60
:104AF00041F211131340002B0FD17B681B681A6A17
:104B000040F244431340002B07D17B681B681A68AE
:104B10007B681B6822F001021A603B68002B04D1FD
:104B20007B68012283F83E2013E03B68042B04D10C
:104B30007B68012283F83F200BE03B68082B04D1FF
:104B40007B68012283F8402003E07B68012283F820
:104B50004120002318460837BD4680BD00000140B3
:104B60000004014080B586B000AF786039607B6892
:104B7000002B01D1012397E07B6893F83D30DBB235
:104B8000002B06D17B68002283F83C207868FCF774
:104B90006FFA7B68022283F83D207B681B689B6864
:104BA0007A68126823F4804323F0070393607B68DC
:104BB0001A687B6804331946104600F0C1FB7B6815
:104BC0001B689B687B617B681B689B693B617B689A
:104BD0001B681B6AFB603B681B687A6913437B6137
:104BE0003B6923F4407323F003033B613B689A68FD
:104BF0003B689B691B0213433A6913433B613B6962
:104C000023F4406323F00C033B613B6923F47043BE
:104C100023F0F0033B613B68DA683B68DB691B0209
:104C200013433A6913433B613B681B691A013B68B4
:104C30001B6A1B0313433A6913433B61FB6823F070
:104C40002203FB60FB6823F08803FB603B685A6823
:104C50003B685B691B011343FA681343FB607B6885
:104C60001B687A699A607B681B683A699A617B68FD
:104C70001B68FA681A627B68012283F846207B6809
:104C8000012283F83E207B68012283F83F207B6865
:104C9000012283F842207B68012283F843207B684D
:104CA000012283F83D20002318461837BD4680BDF9
:104CB00080B584B000AF786039607B6893F83E308F
:104CC000FB737B6893F83F30BB737B6893F842308B
:104CD0007B737B6893F843303B733B68002B10D1A8
:104CE000FB7B012B02D17B7B012B01D0012369E0EF
:104CF0007B68022283F83E207B68022283F84220F0
:104D000031E03B68042B10D1BB7B012B02D13B7BF4
:104D1000012B01D0012355E07B68022283F83F205C
:104D20007B68022283F843201DE0FB7B012B08D126
:104D3000BB7B012B05D17B7B012B02D13B7B012B64
:104D400001D001233EE07B68022283F83E207B688D
:104D5000022283F83F207B68022283F842207B688E
:104D6000022283F843203B68002B03D03B68042BCE
:104D700008D00FE07B681B6801220021184600F074
:104D8000C9FD16E07B681B6801220421184600F06B
:104D9000C1FD0EE07B681B6801220021184600F06F
:104DA000B9FD7B681B6801220421184600F0B2FDA2
:104DB00000BF7B681B681A687B681B6842F00102B1
:104DC0001A60002318461037BD4680BD80B582B0FA
:104DD00000AF78607B681B681B6903F00203022B3D
:104DE00022D17B681B68DB6803F00203022B1BD116
:104DF0007B681B686FF002021A617B6801221A77D8
:104E00007B681B689B6903F00303002B03D0786861
:104E100000F077FA05E0786800F069FA786800F049
:104E20007AFA7B6800221A777B681B681B6903F09B
:104E30000403042B22D17B681B68DB6803F00403A6
:104E4000042B1BD17B681B686FF004021A617B681E
:104E500002221A777B681B689B6903F44073002B5E
:104E600003D0786800F04DFA05E0786800F03FFA6A
:104E7000786800F050FA7B6800221A777B681B681C
:104E80001B6903F00803082B22D17B681B68DB68D1
:104E900003F00803082B1BD17B681B686FF0080226
:104EA0001A617B6804221A777B681B68DB6903F050
:104EB0000303002B03D0786800F023FA05E078683C
:104EC00000F015FA786800F026FA7B6800221A775D
:104ED0007B681B681B6903F01003102B22D17B68D1
:104EE0001B68DB6803F01003102B1BD17B681B6869
:104EF0006FF010021A617B6808221A777B681B68C2
:104F0000DB6903F44073002B03D0786800F0F9F9F3
:104F100005E0786800F0EBF9786800F0FCF97B6850
:104F200000221A777B681B681B6903F00103012BC1
:104F30000ED17B681B68DB6803F00103012B07D1EE
:104F40007B681B686FF001021A617868FBF740FE0E
:104F50007B681B681B6903F08003802B0ED17B6884
:104F60001B68DB6803F08003802B07D17B681B681C
:104F70006FF080021A61786800F078FD7B681B682A
:104F80001B6903F04003402B0ED17B681B68DB6874
:104F900003F04003402B07D17B681B686FF0400291
:104FA0001A61786800F0C1F97B681B681B6903F01F
:104FB0002003202B0ED17B681B68DB6803F02003E5
:104FC000202B07D17B681B686FF020021A6178687C
:104FD00000F042FD00BF0837BD4680BD80B586B0F9
:104FE00000AFF860B9607A600023FB75FB6893F846
:104FF0003C30012B01D10223AEE0FB68012283F893
:105000003C207B680C2B00F29F8001A252F823F019
:10501000455000084951000849510008495100080D
:1050200085500008495100084951000849510008BD
:10503000C75000084951000849510008495100086B
:1050400007510008FB681B68B968184600F018FA99
:10505000FB681B689A69FB681B6842F008029A614A
:10506000FB681B689A69FB681B6822F004029A615E
:10507000FB681B689969BB681A69FB681B680A436F
:105080009A6164E0FB681B68B968184600F068FA2A
:10509000FB681B689A69FB681B6842F400629A61AE
:1050A000FB681B689A69FB681B6822F480629A613E
:1050B000FB681B689969BB681B691A02FB681B685F
:1050C0000A439A6143E0FB681B68B968184600F020
:1050D000BDFAFB681B68DA69FB681B6842F00802CE
:1050E000DA61FB681B68DA69FB681B6822F004025E
:1050F000DA61FB681B68D969BB681A69FB681B68C1
:105100000A43DA6123E0FB681B68B968184600F0BF
:1051100011FBFB681B68DA69FB681B6842F40062DC
:10512000DA61FB681B68DA69FB681B6822F480623D
:10513000DA61FB681B68D969BB681B691A02FB68E6
:105140001B680A43DA6102E00123FB7500BFFB68BC
:10515000002283F83C20FB7D18461837BD4680BDF1
:1051600080B584B000AF786039600023FB737B6842
:1051700093F83C30012B01D10223B4E07B6801227B
:1051800083F83C207B68022283F83D207B681B6803
:105190009B68BB60BB6823F07703BB60BB6823F4EC
:1051A0007F43BB607B681B68BA689A603B681B687A
:1051B000B3F5005F3ED0B3F5005F00F28780B3F532
:1051C000805F00F08680B3F5805F7FD8702B1AD0A7
:1051D000702B7BD8602B50D0602B77D8502B3CD0D5
:1051E000502B73D8402B58D0402B6FD8302B64D025
:1051F000302B6BD8202B60D0202B67D8002B5CD0B5
:10520000102B5AD062E07B6818683B6899683B684D
:105210005A683B68DB6800F05DFB7B681B689B6835
:10522000BB60BB6843F07703BB607B681B68BA68F0
:105230009A604FE07B6818683B6899683B685A68D9
:105240003B68DB6800F046FB7B681B689A687B68FC
:105250001B6842F480429A603CE07B6818683B68B7
:1052600059683B68DB681A4600F0BAFA7B681B682D
:105270005021184600F013FB2CE07B6818683B684F
:1052800059683B68DB681A4600F0D9FA7B681B68EE
:105290006021184600F003FB1CE07B6818683B683F
:1052A00059683B68DB681A4600F09AFA7B681B680D
:1052B0004021184600F0F3FA0CE07B681A683B685E
:1052C0001B681946104600F0EAFA03E00123FB735D
:1052D00000E000BF7B68012283F83D207B6800224C
:1052E00083F83C20FB7B18461037BD4680BD80B458
:1052F00083B000AF786000BF0C37BD465DF8047B1B
:10530000704780B483B000AF786000BF0C37BD46F3
:105310005DF8047B704780B483B000AF786000BF55
:105320000C37BD465DF8047B704780B483B000AF96
:10533000786000BF0C37BD465DF8047B7047000005
:1053400080B485B000AF786039607B681B68FB6013
:105350007B68404A934213D07B68B3F1804F0FD0F3
:105360007B683D4A93420BD07B683C4A934207D00E
:105370007B683B4A934203D07B683A4A934208D108
:10538000FB6823F07003FB603B685B68FA681343BB
:10539000FB607B682F4A93422BD07B68B3F1804F30
:1053A00027D07B682C4A934223D07B682B4A9342B8
:1053B0001FD07B682A4A93421BD07B68294A9342BC
:1053C00017D07B68284A934213D07B68274A9342C0
:1053D0000FD07B68264A93420BD07B68254A9342C4
:1053E00007D07B68244A934203D07B68234A9342C8
:1053F00008D1FB6823F44073FB603B68DB68FA6804
:105400001343FB60FB6823F080023B685B69134336
:10541000FB607B68FA681A603B689A687B68DA62AE
:105420003B681A687B689A627B680A4A934203D099
:105430007B680C4A934203D13B681A697B681A6304
:105440007B6801225A6100BF1437BD465DF8047BBA
:10545000704700BF00000140000400400008004009
:10546000000C0040000401400040014000440140A5
:105470000048014000180040001C0040002000408F
:1054800080B487B000AF786039607B681B6A23F016
:1054900001027B681A627B681B6A7B617B685B68C0
:1054A0003B617B689B69FB60FB6823F07003FB60DA
:1054B000FB6823F00303FB603B681B68FA68134337
:1054C000FB607B6923F002037B613B689B687A6920
:1054D00013437B617B68204A934203D07B681F4A59
:1054E00093420CD17B6923F008037B613B68DB6846
:1054F0007A6913437B617B6923F004037B617B68DA
:10550000154A934203D07B68144A934211D13B69F8
:1055100023F480733B613B6923F400733B613B6878
:105520005B693A6913433B613B689B693A69134382
:105530003B617B683A695A607B68FA689A613B68AC
:105540005A687B685A637B687A691A6200BF1C37A5
:10555000BD465DF8047B7047000001400004014037
:1055600080B487B000AF786039607B681B6A23F035
:1055700010027B681A627B681B6A7B617B685B68D0
:105580003B617B689B69FB60FB6823F4E043FB6045
:10559000FB6823F44073FB603B681B681B02FA68DE
:1055A0001343FB607B6923F020037B613B689B68AE
:1055B0001B017A6913437B617B68224A934203D0C3
:1055C0007B68214A93420DD17B6923F080037B6184
:1055D0003B68DB681B017A6913437B617B6923F0BD
:1055E00040037B617B68174A934203D07B68164A6D
:1055F000934213D13B6923F480633B613B6923F4FD
:1056000000633B613B685B699B003A6913433B6104
:105610003B689B699B003A6913433B617B683A692D
:105620005A607B68FA689A613B685A687B689A633B
:105630007B687A691A6200BF1C37BD465DF8047B3F
:10564000704700BF000001400004014080B487B0F3
:1056500000AF786039607B681B6A23F480727B68D6
:105660001A627B681B6A7B617B685B683B617B6855
:10567000DB69FB60FB6823F07003FB60FB6823F0D1
:105680000303FB603B681B68FA681343FB607B699C
:1056900023F400737B613B689B681B027A691343A8
:1056A0007B617B68214A934203D07B68204A934206
:1056B0000DD17B6923F400637B613B68DB681B02CF
:1056C0007A6913437B617B6923F480637B617B6828
:1056D000164A934203D07B68154A934213D13B6923
:1056E00023F480533B613B6923F400533B613B68E7
:1056F0005B691B013A6913433B613B689B691B0172
:105700003A6913433B617B683A695A607B68FA687F
:10571000DA613B685A687B68DA637B687A691A6287
:1057200000BF1C37BD465DF8047B70470000014098
:105730000004014080B487B000AF786039607B68B6
:105740001B6A23F480527B681A627B681B6A3B6188
:105750007B685B687B617B68DB69FB60FB6823F4CB
:10576000E043FB60FB6823F44073FB603B681B680D
:105770001B02FA681343FB603B6923F400533B614F
:105780003B689B681B033A6913433B617B68124A81
:10579000934203D07B68114A934209D17B6923F479
:1057A00080437B613B685B699B017A6913437B6142
:1057B0007B687A695A607B68FA68DA613B685A6884
:1057C0007B681A647B683A691A6200BF1C37BD4661
:1057D0005DF8047B704700BF0000014000040140F9
:1057E00080B487B000AFF860B9607A60FB681B6A6C
:1057F0007B61FB681B6A23F00102FB681A62FB688D
:105800009B693B613B6923F0F0033B617B681B01B3
:105810003A6913433B617B6923F00A037B617A6930
:10582000BB6813437B61FB683A699A61FB687A69DC
:105830001A6200BF1C37BD465DF8047B704780B418
:1058400087B000AFF860B9607A60FB681B6A23F02C
:105850001002FB681A62FB689B697B61FB681B6A2C
:105860003B617B6923F470437B617B681B037A692E
:1058700013437B613B6923F0A0033B61BB681B01C1
:105880003A6913433B61FB687A699A61FB683A693C
:105890001A6200BF1C37BD465DF8047B704780B4B8
:1058A00085B000AF786039607B689B68FB60FB68FF
:1058B00023F07003FB603A68FB68134343F007036F
:1058C000FB607B68FA689A6000BF1437BD465DF8DC
:1058D000047B704780B487B000AFF860B9607A602D
:1058E0003B60FB689B687B617B6923F47F437B6142
:1058F0003B681A027B681A43BB6813437A691343F7
:105900007B61FB687A699A6000BF1C37BD465DF811
:10591000047B704780B487B000AFF860B9607A60EC
:10592000BB6803F01F03012202FA03F37B61FB68EB
:105930001A6A7B69DB431A40FB681A62FB681A6AC1
:10594000BB6803F01F03796801FA03F31A43FB688D
:105950001A6200BF1C37BD465DF8047B704700002B
:1059600080B485B000AF786039607B6893F83C30D4
:10597000012B01D102235AE07B68012283F83C20ED
:105980007B68022283F83D207B681B685B68FB60B4
:105990007B681B689B68BB60FB6823F07003FB603F
:1059A0003B681B68FA681343FB607B681B68FA68F6
:1059B0005A607B681B68214A934222D07B681B682F
:1059C000B3F1804F1DD07B681B681D4A934218D0ED
:1059D0007B681B681B4A934213D07B681B681A4A7A
:1059E00093420ED07B681B68184A934209D07B68AB
:1059F0001B68174A934204D07B681B68154A934280
:105A00000CD1BB6823F08003BB603B685B68BA685D
:105A10001343BB607B681B68BA689A607B6801228D
:105A200083F83D207B68002283F83C200023184641
:105A30001437BD465DF8047B704700BF000001408D
:105A40000004004000080040000C00400004014039
:105A5000004001400018004080B483B000AF78607F
:105A600000BF0C37BD465DF8047B704780B483B03F
:105A700000AF786000BF0C37BD465DF8047B70470F
:105A800080B582B000AF78607B68002B01D1012324
:105A90003FE07B6893F83D30DBB2002B06D17B689A
:105AA000002283F83C207868FBF7E2FB7B68242225
:105AB00083F83D207B681B68DA687B681B6822F4EA
:105AC0000052DA60786800F09DFE7B681B681A69F6
:105AD0007B681B6822F490421A617B681B685A69D4
